:100000000C94C9030C9421100C94FA0F0C94D30F88
:100010000C94AC0F0C94F1030C94F1030C94850F29
:100020000C94F1030C94F1030C9448100C94C5103B
:100030000C94F1030C94F1030C94F1030C94F10370
:100040000C94F1030C94F1030C94F1030C94F10360
:100050000C94F1030C94F1030C94F1030C943B0FFA
:100060000C94F1030C941D130C94F7120C94F103EF
:100070000C94F1030C94F1030C94F1030C94F10330
:100080000C94F1030C94F1030C94F1030C94F10320
:100090000C944F130C94F1030C94F1030C94F103A2
:1000A0000C94F1030C94F1030C94F1030000000094
:1000B000000000000000000000000000000000F848
:1000C00000000000000000333000000000100C06AB
:1000D000100C0600000000000000000040C0784046
:1000E000C0784000043F04043F040400007088FC12
:1000F00008300000001820FF211E0000F008F0006A
:10010000E018000000211C031E211E0000F00888DA
:10011000700000001E2123241927211010160E0044
:10012000000000000000000000000000000000E0EF
:100130001804020000000007182040000002041804
:10014000E00000000040201807000000404080F060
:10015000804040000202010F01020200000000F096
:10016000000000000101011F01010100000000006A
:100170000000000080B070000000000000000000DF
:100180000000000000010101010101010000000068
:1001900000000000003030000000000000000000FF
:1001A00080601804006018060100000000E01008DC
:1001B0000810E000000F102020100F00001010F8B1
:1001C000000000000020203F2020000000700808F0
:1001D0000888700000302824222130000030088870
:1001E000884830000018202020110E000000C02098
:1001F00010F8000000070424243F240000F80888B9
:10020000880808000019212020110E0000E0108845
:1002100088180000000F112020110E000038080877
:10022000C83808000000003F000000000070880887
:1002300008887000001C222121221C0000E0100808
:100240000810E0000000312222110F00000000C061
:10025000C0000000000000303000000000000080FE
:1002600000000000000080600000000000008040EE
:100270002010080000010204081020004040404007
:10028000404040000404040404040400000810205A
:10029000408000000020100804020100007048089F
:1002A0000808F0000000003036010000C030C82807
:1002B000E810E0000718272423140B000000C038C2
:1002C000E0000000203C23020227382008F888883C
:1002D00088700000203F202020110E00C030080848
:1002E00008083800071820202010080008F808081F
:1002F0000810E000203F202020100F0008F8888818
:10030000E8081000203F20202320180008F88888E3
:10031000E8081000203F200003000000C03008085B
:100320000838000007182020221E020008F80800E4
:100330000008F808203F210101213F20000808F8AB
:10034000080800000020203F2020000000000808CE
:10035000F8080800C08080807F00000008F888C08E
:1003600028180800203F20012638200008F808003F
:1003700000000000203F20202020300008F8F80076
:10038000F8F80800203F003F003F200008F830C088
:100390000008F808203F200007183F00E010080878
:1003A0000810E0000F10202020100F0008F80808A7
:1003B0000808F000203F210101010000E0100808BA
:1003C0000810E0000F18242438504F0008F88888DF
:1003D00088887000203F2000030C302000708808BF
:1003E000080838000038202121221C00180808F8CD
:1003F000080818000000203F2000000008F808004E
:100400000008F808001F202020201F00087888001E
:1004100000C83808000007380E010000F80800F88E
:100420000008F800033C0700073C03000818688038
:100430008068180820302C03032C30200838C800AE
:10044000C83808000000203F2000000010080808FD
:10045000C83808002038262120201800000000FE9F
:10046000020202000000007F40404000000C30C04B
:1004700000000000000000010638C0000002020277
:10048000FE000000004040407F0000000000040229
:100490000202040000000000000000000000000054
:1004A0000000000080808080808080800002020444
:1004B000000000000000000000000000000080803C
:1004C000808000000019242222223F2008F80080AA
:1004D00080000000003F112020110E00000000806D
:1004E00080800000000E11202020110000000080FC
:1004F0008088F800000E112020103F20000080802E
:1005000080800000001F222222221300008080F041
:10051000888888180020203F20200000000080806C
:1005200080808000006B94949493600008F80080B1
:1005300080800000203F210000203F20008098980C
:10054000000000000020203F20200000000000806C
:100550009898000000C08080807F000008F80000AC
:1005600080808000203F24022D302000000808F801
:10057000000000000020203F2020000080808080BC
:1005800080808000203F20003F20003F808000804E
:1005900080800000203F210000203F20000080805C
:1005A00080800000001F202020201F00808000800D
:1005B0008000000080FFA12020110E0000000080BC
:1005C00080808000000E112020A0FF8080808000AD
:1005D0008080800020203F212000010000008080DA
:1005E000808080000033242424241900008080E0CF
:1005F000808000000000001F20200000808000009C
:1006000000808000001F202020103F20808080007C
:100610000080808000010E3008060100808000808C
:10062000008080800F300C030C300F0000808000B1
:10063000808080000020312E0E31200080808000DC
:100640000080808080818E7018060100008080808C
:10065000808080000021302C22213000000000002A
:10066000807C020200000000003F404000000000CB
:10067000FF00000000000000FF0000000002027CFC
:10068000800000000040403F000000000006010123
:10069000020204040000000000000000080B000239
:1006A000020200000904000001020200000524000B
:1006B000100105240101010424020605240600019D
:1006C0000705810310004009040100020A00000030
:1006D00007050202400000070583024000000403F2
:1006E000090412010002EF0201404123378000019A
:1006F0000102030141726475696E6F204C4C430026
:1007000041726475696E6F204D6963726F00C8A194
:10071000A81FDA028D140000000200090F00000378
:100720000401000C000000000000000000000000B8
:10073000000000000000000000250028002B002E13
:1007400000310000000000240027002A002D0030A6
:100750000004040404040304050202020204030268
:100760000202020606060606060404020202040449
:1007700004080201104080401020408040800802A0
:100780000401804020100201108010204040200011
:10079000A11411241FBECFEFDAE0DEBFCDBF25E0EC
:1007A000ACE1B2E001C01D92AA36B207E1F712E057
:1007B000A0E0B1E0ECE4F9E402C005900D92AC31A8
:1007C000B107D9F713E0C9ECD3E004C02197FE01CB
:1007D0000E941D1FC83CD107C9F70E948A150C94BE
:1007E000A4240C94000083E08093E9008091F2003F
:1007F000882319F08AE38093E800089590E0FC01D3
:10080000E059F84F24918F5A984FFC018491882326
:1008100099F090E0880F991FFC01ED5BF84FA591CE
:10082000B491FC01EB5CF84F859194918FB7F894EB
:10083000EC91E22BEC938FBF0895FC018091A00313
:10084000882311F13FB7F89482E08093E90020916A
:10085000F200822F90E01816190614F481E090E05F
:10086000882339F0289A44E640939F034091F10091
:100870004083222339F02091F200211103C02BE69E
:100880002093E8003FBF08958FEF9FEF08952FB7A3
:10089000F89483E08093E9009091E800892F8072BA
:1008A00095FF04C09091F20080E4891B2FBF08954A
:1008B0008091950381110DC082E08093910384E0C3
:1008C00080939203109294031092930381E080939B
:1008D000950381E993E00895282F30E0F901EA5E5D
:1008E000F84F9491F901E059F84F84912F5A384FFD
:1008F000F9012491222309F430C09923E9F09150A1
:100900009F30D0F4E92FF0E0E857FB4F0C941D1F07
:10091000B604BA049704AE04B2049C049C049C047C
:10092000BD04C304C704CB04D1049C04D504909136
:1009300080009F7790938000E22FF0E0EE0FFF1F82
:10094000EB5CF84FA591B4919FB7F894EC916111CD
:1009500032C080958E238C939FBF08959091800024
:100960009F7DE8CF90918000977FE4CF94B59F77EB
:1009700094BDE2CF94B59F7DFBCF909190009F777F
:1009800090939000D9CF909190009F7DF9CF909156
:100990009000977FF5CF9091C0009F779093C00013
:1009A000CBCF9091C0009F7DF9CF9091C200977FEF
:1009B0009093C200C1CF8E2BCECF3FB7F8948091D9
:1009C0008D0390918E03A0918F03B091900326B573
:1009D000A89B05C02F3F19F00196A11DB11D3FBF77
:1009E000BA2FA92F982F8827BC01CD01620F711D46
:1009F000811D911D42E0660F771F881F991F4A9540
:100A0000D1F708958F929F92AF92BF92CF92DF92CB
:100A1000EF92FF924B015C010E94DD046B017C01AF
:100A20000E94DD046C197D098E099F09683E7340A0
:100A300081059105A8F321E0821A9108A108B10867
:100A400088EEC80E83E0D81EE11CF11C81149104CD
:100A5000A104B10429F7FF90EF90DF90CF90BF90F1
:100A6000AF909F908F9008952FB7F894609189036D
:100A700070918A0380918B0390918C032FBF08950E
:100A80000C94F303089508954091D9025091DA022D
:100A90002091D7023091D80242175307B4F49091B5
:100AA000E8009570E1F39091E80092FD19C0809301
:100AB000F1008091D9029091DA0201968F73992703
:100AC000892B19F48EEF8093E8008091D9029091E0
:100AD000DA0201969093DA028093D90281E00895B8
:100AE00080E00895DF92EF92FF920F931F93CF93D0
:100AF000DF93D82E8A01EB017B01E40EF51ECE15A3
:100B0000DF0559F0D7FE12C0FE0184910E94440512
:100B100021968111F4CF0FEF1FEFC801DF91CF9124
:100B20001F910F91FF90EF90DF9008958881EECF95
:100B30000F931F93CF93DF931F92CDB7DEB782E061
:100B4000898342E450E06CE976E080E80E94720517
:100B50000E945804DC0112960D911C91011511059B
:100B600089F0D801ED91FC910280F381E02DBE0166
:100B70006F5F7F4FC801099597FD04C0F80100859C
:100B80001185ECCF89810F90DF91CF911F910F914B
:100B90000895615030F02091F100FC01208301960E
:100BA000F8CF289A84E680939F030895AF92BF926E
:100BB000CF92DF92EF92FF920F931F93CF93DF9329
:100BC0006C017B018B01040F151FEB015E01AE1858
:100BD000BF08C017D10759F06991D601ED91FC917A
:100BE0000190F081E02DC6010995892B79F7C501A7
:100BF000DF91CF911F910F91FF90EF90DF90CF90F9
:100C0000BF90AF900895FC01538D448D252F30E0A7
:100C1000842F90E0821B930B541710F0CF96089509
:100C200001970895FC01918D828D981761F0A28D36
:100C3000AE0FBF2FB11D5D968C91928D9F5F9F73FC
:100C4000928F90E008958FEF9FEF0895FC01918DB2
:100C5000828D981731F0828DE80FF11D858D90E01F
:100C600008958FEF9FEF0895FC01918D228D892FBC
:100C700090E0805C9F4F821B91098F7399270895A4
:100C800084EA93E00E94340621E0892B09F420E0F5
:100C9000822F089580E090E0892B29F00E94400681
:100CA00081110C9400000895FC01A48DA80FB92FA8
:100CB000B11DA35ABF4F2C91848D90E001968F7384
:100CC0009927848FA689B7892C93A089B1898C91A3
:100CD00082748C93938D848D981306C00288F38957
:100CE000E02D80818F7D80830895EF92FF920F9396
:100CF0001F93CF93DF93EC0181E0888F9B8D8C8DC8
:100D0000981319C0E889F989808185FF14C09FB7BD
:100D1000F894EE89FF896083E889F989808182747B
:100D200080839FBF81E090E0DF91CF911F910F9171
:100D3000FF90EF900895F62E0B8D10E00F5F1F4F80
:100D40000F731127E02E8C8D8E110CC00FB607FC8F
:100D5000FACFE889F989808185FFF5CFCE010E941D
:100D60005406F1CFEB8DEC0FFD2FF11DE35AFF4F31
:100D7000F0829FB7F8940B8FEA89FB8980818062AB
:100D8000CFCFCF93DF93EC01888D8823B9F0AA8968
:100D9000BB89E889F9898C9185FD03C0808186FD36
:100DA0000DC00FB607FCF7CF8C9185FFF2CF808185
:100DB00085FFEDCFCE010E945406E9CFDF91CF91A0
:100DC00008958F929F92AF92BF92CF92DF92EF924F
:100DD000FF920F931F93CF93DF936C017B018A01E6
:100DE00080910B01882309F45CC08091A0038823C3
:100DF00009F457C08091DD0280FF05C08091E000BA
:100E000082608093E000E801B12C8AEFA82E93E085
:100E1000892E2AE3922E209711F4BB20D9F10E944B
:100E2000470481110AC0AA94AA20D9F161E070E0B8
:100E300080E090E00E940205EECF8C171D0611F0B5
:100E40000CF08C2F9FB7F8948092E9002091E80075
:100E500025FD02C09FBFDFCF282F30E0C21BD30B80
:100E6000F701815020F041914093F100FACFE20E5A
:100E7000F31EBB2021F09092E800B12CEBCF8091C3
:100E8000E80085FDE7CF9092E800BB24B39420975B
:100E900009F3F3CF5D9A84E68093DC021016110605
:100EA0003CF081E090E0F6019383828310E000E063
:100EB000C801DF91CF911F910F91FF90EF90DF90CC
:100EC000CF90BF90AF909F908F900895CF93DF9376
:100ED0001F92CDB7DEB76983DC01ED91FC910280F2
:100EE000F381E02D41E050E0BE016F5F7F4F099537
:100EF0000F90DF91CF9108950E94470490E00895EC
:100F0000CF93DF931F92CDB7DEB7FC018485958523
:100F100097FD08C02FEF3FEF358724870F90DF91B3
:100F2000CF910895CE0101960E941D04019719F4F6
:100F3000898190E0F3CF8FEF9FEFF0CF0F931F9356
:100F4000CF93DF931F92CDB7DEB78C01FC01848570
:100F5000958597FF0BC0CE0101960E941D04019755
:100F600071F4898190E0F80195878487F801848580
:100F700095850F90DF91CF911F910F9108958FEF7D
:100F80009FEFF1CFFC018485958597FD0BC09FB73E
:100F9000F89482E08093E9008091F2009FBF90E096
:100FA000019608959FB7F89482E08093E9008091BC
:100FB000F2009FBF90E0089520918B02260F332707
:100FC000331F21323105ECF42091B102FC0190E095
:100FD00080E0243069F082E00895A0918B02219195
:100FE000AC0147595D4FA40FB52FB11D2C9301964D
:100FF000861798F380918B02680F60938B0280E0D4
:10100000089581E008951092B10281E08093B302C7
:101010001092B20261E082E00E946C0461E083E021
:101020000E946C04E9EBF0E080818E7F80838081F8
:101030008D7F808388E48093B80085E48093BC0032
:101040000895CF93DF9391E0909368028823B9F0DD
:10105000C091B800D091BA008091BC008A7B809387
:10106000BC0060E082E00E946C0460E083E00E94CB
:101070006C040E940308D093BA00C093B800DF91BB
:10108000CF910895089508950895E09160028091A8
:101090005F02E81730F4F0E0E15CFD4F808190E002
:1010A00008958FEF9FEF08959091600280915F0205
:1010B0002FEF3FEF981748F4E92FF0E0E15CFD4F88
:1010C000208130E09F5F90936002C9010895809174
:1010D0005F0290916002891B990B0895CF92DF9275
:1010E000EF92FF920F931F93CF93DF937C01CB017D
:1010F0008A0120913E02222389F0EB016B01C40E8C
:10110000D51ECC15DD0569F06991D701ED91FC91F3
:101110000190F081E02DC7010995F3CF642F0E9463
:10112000DC07C801DF91CF911F910F91FF90EF90E5
:10113000DF90CF900895CF93DF931F92CDB7DEB7A6
:10114000698320913E022223F9F02091610220322E
:1011500058F021E030E0FC013383228390E080E00E
:101160000F90DF91CF91089580916202E82FF0E017
:10117000E25EFD4F998190838F5F8093620280933E
:10118000610281E090E0ECCF61E0CE0101960E9427
:10119000DC07F7CF682F81E994E00E949B0821E0EB
:1011A000892B09F420E0822F0895E091C204F09188
:1011B000C3040994E091C404F091C5040994E0913A
:1011C000C604F091C704099580E40C94DA08CF9323
:1011D000C82F0E94DA08811107C00E94D5080E941A
:1011E000DF088C2F0E94DA088091A1038F5F809323
:1011F000A103CF9108951F93CF93DF93172FD82F7B
:10120000C92F862F0E94E708812F0E94E708E091EE
:101210009D03F0919E038381823048F08D2F0E94C0
:10122000E7088C2FDF91CF911F910C94E708DF9195
:10123000CF911F910895E091C604F091C7040995DC
:1012400080E00C94DA081F93CF93DF93182FD62FEA
:10125000C42F0E941B09812F0E94DA088D2F0E9443
:10126000DA088C2F0E94DA08DF91CF911F910C943D
:10127000D508CF93DF93C82FD62F482F4F70682FF4
:1012800062956F7060618D2F8770806B0E9423095B
:10129000C093A303D093A2031092A103DF91CF9137
:1012A00008950F931F93CF93DF93C0E010E86C2F46
:1012B00080E00E9439098091A303012F081B69F087
:1012C0001093A3030E94DF08D0E080E00E94E708AB
:1012D000DF5F0D13FACF0E94D508CF5FC43039F716
:1012E00060E080E0DF91CF911F910F910C9439095C
:1012F0006D3009F442C0E0919D03F0919E036A3085
:10130000F1F483812091E00201C0880F2A95EAF769
:101310002091A203280F44E050E0481B51092417F4
:10132000150609F03CF42093A2036091A20380E02B
:101330000C94390994E0981B9093A203F6CF248172
:101340006217D8F025812617C0F02091E302309172
:10135000E402A90155954795840F951FE091E1029C
:10136000F091E20220FF08C0DC012D913C91E20FD8
:10137000F31F0190F081E02D099408958F929F92C0
:10138000AF92BF92CF92DF92EF92FF920F931F9393
:10139000CF93DF93A0919D03B0919E0314969C91EF
:1013A0001497262F291B330B89011296CC91129783
:1013B0001396FC901397232B09F4DAC02F2D30E0FD
:1013C000CC2309F497C0CF9DC0011124F801E89FF8
:1013D0008001E99F100DF89F100D11240E941B0938
:1013E00080E20E94DA0881E00E94DA080E94D508B3
:1013F0006091A2034FEF460FFF0C4F0D47706770CF
:1014000082E20E9423090E94DF08E0919D03F0918F
:101410009E0360817181F12CE12C060F171F68017A
:10142000CC0ED11CEC1608F0A8C0F801EE0DFF1D83
:10143000849190E0E0919D03F0919E0323812230FE
:1014400028F0F601EE0DFF1DE4919E2BB0E0A0E028
:101450004427582F692F7A2F842B952BA62BB72B37
:101460009927BB27AC01BD0134E0440F551F661F0F
:10147000771F3A95D1F7842B952BA62BB72BAC0170
:10148000BD014F705F706F707F70DB01CA01E2E0D9
:10149000880F991FAA1FBB1FEA95D1F7842B952BA4
:1014A000A62BB72B83739373A373B373AC01BD01E6
:1014B000440F551F661F771F842B952BA62BB72B28
:1014C00085759575A575B5754C015D01880C991CE0
:1014D000AA1CBB1C882A992AAA2ABB2AC501B401C6
:1014E0000E94FB08C501B4010E94FB08FFEFEF1A40
:1014F000FF0A98CFB801F4E076956795FA95E1F781
:1015000050E040E090E080E06417750781F0EA0168
:10151000CC0FDD1F1696ED91FC911797EC0FFD1F78
:10152000C591D4918C0F9D1F4F5F5F4FEDCFA801E8
:10153000407F4017510760F41896ED91FC91199780
:10154000E40FF51FE4918E0F911D4F5F5F4FF1CFB8
:10155000829FA001839F500D929F500D11241896D9
:10156000CD91DC91C00FD11FFE01C4918A0136CF0D
:10157000C11134CF50E040E0F2CF0E94D5080E9464
:101580001B0980E20E94DA0882E00E94DA080E94C9
:10159000D50847E060E082E20E9423098091DF02E3
:1015A000C80FCC0F8091A3036091A2038C0FDF9131
:1015B000CF911F910F91FF90EF90DF90CF90BF9050
:1015C000AF909F908F900C943909CF93CFB7F89438
:1015D00080911D02811124C0E2E6F7E08491E1E8E8
:1015E000F7E09491E82FF0E0EE0FFF1FED5BF84F6E
:1015F000A591B491EC91E92321F461E081E10E948D
:101600006C0481E10E94FE038CB580618CBD8CB5B9
:1016100080648CBD8FE00E94FE0380E10E94FE0387
:1016200080911D028F5F80931D02CFBFCF910895DF
:101630000F931F93CF93DF93EC01062F142F9C85FC
:101640008D859CBD8DBD60E088890E946C040EBDB7
:1016500000000DB407FEFDCF8EB51EBD00000DB419
:1016600007FEFDCF1EB561E088890E946C04812FC2
:10167000DF91CF911F910F910895CF93DF93EC01EC
:1016800082319105DCF0459714F0C4E1D0E0239756
:1016900047E86DEC8AEC94E00E94180B41E36BE89C
:1016A0008AEC94E00E94180B4C2F4250406869E885
:1016B0008AEC94E0DF91CF910C94180B029714F40C
:1016C000C2E0D0E044E86DEC8AEC94E00E94180B94
:1016D0004BE2E5CF40E00C94180B1092E704109217
:1016E000E6046DE18AEC94E00E946A0B482F4E7F7D
:1016F0006DE98AEC94E00C94180BCF92DF92EF9294
:10170000FF92CF93DF936DE18AEC94E00E946A0B25
:1017100090E034E0959587953A95E1F78A30910508
:101720000CF042C0FC01EE0FFF1FE80FF91FE25D55
:10173000FE4FC080D180E2800E2C000CFF086EE1CD
:101740008AEC94E00E946A0BD82F66E28AEC94E05F
:101750000E946A0BC82FD295DF7021E030E040E094
:1017600050E004C0220F331F441F551FDA95D2F7F3
:10177000C701B6010E94FE1E68EE73E080E090E0B3
:101780000E94FE1E213131054105510594F04C2F78
:10179000486066EA8AEC94E0DF91CF91FF90EF9089
:1017A000DF90CF900C94180BCC24CA94DC2C7601DB
:1017B000C6CF4C2F477FEDCF0F931F93CF93DF936F
:1017C000EC01E881F9810084F185E02D0995892BF0
:1017D000B1F06DE0CE010E946A0B082F60E0CE01EF
:1017E0000E946A0B182F402F6DE8CE010E94180B43
:1017F000812F90E0DF91CF911F910F9108958FEF8E
:101800009FEFF8CFCF93DF93EC01E881F98100845B
:10181000F185E02D0995892B69F08A8D9B8D0196C4
:101820009B8F8A8F60E0CE010E946A0B90E0DF916F
:10183000CF9108958FEF9FEFFACFCF93DF93EC0115
:1018400063E10E946A0B90E02A8D3B8D821B930B13
:10185000DF91CF910895AF92BF92CF92DF92FF9226
:101860000F931F93CF93DF936C015B01EA0162E258
:101870000E946A0BF82E90E09C012C0F3D1F2F3F19
:10188000310529F020F0CFEFD0E0C81BD90B85013E
:10189000AC0EBD1E0A151B0541F0F80141918F01E8
:1018A00060E8C6010E94180BF5CF4C2F4F0D62EA7D
:1018B000C6010E94180BCE01DF91CF911F910F91AD
:1018C000FF90DF90CF90BF90AF900895CF93DF93BC
:1018D0001F92CDB7DEB76983DC01ED91FC910280E8
:1018E000F381E02D41E050E0BE016F5F7F4F09952D
:1018F0000F90DF91CF910895089581E080933E028B
:101900008CE380931C02109262021092610281E0CB
:101910000895CF92DF92EF92FF920F931F93CF9390
:10192000DF93D091610281E0D13208F09CC0C09178
:101930001C020E94DD046B017C018091B1028111C7
:101940006CC082E08093B10281E08093B3028FEF9C
:101950008093B0021092D502D093D402AEE1B2E0EF
:10196000E4EBF2E080E0D8138DC01092D6028091B3
:10197000D602CC0FC82BC093D6028091B202813020
:1019800009F084C01092B2020E94DD046B017C0158
:101990008091D6028093BB00809164029091650291
:1019A000A0916602B0916702892B8A2B8B2BA1F044
:1019B0000E94DD040091640210916502209166028C
:1019C000309167026C197D098E099F090617170768
:1019D0002807390708F442C08091BC0083FDD8CFA6
:1019E00085EC8093BC000E94DD046B017C0180913A
:1019F000B102823009F44CC08091B0028F3F09F4EB
:101A000069C08091B002803209F466C08091B00252
:101A1000803309F463C084E026C080916402909111
:101A20006502A0916602B0916702892B8A2B8B2BED
:101A300009F483CF0E94DD040091640210916502D5
:101A400020916602309167026C197D098E099F0909
:101A5000061717072807390708F06FCF8091630230
:101A60000E94210885E01092620210926102109299
:101A70003E02DF91CF911F910F91FF90EF90DF9089
:101A8000CF9008959D9191938F5F6DCF85EEA9CFF3
:101A90008091640290916502A0916602B091670204
:101AA000892B8A2B8B2B09F4A2CF0E94DD04009195
:101AB00064021091650220916602309167026C19F0
:101AC0007D098E099F09061717072807390708F0AF
:101AD0008ECFC4CF80E0C7CF82E0C5CF83E0C3CF35
:101AE0001092600210925F021092620210926102E4
:101AF0000E94030882E498E090938A02809389020E
:101B000083E498E090938E0280938D020E947D0C76
:101B10000E94890C882339F06AE070E080E090E050
:101B20000E940205F3CF0895E091E502F091E602EC
:101B30002091E7023091E802A901417055273097C2
:101B400019F44115510579F035952795820F931FAA
:101B5000452B41F0DC012D913C91E20FF31F0190E8
:101B6000F081E02D099581E090E0089590E080E01B
:101B70000895FB0101900020E9F73197AF01461B62
:101B8000570BDC01ED91FC910280F381E02D09946B
:101B9000CF93DF93BC0181E494E00E94B90DEC0186
:101BA00066EB71E081E494E00E94B90D8C0F9D1FFB
:101BB000DF91CF910895CF93DF93EC010E945109FB
:101BC00060E088E20E943909BE0180E695E0DF917D
:101BD000CF910C94B90DFC0180819181009711F097
:101BE0000C94762008950C9476200E94BC210F93CB
:101BF0001F93CF93DF93EC0188819981009759F06F
:101C00002A813B812617370730F081E0DF91CF91A1
:101C10001F910F9108958B016F5F7F4F0E94FF20EE
:101C2000009759F0998388831B830A832C813D8117
:101C3000232B59F7FC011082E8CF80E0E7CFEF9229
:101C4000FF920F931F93CF93DF936115710541F4BA
:101C500080E0DF91CF911F910F91FF90EF90089559
:101C600041155105B1F07B01EC010C811D81040F80
:101C7000151FB8010E94F70D882351F3288139817F
:101C80008C819D81B701820F931F0E94D5211D83F6
:101C90000C8381E0DECFCF93DF9300D0CDB7DEB7EA
:101CA00069831A8241E050E0BE016F5F7F4F0E945E
:101CB0001F0E0F900F90DF91CF910895FB0144818B
:101CC0005581608171810C941F0EEF92FF920F93EA
:101CD0001F93CF93DF93EC017B018A01BA010E942D
:101CE000F70D28813981811114C02115310519F0B2
:101CF000C9010E947620198218821D821C821B82D3
:101D00001A82CE01DF91CF911F910F91FF90EF903A
:101D100008951D830C83B701C9010E94D521F1CF1D
:101D2000FC0111821082138212821582148250E00B
:101D300040E068EB71E00C94650EBF92CF92DF92A9
:101D4000EF92FF920F931F93CF93DF93CDB7DEB740
:101D50002F970FB6F894DEBF0FBECDBF7C016B018D
:101D6000B42E122F0E94900EF60101900020E9F788
:101D70003197AF014C195D09B601C7010E941F0ED2
:101D8000BB2051F16DE2C7010E944B0E1B861A86E3
:101D90001D861C861F861E864AE0CE0101966C01B8
:101DA000BC018B2D90E00E94371EF60101900020AF
:101DB000E9F73197AF014C195D09B601CE010A96DA
:101DC0000E94650EBE01665F7F4FC7010E945E0ED6
:101DD000CE010A960E94EB0D002321F0612FC7016E
:101DE0000E944B0EC7012F960FB6F894DEBF0FBEB0
:101DF000CDBFDF91CF911F910F91FF90EF90DF90BA
:101E0000CF90BF90089585ED8093BC0080916402CF
:101E100090916502A0916602B09167020796A11D9C
:101E2000B11D23E0B695A795979587952A95D1F78B
:101E30002091BC0024FD03C01092B102089540918E
:101E40006402509165026091660270916702452BB1
:101E5000462B472B69F30097A105B10541F02AE213
:101E60002A95F1F700C00197A109B109E1CF80914E
:101E700063020C9421081F920F920FB60F92112447
:101E80002F933F938F939F93AF93BF938091890339
:101E900090918A03A0918B03B0918C0330918803B9
:101EA00023E0230F2D3758F50196A11DB11D209376
:101EB00088038093890390938A03A0938B03B09344
:101EC0008C0380918D0390918E03A0918F03B0912C
:101ED00090030196A11DB11D80938D0390938E03F5
:101EE000A0938F03B0939003BF91AF919F918F9177
:101EF0003F912F910F900FBE0F901F90189526E8DD
:101F0000230F0296A11DB11DD2CF1F920F920FB6C3
:101F10000F9211242F933F934F935F936F937F936F
:101F20008F939F93AF93BF93EF93FF93E09114012F
:101F3000F09115010995FF91EF91BF91AF919F919C
:101F40008F917F916F915F914F913F912F910F9062
:101F50000FBE0F901F9018951F920F920FB60F9201
:101F600011242F933F934F935F936F937F938F939E
:101F70009F93AF93BF93EF93FF93E0911201F09182
:101F800013010995FF91EF91BF91AF919F918F91AF
:101F90007F916F915F914F913F912F910F900FBE65
:101FA0000F901F9018951F920F920FB60F92112449
:101FB0002F933F934F935F936F937F938F939F9351
:101FC000AF93BF93EF93FF93E0911001F091110154
:101FD0000995FF91EF91BF91AF919F918F917F9163
:101FE0006F915F914F913F912F910F900FBE0F9086
:101FF0001F9018951F920F920FB60F9211242F93D6
:102000003F934F935F936F937F938F939F93AF9380
:10201000BF93EF93FF93E0910E01F0910F010995AB
:10202000FF91EF91BF91AF919F918F917F916F91B0
:102030005F914F913F912F910F900FBE0F901F9086
:1020400018951F920F920FB60F9211242F933F9362
:102050004F935F936F937F938F939F93AF93BF93B0
:10206000EF93FF93E0910C01F0910D010995FF9121
:10207000EF91BF91AF919F918F917F916F915F9100
:102080004F913F912F910F900FBE0F901F90189579
:102090001F920F920FB60F9211242F933F934F93DD
:1020A0005F936F937F938F939F93AF93BF93CF93E0
:1020B000EF93FF93C091E1008091E100837F8093D3
:1020C000E100C3FF0FC01092E90081E08093EB00B4
:1020D0001092EC0082E38093ED001092A00388E060
:1020E0008093F000C2FF1AC00E94F3038091DC02CB
:1020F000882341F08091DC0281508093DC028111C1
:1021000001C05D9880919F03882341F080919F03D7
:10211000815080939F03811101C02898C4FF23C080
:102120008091E2008E7E81608093E2008091E100E8
:102130008F7E8093E1008091DD028E7E80618093AE
:10214000DD02FF91EF91CF91BF91AF919F918F9160
:102150007F916F915F914F913F912F910F900FBEA3
:102160000F901F901895C0FFECCF8091E2008E7EFB
:1021700080618093E2008091E1008E7E8093E10097
:102180008091DD028E7E8160DACF1F920F920FB6B2
:102190000F921124CF92DF92EF92FF920F931F9331
:1021A0002F933F934F935F936F937F938F939F935F
:1021B000AF93BF93EF93FF93CF93DF93CDB7DEB78A
:1021C0006C97DEBFCDBF1092E9008091E80083FFDD
:1021D00025C068E0CE0145960E94C90582EF809334
:1021E000E8008D8987FF39C09091E80090FFFCCF0F
:1021F000982F907609F034C19E894F89588D2F8988
:10220000F88C911131C0803861F58091DE028093A5
:10221000F1001092F1008EEF8093E8006C960FB6FB
:10222000F894DEBF0FBECDBFDF91CF91FF91EF914C
:10223000BF91AF919F918F917F916F915F914F91DE
:102240003F912F911F910F91FF90EF90DF90CF90D2
:102250000F900FBE0F901F9018959EEF9093E8007F
:10226000C7CF1092F100D5CF913059F48111D3CF5F
:102270004130510581F68091DE028D7F8093DE0230
:10228000CACF933049F48111C6CF4130510519F6B8
:102290008091DE028260F2CF953041F48091E800B7
:1022A00080FFFCCF20682093E300B5CF963009F083
:1022B000A9C00B8D1C8D22E01092E9001092DA0269
:1022C0001092D902F2122EC01092D8021092D702A8
:1022D0000E9498051F8299E09983FA8291E09E837B
:1022E00090EA98879AEF99872091D9023091DA0283
:1022F000275F3F4F3C832B838D831092E900109220
:10230000DA021092D9021093D8020093D70249E062
:1023100050E0BE016F5F7F4F80E00E9472050E9417
:10232000980579CF1093D8020093D7020E945804E1
:10233000DC0112960D911C910115110509F451C192
:10234000D801ED91FC910480F581E02DBE016B5E1A
:102350007F4FC8010995009709F03EC1F80100853B
:102360001185EACFF3E0FF120EC08F89882309F4AC
:1023700040C0823061F440E86DE080E097E00E9468
:102380006E14811148CF81E28093EB0047CF8130FA
:1023900029F440E86BE084EF96E0F1CF833099F7C1
:1023A0000E945804DC011296ED90FC908E010F5FA4
:1023B0001F4F6801E114F10479F0D701ED91FC9110
:1023C0000680F781E02DB801C7010995080F111D9E
:1023D000F701E084F184EECFD8011C92F601019060
:1023E0000020E9F73197BF016C197D0940E0C60173
:1023F000C6CF6EED76E0FB01449150E080E80E948C
:10240000720509CF973009F4BECF983021F481E0EE
:102410008093F10000CF993009F0FDCE837009F070
:10242000B2CFEDE1F1E081E031E096E321912223AA
:1024300071F08093E9003093EB00DF0111972C914C
:102440002093EC009093ED008F5F873079F78EE753
:102450008093EA001092EA008F898093A003DBCE7C
:102460008B8D9C8D1092E9001092DA021092D902A5
:102470009093D8028093D702898D811192C08E8962
:102480009D89913A49F4813209F07DCF47E050E0CF
:1024900064E071E080E0B3CF913209F074CF833211
:1024A00069F48F89988DB0E0A0E08093000190934B
:1024B0000101A0930201B0930301ADCE803269F413
:1024C0008091E80082FFFCCF67E084E091E00E9409
:1024D000C9058BEF8093E8009ECE823209F09BCE37
:1024E0008F8980930B01EEEFFFE7859194918B3FED
:1024F0009C4D51F1E0E0F8E08091040190910501DC
:10250000A0910601B0910701803B9440A105B1055F
:10251000F1F480910B0180FD1AC0EE3F8AE0F807CC
:1025200089F587E797E791838083809160008093A6
:10253000DB0288E19BE00FB6F894A89580936000D9
:102540000FBE9093600067CEEEEFFAE0D5CF8081AA
:1025500091818737974709F05ECEA89580916000FA
:102560008861809360008091DB0280936000EE3F81
:102570002AE0F20789F08091FE0A9091FF0A918388
:10258000808349CE808191818737980751F290935B
:10259000FF0A8093FE0AC5CF1092FF0A1092FE0A2E
:1025A0003ACE0E945804DC0112960D911C9101153F
:1025B000110509F4E8CED801ED91FC910190F0816C
:1025C000E02DBE016B5E7F4FC8010995811123CEBE
:1025D000F80100851185EBCF181619060CF41BCEF7
:1025E000D2CEF1E0FF12BECE62EE76E004CF1F92B3
:1025F0000F920FB60F9211242F933F934F935F9337
:102600006F937F938F939F93AF93BF93EF93FF93BA
:1026100084EA93E00E945406FF91EF91BF91AF913D
:102620009F918F917F916F915F914F913F912F91EA
:102630000F900FBE0F901F9018951F920F920FB61C
:102640000F9211242F938F939F93EF93FF93E09119
:10265000B403F091B5038081E091BA03F091BB031C
:1026600082FD1BC090818091BD038F5F8F7320918D
:10267000BE03821741F0E091BD03F0E0EC55FC4F42
:10268000958F8093BD03FF91EF919F918F912F9133
:102690000F900FBE0F901F9018958081F4CF1F925E
:1026A0000F920FB60F9211242F933F934F935F9386
:1026B0006F937F938F939F93AF93BF93EF93FF930A
:1026C0008091B900887F803609F44AC0F0F58832DD
:1026D00009F4A7C018F5803109F49BC0B8F4882329
:1026E00009F4F9C0883009F494C0FF91EF91BF91CB
:1026F000AF919F918F917F916F915F914F913F919A
:102700002F910F900FBE0F901F901895883109F4EC
:1027100088C0803251F78093B00214C0803409F42D
:102720009DC040F48033B9F38833F9F68093B0024A
:1027300085ECB0C0803509F485C0883509F496C0B1
:10274000883499F60E94030FD0CF883909F48CC0E1
:1027500038F5883729F050F4883611F0803729F69B
:1027600083E08093B1021092AF0257C0883809F419
:102770007BC0803919F0803809F0B7CF8091AF0263
:10278000803208F071C0E091AF0281E08E0F80933B
:10279000AF028091BB00F0E0E157FD4F80833DC068
:1027A000803B39F0E0F4803A09F479C0883A09F0C6
:1027B0009CCF84E08093B10210928C0210928B0225
:1027C000E0918902F0918A02099580918B02811132
:1027D0000FC081E080938B021092690209C0803C97
:1027E00009F4A6CF883C09F4A3CF883B09F07DCF3C
:1027F000E0918C0281E08E0F80938C02F0E0E7592B
:10280000FD4F80818093BB0090918C0280918B0260
:1028100029C08091D6028093BB0085EC8093BC00D8
:1028200064CF9091D5028091D402981758F5E09129
:10283000D50281E08E0F8093D502F0E0EC54FD4F7D
:102840008081E9CFE091D50281E08E0F8093D5029F
:102850008091BB00F0E0EC54FD4F80839091D50255
:102860008091D4029817C8F285E8D8CFE091D502BC
:1028700081E08E0F8093D5028091BB00F0E0EC5494
:10288000FD4F80838091B30281115CCF81E0809302
:10289000B20284EA8093BC001092B10226CF85EC8C
:1028A0008093BC001092B1028091AF02803230F46C
:1028B000E091AF02F0E0E157FD4F10826091AF026E
:1028C00070E0E0918D02F0918E028FE892E0099520
:1028D0001092AF020ACF1092B00234CFEF92FF9263
:1028E0000F931F93CF93DF93F82E192FE62E042F0B
:1028F00081E0860F880F0E94440583E00E94440512
:10290000CF2DD12FEC0EFD2EF11CCE15DF05B9F029
:1029100007FF13C0FE0184910E944405182F80E038
:102920000E944405812321968111EFCFDF91CF9141
:102930001F910F91FF90EF9008958881EDCF81E076
:10294000F5CFCF93DF93E4EAF3E01382128288EEAF
:1029500093E0A0E0B0E084839583A683B78320E56D
:1029600031E0318320832DEC30E0358724872CEC57
:1029700030E03787268728EC30E0318B208B29EC3C
:1029800030E0338B228B2AEC30E0358B248B2EEC1D
:1029900030E0378B268B118E128E138E148EE1E46D
:1029A000F4E01382128284839583A683B78322E6A0
:1029B00031E0318320832FEF3FEF35872487E1E932
:1029C000F4E01382128284839583A683B78384E71D
:1029D00091E091838083EDE9F4E01382128286E82E
:1029E00091E091838083B0E5B487A1E0A58761EC95
:1029F00074E0778766874AE050E0518B408B29E08E
:102A000030E0338B228B82E090E0958B848B168AAA
:102A1000178A108E118E138E128E158E148E178EAD
:102A2000168E11A210A213A212A21482158216826F
:102A30001782E0E6F5E013821282C0E7DDE0D09372
:102A4000C904C093C804CDE7DCE0D093C704C093A9
:102A5000C604CAECD8E0D093C504C093C404C9E846
:102A6000DCE0D093C304C093C204CEEAD1E0D183AA
:102A7000C083EAECF4E013821282B487A5877787DB
:102A80006687518B408B338B228B958B848B168A78
:102A9000178A108E118E138E128E158E148E178E2D
:102AA000168E11A210A213A212A2148215821682EF
:102AB000178288E991E09183808388E991EEAAEDFD
:102AC000B9E18093520590935305A0935405B093B8
:102AD00055058CE090E0909357058093560588E467
:102AE00098EEA1E0B0E08093580590935905A0932B
:102AF0005A05B0935B0585E090E090935D05809367
:102B00005C0584E190E090935F0580935E05DF9122
:102B1000CF910895CF93DF93CDB7DEB7C658D109D3
:102B20000FB6F894DEBF0FBECDBF789484B5826037
:102B300084BD84B5816084BD85B5826085BD85B561
:102B4000816085BD80916E00816080936E001092DF
:102B5000810080918100826080938100809181005A
:102B600081608093810080918000816080938000EB
:102B700080919100826080939100809191008160AA
:102B8000809391008091900081608093900080916B
:102B9000C10084608093C1008091C10082608093F5
:102BA000C1008091C10081608093C1008091C30009
:102BB00081608093C3008091C00082608093C000D8
:102BC0008091C20081608093C20080917A0084600D
:102BD00080937A0080917A00826080937A0080915D
:102BE0007A00816080937A0080917A008068809377
:102BF0007A001092A0031092DE021092DD02809102
:102C0000D70081608093D70080EA8093D80089B58F
:102C1000806189BD89B5826089BD09B400FEFDCFA0
:102C200061E070E080E090E00E9402058091D800B1
:102C30008F7C80618093D8008091E000807F8093BA
:102C4000E0008091E1008E7E8093E1008DE0809332
:102C5000E200559A209A5D9828988FEF9FEF909305
:102C60004E0480934D04E091B403F091B50382E0EB
:102C70008083E091B003F091B1031082E091B20340
:102C8000F091B3038FEC80831092BC03E091B80302
:102C9000F091B90386E08083E091B603F091B70329
:102CA000808180618083E091B603F091B7038081D9
:102CB00088608083E091B603F091B70380818068DB
:102CC0008083E091B603F091B70380818F7D80838C
:102CD00085E00E94FE0386E00E94FE0389EB91E0FE
:102CE0000E94C80D0E94E50A87EC91E00E94C80D81
:102CF0008AE090E09093DB048093DA0489E090E02E
:102D00009093DD048093DC0487E090E09093DF04EF
:102D10008093DE0486ED91E00E94C80D609152051B
:102D20007091530580915405909155051E0125E63B
:102D3000220E311CD10111961C921E9213961C92E8
:102D40001E92129715961C921E9214972AE0FE016D
:102D500031963F01AF010E94FE1DF301019000205A
:102D6000E9F73197AF0146195709B301C1010E9434
:102D7000650ED10114964D915C9115976D917C91E2
:102D800081E494E00E94E10666EB71E081E494E066
:102D90000E94B90DC1010E94EB0DC0905205D09068
:102DA0005305E0905405F09055058091DA040E9497
:102DB000FE0361E08091DA040E946C048091DC04DF
:102DC0009091DD048F3F9807C1F00E94FE0360E000
:102DD0008091DC040E946C046AE070E080E090E086
:102DE0000E94020561E08091DC040E946C046AE0AC
:102DF00070E080E090E00E9402050E94E50A62E433
:102E00008AEC94E00E946A0B823129F082EE91E014
:102E10000E94C80DFFCF40E861E88AEC94E00E9470
:102E2000180BC092E004D092E104E092E204F09228
:102E3000E30446015701BB0C8808982C5401960105
:102E4000A701682D782D882D982D03E10E94821FFF
:102E5000A12CE8E4BE2EF8EECF2EDD24D394E12C95
:102E6000F12C00E010E00E94251F122F932E5A0132
:102E70006B017C0100E10E949D1F422F66E88AECF5
:102E800094E00E94180B212F392DA501B601C7012E
:102E900008E00E949D1F422F67E88AEC94E00E94A0
:102EA000180B412F68E88AEC94E00E94180B40E070
:102EB0006EE88AEC94E00E94180B40E06FE88AEC20
:102EC00094E00E94180B6CE08AEC94E00E946A0B7C
:102ED000482F43606CE88AEC94E00E94180B44E0B1
:102EE00066EA8AEC94E00E94180B81E190E00E946F
:102EF0003D0B41E861E88AEC94E00E94180B0091D8
:102F0000560510915705063011050CF037C245ECF7
:102F100061EB8AEC94E00E94180B4CE067EB8AECC2
:102F200094E00E94180B06E010E06EE18AEC94E059
:102F30000E946A0B8F7094E0000F111F9A95E1F7C1
:102F4000482F402B6EE98AEC94E00E94180B0E94F7
:102F50007D0B609158057091590580915A059091AB
:102F60005B050E94681E6B017C0120E030EC43EFA2
:102F700055E40E94611E10E000E018160CF065C0D8
:102F800020E030E842E256E4C701B6010E94611E2B
:102F900001E010E018160CF058C020E030EC43E7D8
:102FA00056E4C701B6010E94611E02E010E0181647
:102FB0000CF04BC020E030E842EA56E4C701B6010D
:102FC0000E94611E03E010E018160CF03EC020E0E5
:102FD00034E244EF56E4C701B6010E94611E04E0EA
:102FE00010E0181694F520E034EE42E257E4C701F1
:102FF000B6010E94611E05E010E0181634F520E0CD
:1030000034E244E757E4C701B6010E94611E06E0BE
:1030100010E01816D4F420E034E244EF57E4C7017E
:10302000B6010E94611E07E010E0181674F420E05B
:1030300034E244E758E4C701B6010E94611E08E08B
:1030400010E0181614F409E010E06DE18AEC94E049
:103050000E946A0B8F70B4E0000F111FBA95E1F760
:10306000482F402B6DE98AEC94E00E94180B0E94D7
:103070007D0B00915C0510915D050930110514F080
:1030800008E010E00530110514F405E010E00450EC
:1030900011096DE18AEC94E00E946A0B817FA8011E
:1030A000440F551F482B6DE98AEC94E00E94180BE1
:1030B0006EE18AEC94E00E946A0B482F44606EE94E
:1030C0008AEC94E00E94180B80915E0590915F0558
:1030D0000E943D0B88EF91E00E94C80D0E94F3030F
:1030E00082E090E00E94DA1F21E434E0FC013183A9
:1030F00020839093870380938603E091C804F09126
:10310000C90409950E941B090EE017E0A6E1CA2E2A
:10311000A7E0DA2EF801F4908F2D0E94DA088111D1
:1031200007C00E94D5080E941B098F2D0E94DA0853
:103130000F5F1F4FC016D10669F70E94D50883E2C2
:1031400091E090939E0380939D031092DF0288E7A5
:1031500099E09093E6028093E5021092E8021092C3
:10316000E7028EEB99E09093E2028093E1021092E5
:10317000E4021092E30281E08093E0020E94510990
:103180000E941B098FEA0E94DA080E94D50860E0BD
:1031900080E00E94390988E092E00E94DB0D0E94E5
:1031A0003405609382037093830380938403909328
:1031B000850386E090E09C012A5E3240CB57DF4FCA
:1031C00039832883C558D04062E18AEC94E00E949C
:1031D0006A0B182F0E946D0B412F62E98AEC94E074
:1031E0000E94180B16FFE1C015FDDFC01092E50428
:1031F0001092E4048091E6049091E70462E2892B46
:1032000009F463E18AEC94E00E946A0B082F10E055
:1032100060E18AEC94E00E946A0B482F6DE88AEC2A
:1032200094E00E94180B41E861E88AEC94E00E9467
:10323000180B012B09F0CEC011E081E494E00E944C
:10324000C207181619060CF05BC481E494E00E94D2
:10325000800790918103913009F4ADC208F4A5C2B2
:10326000923009F4B1C28091E902882331F3809150
:10327000800390E0EAEEF2E09F012A5E32402817D8
:10328000390708F004C421912330B1F72081203F91
:1032900099F7EDB7FEB7CD57DF4FF983E883C358F1
:1032A000D040CE0185589F4F0E94900E61E085E08E
:1032B0000E946C0489E192E00E94DB0D4090800343
:1032C000512CCE018B589F4F0E94900ED301E4E603
:1032D0001D92EA95E9F75301A101AAEEB2E063015C
:1032E00090E080E0CB57DF4F28813981C558D0402E
:1032F0002A0F3B1F2415350530F58A30910519F149
:10330000BD0130E020E0FB010191BF017601E20E3A
:10331000F31E0695F70100832F5F3F4F27303105DD
:1033200091F7F60126812053FA012193AF01F601AE
:10333000168216962C9116970196FAE0CF0ED11CA4
:10334000179620FFCFCFA301F12CE12C8E159F05FE
:1033500009F44DC230E020E0FA01E20FF31F608172
:10336000603209F410822F5F3F4F27303105A1F7FB
:103370002FEFE21AF20A465F5F4FE8CF0D301105DA
:103380008CF40630110509F4C2CD43EC61EB8AECF4
:1033900094E00E94180B4AE067EB8AEC94E00E94EC
:1033A000180BC3CD0CE010E0F0CF61E08AEC94E0A4
:1033B0000E946A0B863809F43FCF40E06DE88AEC42
:1033C00094E00E94180B46E861E88AEC94E00E94C1
:1033D000180B32CF83017E0134E0E30EF11C0E9412
:1033E00034056093D2047093D3048093D4049093F3
:1033F000D5048AEC94E00E94020C97FFADC30E94B2
:1034000034058090D2049090D304A090D404B0905E
:10341000D504681979098A099B098090CE04909097
:10342000CF04A090D004B090D104681579058A0526
:103430009B05F8F289818C33D1F4EEEEEE2EE4E0B8
:10344000FE2E670110E000E08AEC94E00E941D0C63
:10345000892BC9F003361105B1F08AEC94E00E9483
:10346000020CD6018D936D010F5F1F4FEDCF8AECDB
:1034700094E00E941D0C892B09F4DECE8AEC94E0C6
:103480000E94020CF4CFF801E653FB4F14A261E056
:1034900086E00E946C048EE092E00E94DB0DF70152
:1034A00081917F01882309F47BC18A33C1F7E091C0
:1034B0008603F0918703CD57DF4FF983E883C35824
:1034C000D0408AE0D1011D928A95E9F76AE370E065
:1034D0008EEE94E00E94CA218C01892B91F0D801D4
:1034E0001D927D01FD0101900020E9F7CF018A1BAB
:1034F0009B0B0E94DA1F8C01009719F0B7010E9404
:10350000D52161E172E08EEE94E00E94D21D6C0143
:10351000CF57DF4F79826882C158D04051014301B3
:10352000512C78E0472EC114D10419F0FAE05F1253
:1035300027C0A301C101282F2219251508F071C049
:10354000DA01CD90DD90AD01F601B6016A5F7F4FE3
:1035500021917F01B1E0EB1AF108220F330BD70163
:103560002C936E177F07A1F7FC012191CF0130E06A
:10357000205D3F4F220F331FD60116962C93DBCFD1
:103580008AE090E00E94DA1F7C01D4018D939D9324
:103590004D010097D1F149E050E0B6010E94DC21D5
:1035A000F70111866DE270E0C7010E94EB216C010A
:1035B000009791F0DC0111968C91082E000C990B6C
:1035C000C0970A9748F4C60101960E94B41DF50100
:1035D0008083F601108205C0D5011C92C114D1046C
:1035E000C1F7FF92EF9224E132E03F932F931F92B5
:1035F0004F92FF92EF920E94F6218DB79EB70896E8
:103600000FB6F8949EBF0FBE8DBF539461E172E078
:1036100090E080E00E94D21D6C019FEFA91AB90AC8
:1036200082CF252D2150330BF901EE0FFF1FE60D40
:10363000F71D0190F081E02D86818160868337E05F
:10364000539E60011124F0E0E0E00115110539F00E
:10365000F80101900020E9F73197E01BF10B45E0FC
:10366000C40ED11C46018E0E9F1EC4010E94DA1F9B
:103670007C01892B09F46BC080ECD7018C93C701C6
:10368000029611961C92B1E0B51530F5EB81FC81E4
:1036900027E0DC0101900D922A95E1F70796E98178
:1036A000FA8127E0DC0101900D922A95E1F7079657
:1036B000AE014B5F5F4F9C0162E0651508F462C08C
:1036C000252DE2E05E1608F422E02250F7E02F9F5D
:1036D000800D911D112402C05110E1CF23E0FC01A7
:1036E00020836C01F2E0CF0ED11C20EFDC0111969B
:1036F0002C930115110569F0B801C6010E94D5216E
:10370000F80101900020E9F73197E01BF10BCE0E94
:10371000DF1E80ECF601808357018E0C9F1CCD5775
:10372000DF4FA881B981C358D0408D919C91F5019C
:1037300061915F01DC01ED91FC910190F081E02D40
:1037400009958A149B0459F7C7010E947620011538
:10375000110519F0C8010E94762010E0151501F13D
:10376000CF57DF4FE881F981C158D04081919191C5
:10377000CF57DF4FF983E883C158D0400E947620AD
:103780001F5FECCFDA01ED91FD91AD0177E0D9013A
:1037900001900D927A95E1F7295F3F4F6F5F8DCFD2
:1037A00060E086E00E946C0447CD803C09F05BCD70
:1037B0001093810358CD811104C0F2E0F09381038E
:1037C00052CD109281034FCD803C71F0E091800387
:1037D000E63908F048CD91E09E0F90938003F0E029
:1037E000E651FD4F80833FCD1093E9023CCD01E0CF
:1037F0002EE3D10111964C91BE01655F7F4FCE0142
:1038000081599F4F0E949D0EBE0161597F4FCE018D
:103810008B589F4F0E945E0ECE0181599F4F0E9490
:10382000EB0D2CE2F1014081B301CE0181599F4F94
:103830000E949D0EBE0161597F4FCE018B589F4F54
:103840000E945E0ECE0181599F4F0E94EB0D9101A7
:103850002E5F3F4FCF57DF4F39832883C158D04069
:1038600082E0C82ED12C470131E0831A9108CE1492
:10387000DF0478F5B5016C5E7F4FCF57DF4FA8812D
:10388000B981C158D0404D91CF57DF4FB983A8833C
:10389000C158D04000E0C814D90409F001E02CE27E
:1038A000CE0181599F4F0E949D0EBE0161597F4FED
:1038B000CE018B589F4F0E945E0ECE0181599F4FC3
:1038C0000E94EB0DBFEFCB1ADB0AEAE0AE0EB11C93
:1038D000CECF6AE3CE018B589F4F0E944B0EEAEE8B
:1038E000F2E090E080E084159505B8F4219101960E
:1038F000203FC9F79C0126513D4F7901C7018A5EDF
:1039000092408415950560F4D7016D917D01CE013B
:103910008B589F4F0E944B0EF1CF90E080E0EACF92
:10392000ED968EAD9FADED97009709F4B9C0E7967F
:103930006EAD7FADE7976115710509F4AFC0EF96E5
:103940004EAD5FADEF97EB962EAD3FADEB974217C7
:10395000530708F4A3C00E94D521EB968EAD9FAD0E
:10396000EB97C158DF4F99838883CF57D040EB96B0
:103970001FAE1EAEEB97CE018B589F4F0E94EB0DF2
:10398000C158DF4FA880B980CF57D040EDB7FEB700
:10399000EA19FB090FB6F894FEBF0FBEEDBF2DB7B5
:1039A0003EB72F5F3F4F790165013FEFC31AD30A3E
:1039B0004FEFA416B40631F0A114B10409F093C07E
:1039C000D7011C9261E08AEC94E00E946A0B83703C
:1039D000833009F162E18AEC94E00E946A0B83FF74
:1039E00006C048E062E98AEC94E00E94180B41E8C6
:1039F00061E88AEC94E00E94180B0E946D0B40E095
:103A00006DE88AEC94E00E94180B40E062EA8AECD0
:103A100094E00E94180B6CE38AEC94E00E94660C20
:103A20006FEF8AEC94E00E94660C61E08AEC94E00F
:103A30000E94660CA601B7018AEC94E00E942B0C50
:103A400043E861E88AEC94E00E94180B62E18AEC9A
:103A500094E00E946A0B83FFF9CF48E062E98AECA8
:103A600094E00E94180B60E085E00E946C04CE0197
:103A700085589F4F0E94EB0DCD57DF4FE881F981AC
:103A8000C358D0400FB6F894FEBF0FBEEDBF1092E2
:103A900080031092E90210928103CFCB0E9476201E
:103AA000E7968EAD9FADE797ED969FAF8EAFED9702
:103AB000E9968EAD9FADE997EF969FAF8EAFEF97EA
:103AC000EB968EAD9FADEB97C158DF4F99838883FE
:103AD000CF57D040E7961FAE1EAEE797E9961FAED0
:103AE0001EAEE99744CFED966EAD7FADED97A50183
:103AF000C7010E94DC21F701EA0DFB1D108262CF95
:103B00000E94340500918203109183032091840365
:103B100030918503601B710B820B930B69387341E5
:103B20008105910560F00E9451090E94340560935F
:103B3000820370938303809384039093850380E0D2
:103B400090E0892B09F440CB0E944006882309F4B9
:103B50003BCB0E94000038CBD8018D938D01AE1570
:103B6000BF0509F03CCC66CCFC0188279927E89476
:103B700021912032E9F3293010F02E30C8F32B3296
:103B800041F02D3239F4689404C00E940D1E820F5A
:103B9000911D219120532A30C0F31EF490958195F8
:103BA0009F4F089544E655E00E94D71D0895FA01FD
:103BB000A191B081009719F41097E1F0CD01DC01DB
:103BC000CD010D90002011F4C00113C0FB01219123
:103BD000222319F02015D9F7F3CFFB0121912015ED
:103BE00019F41E92119606C02223C1F70D900020F1
:103BF000A1F7D001FA01A193B0830895BB272A3021
:103C000051F4992342F4BDE29095809570956195A9
:103C10007F4F8F4F9F4F0C94161E7AE0979F902DE9
:103C2000879F802D910D11240895BB27FA01A62F9F
:103C30006217710581059105330B30FB66F0AA27E9
:103C4000660F771F881F991FAA1FA21710F0A21BCB
:103C500063953850A9F7A05DAA3308F0A95DA19338
:103C600036F7B111B1931082CA010C94511EBB27D3
:103C7000FB015527AA27880F991FAA1FA41710F028
:103C8000A41B83955051B9F7A05DAA3308F0A95D34
:103C9000A193009779F7B111B1931192CB010C94D4
:103CA000511EDC01FC01672F71917723E1F73297F8
:103CB00004C07C916D9370836291AE17BF07C8F307
:103CC00008950E94A31E08F481E00895E89409C0B5
:103CD00097FB3EF490958095709561957F4F8F4F3F
:103CE0009F4F9923A9F0F92F96E9BB279395F69555
:103CF000879577956795B795F111F8CFFAF4BB0FD3
:103D000011F460FF1BC06F5F7F4F8F4F9F4F16C036
:103D1000882311F096E911C0772321F09EE8872FC0
:103D2000762F05C0662371F096E8862F70E060E07C
:103D30002AF09A95660F771F881FDAF7880F9695F5
:103D4000879597F90895990F0008550FAA0BE0E899
:103D5000FEEF16161706E807F907C0F0121613064D
:103D6000E407F50798F0621B730B840B950B39F48D
:103D70000A2661F0232B242B252B21F408950A26F3
:103D800009F4A140A6958FEF811D811D08952F9202
:103D90003F924F925F926F927F928F929F92AF92DB
:103DA000BF92CF92DF92EF92FF920F931F93CF9328
:103DB000DF93CDB7DEB7CA1BDB0B0FB6F894DEBFBF
:103DC0000FBECDBF09942A88398848885F846E84E5
:103DD0007D848C849B84AA84B984C884DF80EE802F
:103DE000FD800C811B81AA81B981CE0FD11D0FB638
:103DF000F894DEBF0FBECDBFED010895052E97FBF1
:103E00001EF400940E94151F57FD07D00E94B81F92
:103E100007FC03D04EF40C94151F50954095309537
:103E200021953F4F4F4F5F4F089590958095709526
:103E300061957F4F8F4F9F4F0895EE0FFF1F0590A5
:103E4000F491E02D0994689401C0E8948F929F92B8
:103E5000CF93DF930E94311FDF91CF919F908F907E
:103E6000089588249924F401E401B0E49F93AA27DB
:103E70009A158B049C04ED05FE05CF05D007A1071C
:103E800098F4AD2FDC2FCF2FFE2FE92D982C892E03
:103E9000982F872F762F652F542F432F322F2227CD
:103EA000B85031F7BF9127C01B2EBF91BB27220FFF
:103EB000331F441F551F661F771F881F991F881CBB
:103EC000991CEE1FFF1FCC1FDD1FAA1FBB1F8A14EA
:103ED0009B04EC05FD05CE05DF05A007B10748F002
:103EE0008A189B08EC09FD09CE09DF09A00BB10B6C
:103EF00021601A94E1F62EF49401AF01BE01CD01C8
:103F0000000C0895002E083090F0982F872F762F00
:103F1000652F542F432F322F22270850F4CF220F22
:103F2000331F441F551F661F771F881F991F0A954F
:103F3000B2F7002D089597FD1094002E083098F0E8
:103F40000850232F342F452F562F672F782F892F76
:103F5000912DF4CF159497958795779567955795FB
:103F60004795379527950A95AAF71124002D0895AE
:103F7000A1E21A2EAA1BBB1BFD010DC0AA1FBB1F6D
:103F8000EE1FFF1FA217B307E407F50720F0A21BDF
:103F9000B30BE40BF50B661F771F881F991F1A944C
:103FA00069F760957095809590959B01AC01BD0176
:103FB000CF0108950F931F93CF93DF938230910524
:103FC00010F482E090E0E0916805F091690530E03E
:103FD00020E0B0E0A0E0309799F42115310509F414
:103FE0004AC0281B390B24303105D8F58A819B81C2
:103FF0006115710589F1FB0193838283FE0111C074
:10400000408151810281138148175907E0F0481718
:10401000590799F4109761F012960C931297139622
:104020001C933296CF01DF91CF911F910F9108958C
:104030000093680510936905F4CF2115310551F0FF
:104040004217530738F0A901DB019A01BD01DF01D6
:10405000F801C1CFEF01F9CF90936905809368050E
:10406000CDCFFE01E20FF31F8193919322503109CE
:1040700039832883D7CF2091660530916705232B9C
:1040800041F4209118013091190130936705209374
:10409000660520911601309117012115310541F473
:1040A0002DB73EB740911A0150911B01241B350BCF
:1040B000E0916605F0916705E217F307A0F42E1B67
:1040C0003F0B2817390778F0AC014E5F5F4F24177C
:1040D000350748F04E0F5F1F509367054093660504
:1040E000819391939FCFF0E0E0E09CCFCF93DF935B
:1040F0000097E9F0FC01329713821282A0916805C3
:10410000B0916905ED0130E020E01097A1F4208125
:104110003181820F931F2091660530916705281722
:10412000390709F061C0F0936705E0936605DF91F8
:10413000CF910895EA01CE17DF07E8F54A815B8148
:104140009E0141155105B1F7E901FB83EA834991CD
:104150005991C40FD51FEC17FD0761F4808191813F
:104160000296840F951FE901998388838281938148
:104170009B838A83F0E0E0E012968D919C911397E7
:104180000097B9F52D913C911197CD010296820FC0
:10419000931F20916605309167052817390739F676
:1041A000309751F51092690510926805B093670534
:1041B000A0936605BCCFD383C28340815181840F15
:1041C000951FC817D90761F44E5F5F4F88819981A9
:1041D000480F591F518340838A819B819383828337
:1041E0002115310509F0B0CFF0936905E09368051A
:1041F0009ECFFD01DC01C0CF13821282D7CFB0E089
:10420000A0E0E5E0F1E20C94C91E8C01009751F4A6
:10421000CB010E94DA1F8C01C801CDB7DEB7E0E107
:104220000C94E51EFC01E60FF71F9C01225031099A
:10423000E217F30708F49DC0D901CD91DC911197E5
:10424000C617D70798F0C530D10530F3CE010497D3
:104250008617970708F3C61BD70B2297C193D193F4
:104260006D937C93CF010E947620D6CF5B01AC1A70
:10427000BD0A4C018C0E9D1EA0916805B091690588
:10428000512C412CF12CE12C109731F580916605D1
:10429000909167058815990509F05CC04616570688
:1042A00008F058C08091160190911701009741F4D1
:1042B0008DB79EB740911A0150911B01841B950B3D
:1042C000E817F90708F055C0F0936705E093660515
:1042D000F90171836083A0CF8D919C911197129603
:1042E0006C90129713967C901397A815B90559F501
:1042F0006C0142E0C40ED11CCA14DB0420F1AC01F5
:104300004A195B09DA011296159780F0628273826E
:1043100051834083D9016D937C93E114F10471F0D2
:10432000D7011396FC93EE93129776CF22968C0FBB
:104330009D1FF90191838083F301EFCFF09369050D
:10434000E093680569CF4816590608F42C017D01F1
:10435000D3019ACFCB010E94DA1F7C01009749F06C
:10436000AE01B8010E94C121C8010E9476208701D8
:1043700053CF10E000E050CF81E090E0F8940C942F
:10438000A424FB01DC0102C001900D924150504079
:10439000D8F70895FC018191861721F08823D9F779
:1043A000992708953197CF010895FB01DC01019011
:1043B0000D920020E1F70895FB01DC0141505040CF
:1043C00048F001900D920020C9F701C01D924150A4
:1043D0005040E0F70895FC0181E090E0019006165E
:1043E00009F4CF010020D1F701970895AEE0B0E0C5
:1043F000ECEFF1E20C94D51E0D891E898F89988D02
:1044000026E02C831A83098397FF02C080E090E89E
:1044100001979E838D83AE01455E5F4F698D7A8DD6
:10442000CE0101960E9426224D815E8157FD0AC071
:104430002F813885421753070CF49A01020F131F7E
:10444000F80110822E96E4E00C94F11EABE0B0E08F
:10445000ECE2F2E20C94C71E7C013B018A01FC01F4
:1044600017821682838181FFC8C1CE0101965C014B
:10447000F7019381F30193FD859193FF81913F01B2
:10448000882309F453C1853239F493FD859193FF54
:1044900081913F01853229F4B70190E00E941624F2
:1044A000E7CF912C212C312CFFE1F31538F08B3222
:1044B00011F190F4803209F1833229F137FC3CC0CC
:1044C00020ED280F2A3050F536FE20C08AE0989E55
:1044D000200D1124922E06C08D3291F0803371F799
:1044E000689430F8F30193FD859193FF81913F012A
:1044F0008111DACF21C0689431F8689432F8F2CF94
:10450000689433F8EFCF689434F8ECCFEAE02E9E4D
:10451000200D1124222E689435F8E4CF8E3229F430
:1045200036FC04C1689436F8DDCF8C3619F46894F3
:1045300037F8D8CF8836B1F2982F9F7D95549330B5
:10454000E0F08336A1F18337C1F1833509F063C010
:104550002801F2E04F0E511CF801C080D180692D76
:1045600070E036FC02C06FEF7FEFC6010E940024AE
:104570004C01689437F882010AC00C5F1F4FFFE3BB
:10458000F98388248394912C6501E89437F833FEED
:104590002DC0522C8114910471F5552009F468CF77
:1045A000B70180E290E00E9416245A94F6CFF801F9
:1045B000808189830E5F1F4FE4CF2801F2E04F0E08
:1045C000511CF801C080D180692D70E036FC02C01A
:1045D0006FEF7FEFC6010E940B244C018201D5CF03
:1045E000B70180E290E00E9416242A94281419044E
:1045F00009F0B0F7CECFF60137FC859137FE8191F7
:104600006F01B70190E00E94162451105A94F1E016
:104610008F1A9108BFCF843619F0893609F077C018
:10462000F80137FE6BC060817181828193810C5FDC
:104630001F4FF32DFF763F2E97FF09C09095809571
:10464000709561957F4F8F4F9F4F689437F82AE0A0
:1046500030E0A5010E944624C82ECA188C2C432C99
:1046600036FE0CC0E89440F8C91440F434FE05C08E
:1046700032FC03C0F32DFE7E4F2E892C44FE95C0E4
:10468000FE01EC0DF11D8081803309F087C0242DDF
:10469000297E422E842D8870582E43FC95C040FE02
:1046A0008FC09C2C821418F42C0C922C981844FE69
:1046B00091C0B70180E390E00E94162442FE09C039
:1046C00088E790E041FE02C088E590E0B7010E94D3
:1046D0001624C91408F48AC0CA94D12C9FEFC91AB1
:1046E000D90ACA0CDB1CF60182916F01B70190E078
:1046F0000E941624AC14BD04B1F74FCF60817181C4
:10470000072E000C880B990B0E5F1F4F92CFD32CF6
:10471000E894D4F82AE030E0853739F1232D297F59
:10472000D22E8F3601F148F48835A9F0F701868141
:1047300097812B96E2E10C94E31E803749F088378D
:10474000A9F7D4FE02C06894D2F820E130E00DC091
:104750006894D4F8F6CF34FE03C0822F8660D82E3A
:1047600020E132E002C028E030E0F801D7FE0FC0BF
:1047700060817181828193810C5F1F4FA5010E942E
:104780004624C82ECA183D2CE89437F867CF6081BC
:10479000718190E080E00E5F1F4FF0CF42FC02C0BD
:1047A000839478CF8394839475CF842D867809F48D
:1047B00071CFF6CFB70180E290E00E941624839477
:1047C0008214C0F3512C73CF522C5818821408F461
:1047D0006ECFF8CF842D867809F47BCF8BE241FE33
:1047E00080E247FC8DE2B70190E071CFB70180E332
:1047F00090E00E9416249A946CCF8FEF9FEF99CF90
:10480000FC010590615070400110D8F7809590959B
:104810008E0F9F1F0895FC016150704001900110A0
:10482000D8F7809590958E0F9F1F08950F931F9333
:10483000CF93DF93182F092FEB018B8181FD09C0E6
:104840001FEF0FEF812F902FDF91CF911F910F91CD
:10485000089582FF14C02E813F818C819D8128178D
:1048600039073CF4E881F981CF0101969983888367
:1048700010838E819F8101969F838E83E3CFE8858D
:10488000F985812F0995892BA1F3DACFFA01AA279F
:10489000283051F1203181F1E8946F936E7F6E5F83
:1048A0007F4F8F4F9F4FAF4FB1E03ED0B4E03CD031
:1048B000670F781F891F9A1FA11D680F791F8A1F14
:1048C000911DA11D6A0F711D811D911DA11D20D07B
:1048D00009F468943F912AE0269F11243019305D35
:1048E0003193DEF6CF010895462F4770405D419326
:1048F000B3E00FD0C9F7F6CF462F4F70405D4A3373
:1049000018F0495D31FD4052419302D0A9F7EACF3A
:10491000B4E0A6959795879577956795BA95C9F769
:1049200000976105710508959B01AC010A2E06945C
:104930005795479537952795BA95C9F7620F731F15
:0C494000841F951FA01D0895F894FFCF60
:10494C00FFFFFFFF00E100000000000043054305EE
:10495C0043054305430500006A05800000C18081C2
:10496C00000000AC000802207E0000000000781E51
:10497C0000A02800F03C00405100127A00E4A20094
:10498C0024F40048E80190D00320A10700000000A7
:10499C007506D6050306C106340612062606000067
:1049AC0000006607E1067C074005C20780079E07EA
:1049BC00000000009B086E08B60D440867085408F8
:1049CC00450800000000660C2B0CB60D44081D0CAD
:1049DC00020CDC0B00000000660C2B0CB60D44081E
:1049EC001D0C020CDC0B7C0CF30D00000000940D74
:1049FC00D605B60D42050D0A005365742053504977
:104A0C002070696E732100536574204C6F526120C5
:104A1C0070696E7321006672657175656E63793AA3
:104A2C0020005374617274696E67204C6F52612060
:104A3C006661696C656421004C6F526120696E6916
:104A4C007420646F6E6521004634474F48005258FD
:0C4A5C00003E2C00252D3773005458003C
:00000001FF
