:100000000C9459020C94D81D0C94B11D0C948A1DAB
:100010000C94631D0C9481020C9481020C943C1D81
:100020000C9481020C9481020C94FF1D0C946E1EA2
:100030000C94F8200C9481020C9481020C9481029F
:100040000C9481020C9481020C9481020C94810224
:100050000C9481020C9481020C9481020C94F21C89
:100060000C9481020C94C6200C94A0200C94810264
:100070000C9481020C9481020C9481020C948102F4
:100080000C9481020C9481020C9481020C948102E4
:100090000C9481020C9481020C9481020C948102D4
:1000A0000C9481020C9481020C94810205120100CF
:1000B00000000200091601000200EB000D10010013
:1000C000ED00010011140100EE0004001514010000
:1000D000F200040019140100F60004001D140100D0
:1000E000FA00040021140100FE0004002512011092
:1000F000030101000000000000010204081020407C
:10010000801B36637C777BF26B6FC53001672BFEFB
:10011000D7AB76CA82C97DFA5947F0ADD4A2AF9C5D
:10012000A472C0B7FD9326363FF7CC34A5E5F17134
:10013000D8311504C723C31896059A071280E2EB3D
:1001400027B27509832C1A1B6E5AA0523BD6B329CD
:10015000E32F8453D100ED20FCB15B6ACBBE394A5A
:100160004C58CFD0EFAAFB434D338545F9027F5061
:100170003C9FA851A3408F929D38F5BCB6DA211060
:10018000FFF3D2CD0C13EC5F974417C4A77E3D64F8
:100190005D197360814FDC222A908846EEB814DE28
:1001A0005E0BDBE0323A0A4906245CC2D3AC6291B2
:1001B00095E479E7C8376D8DD54EA96C56F4EA659C
:1001C0007AAE08BA78252E1CA6B4C6E8DD741F4B9B
:1001D000BD8B8A703EB5664803F60E613557B98609
:1001E000C11D9EE1F8981169D98E949B1E87E9CEB6
:1001F0005528DF8CA1890DBFE6426841992D0FB0CB
:1002000054BB1652096AD53036A538BF40A39E812B
:10021000F3D7FB7CE339829B2FFF87348E4344C4A2
:10022000DEE9CB547B9432A6C2233DEE4C950B42C3
:10023000FAC34E082EA16628D924B2765BA2496D76
:100240008BD12572F8F66486689816D4A45CCC5DD0
:1002500065B6926C704850FDEDB9DA5E154657A749
:100260008D9D8490D8AB008CBCD30AF7E45805B8B8
:10027000B34506D02C1E8FCA3F0F02C1AFBD03018C
:10028000138A6B3A9111414F67DCEA97F2CFCEF0B7
:10029000B4E67396AC7422E7AD3585E2F937E81C15
:1002A00075DF6E47F11A711D29C5896FB7620EAAF5
:1002B00018BE1BFC563E4BC6D279209ADBC0FE7896
:1002C000CD5AF41FDDA8338807C731B11210592762
:1002D00080EC5F60517FA919B54A0D2DE57A9F9397
:1002E000C99CEFA0E03B4DAE2AF5B0C8EBBB3C8308
:1002F000539961172B047EBA77D626E169146355AA
:10030000210C7D080B00020202000009040000011C
:10031000020200000524001001052401010104244B
:1003200002060524060001070581031000400904A8
:100330000100020A00000007050202400000070554
:1003400083024000000403090412010002EF0201CD
:100350004041233780000101020301417264756945
:100360006E6F204C4C430041726475696E6F204D76
:100370006963726F004142434445464748494A4BCE
:100380004C4D4E4F505152535455565758595A612F
:1003900062636465666768696A6B6C6D6E6F7071C5
:1003A00072737475767778797A30313233343536C2
:1003B0003738392B2F0000000200090F000003041A
:1003C00001000C0000000000000000000000000020
:1003D0000000000000000000250028002B002E0077
:1003E000310000000000240027002A002D0030000A
:1003F00004040404040304050202020204030202CA
:1004000002020606060606060404020202040404AA
:100410000802011040804010204080408008020403
:1004200001804020100201108010204040204E6FBB
:10043000742061207465787420736D67004465636F
:10044000727970746564207061796C6F61643A20B0
:1004500000414553204956203A2000414553206B26
:100460006579203A20004372797074656420706168
:10047000796C6F61643A20005061636B6574494424
:100480003A200053656E6465723A200044657374C7
:10049000696E6174696F6E3A20004672616D652005
:1004A0007374727563742053697A653A2000C421AD
:1004B000A82111241FBECFEFDAE0DEBFCDBF27E0B9
:1004C000A8EFB3E001C01D92AB33B207E1F713E030
:1004D000A0E0B1E0EAE8F0E502C005900D92A83F87
:1004E000B107D9F712E0C8E5D2E004C02197FE01B8
:1004F0000E949F26C735D107C9F70E9466220C9437
:1005000038280C94000090E0FC01E15FFB4F24913F
:1005100080519C4FFC018491882399F090E0880FD2
:10052000991FFC01EE51FC4FA591B491FC01EC52D6
:10053000FC4F859194918FB7F894EC91E22BEC935A
:100540008FBF0895FC0180914B04882311F13FB7C0
:10055000F89482E08093E9002091F200822F90E0ED
:100560001816190614F481E090E0882339F0289ACF
:1005700044E640934A044091F1004083222339F03D
:100580002091F200211103C02BE62093E8003FBF29
:1005900008958FEF9FEF08952FB7F89483E080932D
:1005A000E9009091E800892F807295FF04C0909136
:1005B000F20080E4891B2FBF0895809142048111CD
:1005C0000DC082E080933E0484E080933F0410924B
:1005D00041041092400481E0809342048EE394E051
:1005E0000895282F30E0F901EB54FC4F9491F90164
:1005F000E15FFB4F849120513C4FF901249122236C
:1006000009F430C09923E9F091509F30D0F4E92FDC
:10061000F0E0E35FFC4F0C949F263B033F031C0379
:1006200033033703210321032103420348034C030F
:100630005003560321035A03909180009F779093B3
:100640008000E22FF0E0EE0FFF1FEC52FC4FA5916F
:10065000B4919FB7F894EC91611132C080958E23CC
:100660008C939FBF0895909180009F7DE8CF9091DB
:100670008000977FE4CF94B59F7794BDE2CF94B587
:100680009F7DFBCF909190009F7790939000D9CF62
:10069000909190009F7DF9CF90919000977FF5CF3A
:1006A0009091C0009F779093C000CBCF9091C000F5
:1006B0009F7DF9CF9091C200977F9093C200C1CFE8
:1006C0008E2BCECF3FB7F89480913A0490913B04A3
:1006D000A0913C04B0913D0426B5A89B05C02F3FD6
:1006E00019F00196A11DB11D3FBFBA2FA92F982F58
:1006F0008827BC01CD01620F711D811D911D42E053
:10070000660F771F881F991F4A95D1F708958F921A
:100710009F92AF92BF92CF92DF92EF92FF924B01E6
:100720005C010E9462036B017C010E9462036C19F0
:100730007D098E099F09683E734081059105A8F3E4
:1007400021E0821A9108A108B10888EEC80E83E062
:10075000D81EE11CF11C81149104A104B10429F7F5
:10076000FF90EF90DF90CF90BF90AF909F908F90D1
:10077000089580E190E0089508954091FF0350911D
:1007800000042091FD033091FE0342175307B4F497
:100790009091E8009570E1F39091E80092FD19C006
:1007A0008093F1008091FF039091000401968F7374
:1007B0009927892B19F48EEF8093E8008091FF032D
:1007C000909100040196909300048093FF0381E0D0
:1007D000089580E00895DF92EF92FF920F931F93A8
:1007E000CF93DF93D82E8A01EB017B01E40EF51E37
:1007F000CE15DF0559F0D7FE12C0FE0184910E948C
:10080000BD0321968111F4CF0FEF1FEFC801DF91D7
:10081000CF911F910F91FF90EF90DF900895888105
:10082000EECF0F931F93CF93DF931F92CDB7DEB719
:1008300082E0898342E450E063E073E080E80E9454
:10084000EB030E94DD02DC0112960D911C91011553
:10085000110589F0D801ED91FC910280F381E02D22
:10086000BE016F5F7F4FC801099597FD04C0F80175
:1008700000851185ECCF89810F90DF91CF911F9179
:100880000F910895615030F02091F100FC01208318
:100890000196F8CF289A84E680934A040895AF928F
:1008A000BF92CF92DF92EF92FF920F931F93CF935D
:1008B000DF936C017B018B01040F151FEB015E01BF
:1008C000AE18BF08C017D10759F06991D601ED9154
:1008D000FC910190F081E02DC6010995892B79F7F3
:1008E000C501DF91CF911F910F91FF90EF90DF90A5
:1008F000CF90BF90AF900895FC01538D448D252F6C
:1009000030E0842F90E0821B930B541710F0CF96A9
:10091000089501970895FC01918D828D981761F0DB
:10092000A28DAE0FBF2FB11D5D968C91928D9F5FF2
:100930009F73928F90E008958FEF9FEF0895FC01D1
:10094000918D828D981731F0828DE80FF11D858D84
:1009500090E008958FEF9FEF0895FC01918D228D17
:10096000892F90E0805C9F4F821B91098F7399279C
:10097000089586EB94E00E94AD0421E0892B09F4F0
:1009800020E0822F089580E090E0892B29F00E94DA
:10099000B90481110C9400000895FC01A48DA80FE6
:1009A000B92FB11DA35ABF4F2C91848D90E00196B1
:1009B0008F739927848FA689B7892C93A089B189D1
:1009C0008C9182748C93938D848D981306C00288C9
:1009D000F389E02D80818F7D80830895EF92FF92CF
:1009E0000F931F93CF93DF93EC0181E0888F9B8D52
:1009F0008C8D981319C0E889F989808185FF14C00E
:100A00009FB7F894EE89FF896083E889F98980812E
:100A1000827480839FBF81E090E0DF91CF911F912E
:100A20000F91FF90EF900895F62E0B8D10E00F5F61
:100A30001F4F0F731127E02E8C8D8E110CC00FB637
:100A400007FCFACFE889F989808185FFF5CFCE01CF
:100A50000E94CD04F1CFEB8DEC0FFD2FF11DE35A79
:100A6000FF4FF0829FB7F8940B8FEA89FB89808152
:100A70008062CFCFCF93DF93EC01888D8823B9F0CC
:100A8000AA89BB89E889F9898C9185FD03C0808199
:100A900086FD0DC00FB607FCF7CF8C9185FFF2CF16
:100AA000808185FFEDCFCE010E94CD04E9CFDF919B
:100AB000CF9108958F929F92AF92BF92CF92DF9283
:100AC000EF92FF920F931F93CF93DF936C017B0103
:100AD0008A0180911501882309F45CC080914B0440
:100AE000882309F457C08091030480FF05C08091DA
:100AF000E00082608093E000E801B12C8AEFA82E2C
:100B000093E0892E2AE3922E209711F4BB20D9F18D
:100B10000E94CC0281110AC0AA94AA20D9F161E0F6
:100B200070E080E090E00E948703EECF8C171D06F6
:100B300011F00CF08C2F9FB7F8948092E90020916F
:100B4000E80025FD02C09FBFDFCF282F30E0C21B89
:100B5000D30BF701815020F041914093F100FACF7F
:100B6000E20EF31EBB2021F09092E800B12CEBCFF7
:100B70008091E80085FDE7CF9092E800BB24B39414
:100B8000209709F3F3CF5D9A84E680930204101650
:100B900011063CF081E090E0F6019383828310E03F
:100BA00000E0C801DF91CF911F910F91FF90EF906E
:100BB000DF90CF90BF90AF909F908F900895CF938C
:100BC000DF931F92CDB7DEB76983DC01ED91FC9115
:100BD0000280F381E02D41E050E0BE016F5F7F4F66
:100BE00009950F90DF91CF9108950F931F93CF93A5
:100BF000DF938C01D0E0C0E0F801EC0FFD1F6491A1
:100C0000662341F083E595E00E94DF05892B11F012
:100C10002196F2CFCE01DF91CF911F910F910895D0
:100C200083E08093E9008091F200882319F08AE341
:100C30008093E80008950E94CC0290E00895CF933D
:100C4000DF931F92CDB7DEB7FC018485958597FDB4
:100C500008C02FEF3FEF358724870F90DF91CF91AA
:100C60000895CE0101960E94A202019719F489818C
:100C700090E0F3CF8FEF9FEFF0CF0F931F93CF93C1
:100C8000DF931F92CDB7DEB78C01FC01848595857B
:100C900097FF0BC0CE0101960E94A202019771F44A
:100CA000898190E0F80195878487F801848595858E
:100CB0000F90DF91CF911F910F9108958FEF9FEFCC
:100CC000F1CFFC018485958597FD0BC09FB7F89403
:100CD00082E08093E9008091F2009FBF90E001964E
:100CE00008959FB7F89482E08093E9008091F20024
:100CF0009FBF90E00895CF93DF93EC018C819D819D
:100D0000892B61F48E819F81009711F488EE91E028
:100D10009F838E8380E0DF91CF910895E881F981F0
:100D200041E050E0CE01099581110AC02E813F813A
:100D30002115310511F426EF31E03F832E83EBCFEF
:100D40002C813D81215031093D832C83E4CF4F928A
:100D50005F926F927F928F929F92AF92BF92CF924B
:100D6000DF92EF92FF920F931F93CF93DF931F9227
:100D7000CDB7DEB74C017B01412C512C612C712C7D
:100D8000A12CB12CC12CD12C10E0BE016F5F7F4F84
:100D9000C4010E947B06E82F882391F0F9811F335C
:100DA00010F18F2F8E7FF9F0D40116968D919C91C2
:100DB000009711F48FEF91E0F40197838683E0E0D0
:100DC0008E2F0F90DF91CF911F910F91FF90EF9099
:100DD000DF90CF90BF90AF909F908F907F906F905B
:100DE0005F904F9008952F2F2F7730E040E050E034
:100DF00060E070E080E090E0012F0E94A526422A8A
:100E0000532A642A752AA62AB72AC82AD92A195F1A
:100E1000F7FDBBCFD7014C9211965C9211971296B9
:100E20006C92129713967C9213971496AC92149727
:100E30001596BC9215971696CC9216971796DC923B
:100E4000BFCF8F929F92AF92BF92CF92DF92EF92DD
:100E5000FF920F931F93CF93DF931F92CDB7DEB70F
:100E60008C015B017A01BE016F5F7F4F0E947B06A0
:100E7000882E81111CC0F80184819581892B11F085
:100E8000812C06C0E114F104D9F381E0F7018083DD
:100E9000882D0F90DF91CF911F910F91FF90EF90D0
:100EA000DF90CF90BF90AF909F908F9008958981F1
:100EB00087FD0AC0C82ED12CF12CE12CF501C0828F
:100EC000D182E282F382E4CF8F77C82ED12CF12C2D
:100ED000E12C97E0992EBE016F5F7F4FC8010E9401
:100EE0007B06882369F29981FFE1F91510F52EE35D
:100EF000291558F02FEF892F8F7749F0F7FE03C09F
:100F000081E0291729F080E003C021E0F4CF81E0DF
:100F10008170EFE3E91510F0811125C0F801868199
:100F20009781009711F48FEF91E0F8019783868302
:100F3000A7CFFCE19F121CC0892F807721F0892F59
:100F40008877883759F7492F4F7050E070E060E09C
:100F50008CE1440F551F661F771F8A95D1F7C42A6D
:100F6000D52AE62AF72AF7E09F0E97FDB4CFA6CF41
:100F7000492F4F7750E070E060E0092C04C0440F27
:100F8000551F661F771F0A94D2F7E9CF8F929F9261
:100F9000AF92BF92EF92FF920F931F93CF93DF9385
:100FA00000D000D0CDB7DEB78C017B0150E040E02F
:100FB000BE016F5F7F4F0E942107882301F198E0F7
:100FC000F801D70101900D929A95E1F749815A8174
:100FD0006B817C81F70184809580B12CA12C8416D3
:100FE0009506A606B706D0F4F8018681978100978A
:100FF00011F48FE092E0F8019783868380E00F90F0
:101000000F900F900F90DF91CF911F910F91FF9054
:10101000EF90BF90AF909F908F9008955583448339
:10102000F80124813581241B350B35832483E7CFD8
:101030008F929F92AF92BF92EF92FF920F931F9366
:10104000CF93DF9300D000D0CDB7DEB78B017A010C
:10105000F9011082FB0111821082FA0110821182C3
:1010600012821382A901BE016F5F7F4F0E94210788
:101070008823B9F049815A816B817C814A015B01E7
:1010800093E0B694A794979487949A95D1F7F70133
:1010900080829182A282B38247705527F8015183E2
:1010A00040830F900F900F900F90DF91CF911F9181
:1010B0000F91FF90EF90BF90AF909F908F90089509
:1010C000EF92FF920F931F93CF93DF93CDB7DEB7CD
:1010D00060970FB6F894DEBF0FBECDBF8C017A01CA
:1010E00081E0452BA1F06115710561F5D8018D9165
:1010F0009C91825B914131F1F1E1EF16F104A0F492
:10110000A701BE016F5F7F4FC8010E946008609613
:101110000FB6F894DEBF0FBECDBFDF91CF911F9108
:101120000F91FF90EF90089540E150E0BE016F5F96
:101130007F4FC8010E946008882349F3E0E1EE1A5E
:10114000F108DACFD80114968D919C9115978E15E0
:101150009F0560F416968D919C91009711F488EE8E
:1011600091E0F8019783868380E0D1CFED91FC91E7
:10117000A701C8010995F80181110DC026813781A9
:101180002115310511F426EF31E0D80117963C9373
:101190002E931697BCCF248135812E153F0518F468
:1011A00015821482B4CF2E193F0935832483AFCF23
:1011B0000F931F93CF93DF938C01EB014C815D81E3
:1011C0004115510579F48A819B81F80193838283CB
:1011D0008E819F819783868381E0DF91CF911F91DC
:1011E0000F91089570E060E0CE010E9460088111C7
:1011F000EACFF3CF0F931F93CF93DF9300D000D0AC
:10120000CDB7DEB78C016130710531F178F0623015
:10121000710551F16530710509F448C0FC01868102
:1012200097810097F1F586E392E03BC041E050E002
:10123000BE016F5F7F4FC8010E946008882319F0CC
:10124000998197FDF3CF0F900F900F900F90DF9142
:10125000CF911F910F91089548E050E070E060E059
:10126000C8010E946008EFCF50E040E0BE016F5F10
:101270007F4F0E942107882331F349815A816B8176
:101280007C81DB01CA01AA27BB27481759076A07D7
:101290007B0721F3F80186819781009711F487E29B
:1012A00092E0F8019783868380E0CDCF44E050E060
:1012B000D5CFCF92DF92EF92FF92CF93DF93DC01F5
:1012C00014968D919C911597019615969C938E93EB
:1012D0001497CD91DC911197288539858217930752
:1012E000B8F015961C921E92149717961C921E9297
:1012F00016971B961C921E921A9719961C921E9274
:101300001897DF91CF91FF90EF90DF90CF900895E5
:1013100016962D913C911797C901880F991F880F38
:10132000991FE881F981E80FF91FC590D590E590E4
:10133000F49077276F2D5E2D4D2D83E0C822DD249C
:1013400081E090E002C0880F991FCA94E2F7820FF3
:10135000931F17969C938E931697842F807321E08A
:1013600030E011F030E020E018968D919C911997B3
:10137000820F931F19969C938E9318974F70485025
:10138000550B21E030E04230510510F030E020E014
:101390001A968D919C911B97820F931F1B969C937D
:1013A0008E931A97AECF4F925F926F927F928F92E9
:1013B0009F92AF92BF92CF92DF92EF92FF920F93E4
:1013C0001F93CF93DF9300D000D000D0CDB7DEB70E
:1013D000DC014D915C9111975E834D8314962D91A4
:1013E0003C911597FA01808591852817390708F0F7
:1013F00075C12081318116968D919C911797880F28
:10140000991F880F991FF901E80FF91FC590D59012
:10141000E590F49077276F2D5E2D4D2D49835A83EB
:101420006B837C8352964C935297B701A60143700D
:1014300055276627772726013701F2E076946794CF
:1014400057944794FA95D1F74130510561057105DC
:1014500009F45FC008F440C0FC0134968C01085FB9
:101460001F4F423051056105710509F4CDC0E20FEF
:10147000F31F4591559165917491F901E00FF11FAA
:1014800085909590A590B490FC013C96E20FF31FD7
:10149000C590D590E590F490FC017096E20FF31F93
:1014A000059115912591349151961C930E93509767
:1014B000F201EF73FF27052F162F272F3327C801BF
:1014C00056E0880F991F5A95E1F78E2B9F2B1D969A
:1014D0009C938E931C9718C081E090E051969C934A
:1014E0008E9350975FE3452255241D965C924E9251
:1014F0001C974F2D4F708E2C912C6CE1F694E79435
:10150000D794C7946A95D1F71F96DC92CE921E9716
:1015100038C0FC013496E20FF31F05911591259117
:101520003491C7019F7051969C938E9350976FE3AF
:1015300046225524480159018CE1B694A79497940A
:1015400087948A95D1F7C40146E0880F991F4A9580
:10155000E1F7842995291D969C938E931C975CE155
:10156000F694E794D794C7945A95D1F74C2D480137
:101570005901AA24BB24C9019F701F969C938E9386
:101580001E9712968D919C911397009709F06DC04C
:1015900054961C921E92539758961C921E925797DF
:1015A00052968C9152978F708850990B029708F041
:1015B00090C01A968D919C911B97880F991FED8171
:1015C000FE8122813381F901E80FF91F8081918129
:1015D0005A969C938E93599781E026960FB6F8946D
:1015E000DEBF0FBECDBFDF91CF911F910F91FF9056
:1015F000EF90DF90CF90BF90AF909F908F907F90B3
:101600006F905F904F900895E20FF31F45915591B1
:1016100065917491F901E00FF11F85909590A59067
:10162000B490FC013C96E20FF31F059115912591B2
:1016300034915196FC92EE9250978FE348225524B4
:10164000C52ED62EE72EFF24C601F6E0880F991F7F
:10165000FA95E1F7842995291D969C938E931C9702
:101660001F961C930E931E978CCF880E991E54962E
:101670009C928E9253974423C1F0C401841B91091C
:1016800047FD939558969C938E9357978981807CBC
:101690008038D1F481149104B9F0F40180819181F2
:1016A00056969C938E9355977BCF89818073803219
:1016B00031F4998196FD03C0CD014096E3CF589651
:1016C0001C921E925797E2CF56969C928E925597F7
:1016D00067CF5A961C921E9259977ECF80E07DCF9D
:1016E0000F931F93CF93DF93EC01062F142F9C854C
:1016F0008D859CBD8DBD60E088890E94F1020EBD84
:1017000000000DB407FEFDCF8EB51EBD00000DB468
:1017100007FEFDCF1EB561E088890E94F102812F8E
:10172000DF91CF911F910F91089540E00C94700BC1
:10173000CF92DF92EF92FF92CF93DF936DE184EA35
:1017400095E00E94950B90E034E0959587953A9549
:10175000E1F78A3091050CF042C0FC01EE0FFF1F4B
:10176000E80FF91FEA5BFE4FC080D180E2800E2CAB
:10177000000CFF086EE184EA95E00E94950BD82FDB
:1017800066E284EA95E00E94950BC82FD295DF703F
:1017900021E030E040E050E004C0220F331F441F3E
:1017A000551FDA95D2F7C701B6010E94802668EE70
:1017B00073E080E090E00E948026213131054105F0
:1017C000510594F04C2F486066EA84EA95E0DF9179
:1017D000CF91FF90EF90DF90CF900C94700BCC24C2
:1017E000CA94DC2C7601C6CF4C2F477FEDCF0895ED
:1017F0000F931F93CF93DF93EC01E881F98100846D
:10180000F185E02D0995892BB1F06DE0CE010E94A4
:10181000950B082F60E0CE010E94950B182F402FEA
:101820006DE8CE010E94700B812F90E0DF91CF9187
:101830001F910F9108958FEF9FEFF8CFCF93DF9314
:10184000EC01E881F9810084F185E02D0995892B6F
:1018500069F08A8D9B8D01969B8F8A8F60E0CE0107
:101860000E94950B90E0DF91CF9108958FEF9FEF4D
:10187000FACFCF93DF93EC0163E10E94950B90E0E8
:101880002A8D3B8D821B930BDF91CF910895AF92F0
:10189000BF92CF92DF92FF920F931F93CF93DF936C
:1018A0006C015B01EA0162E20E94950BF82E90E068
:1018B0009C012C0F3D1F2F3F310529F020F0CFEF69
:1018C000D0E0C81BD90B8501AC0EBD1E0A151B0547
:1018D00041F0F80141918F0160E8C6010E94700B50
:1018E000F5CF4C2F4F0D62EAC6010E94700BCE015E
:1018F000DF91CF911F910F91FF90DF90CF90BF901C
:10190000AF900895CF93DF931F92CDB7DEB7698371
:10191000DC01ED91FC910280F381E02D41E050E08B
:10192000BE016F5F7F4F09950F90DF91CF910895B2
:1019300090E080E00895680F791FFC011082019605
:1019400068177907D1F70895CF93DF93EC018A8167
:101950009B81DC01ED91FC910684F785E02D0995D2
:1019600060E170E0CE0104960E949B0C60E170E0A3
:10197000CE0144960E949B0C80E18CA3DF91CF9115
:101980000895DC01ED91FC910484F585E02D099426
:101990007F928F929F92AF92BF92CF92DF92EF92FF
:1019A000FF920F931F93CF93DF93EC017B016A01AA
:1019B00089015C0184E0A80EB11C4E01A4E18A0EED
:1019C000911C40E1742E0115110509F444C08CA14D
:1019D0008031E8F08A819B81DC01ED91FC910284E9
:1019E000F385E02DA501B40109951CA24DA120E1CC
:1019F00081E090E0421758F42150FE01E20FF11D02
:101A00003481830F911D8483892F9927F3CF8CA173
:101A1000472D481B4017110611F008F0402F842F66
:101A200090E0081B190B9601D701411105C0E80E83
:101A3000F91EC80ED91EC7CFF90161919F01ECA113
:101A400051E05E0F5CA3EC0FFD2FF11D548956276A
:101A50005D934150EACFDF91CF911F910F91FF909D
:101A6000EF90DF90CF90BF90AF909F908F907F903E
:101A70000895EF92FF920F931F93CF93DF93EC01A2
:101A80008B017A018A819B81DC01ED91FC910480BC
:101A9000F581E02D0995409789F48A819B81DC01CD
:101AA000ED91FC910084F185E02DA701B801DF9153
:101AB000CF911F910F91FF90EF90099480E0DF91FB
:101AC000CF911F910F91FF90EF900895DC01129636
:101AD0008D919C91DC01ED91FC910680F781E02DC8
:101AE0000994CF93DF93EC0180EC91E09983888394
:101AF00060E170E0CE0104960E949B0C60E170E012
:101B0000CE014496DF91CF910C949B0CFC01628135
:101B100070E06F5F7F4F84E0660F771F8A95E1F773
:101B2000838194810C949B0C4F925F926F927F9271
:101B30008F929F92AF92BF92CF92DF92EF92FF92DD
:101B40000F931F93CF93DF93EC01FB0130818181D1
:101B500092812381A32FB0E0AD01440F551F7BE19B
:101B6000672E659E702C11247426482E512CA201DC
:101B7000440F551F659EB02C1124B426692F70E0C8
:101B80007B01EE0CFF1C6F9C902C11249E24422F95
:101B900050E08A01000F111F619E602C1124602605
:101BA0007D01EE0CFF1CEE0CFF1C6201CC0CDD1C59
:101BB000CC0CDD1C0D2D1127095C1E4FF801808017
:101BC0008C246B01CC0CDD1CCC0CDD1C0D2D1127E5
:101BD000095C1E4FF801A080AC246A01CC0CDD1C0E
:101BE000CC0CDD1C0D2D1127095C1E4FF801D08097
:101BF000DC24E3E0AA0FBB1FEA95E1F70B2F1127C6
:101C0000095C1E4FF80110811A27F201A3E0EE0FC4
:101C1000FF1FAA95E1F7AF2FBB27A95CBE4FAC9180
:101C2000EA2703E0660F771F0A95E1F7A72FBB2786
:101C3000A95CBE4F0C916027A3E0440F551FAA95E5
:101C4000E1F7A52FBB27A95CBE4F0C914027AF2D14
:101C5000BB27A95CBE4F5C91E526E126582F59278A
:101C600052275A255E275627542757255B255E2580
:101C70005883532F5927522758255D2551275E2712
:101C800056275427B526B924B982C32EC8262C2539
:101C9000A226AE26A626A4269A2496249E249A82BC
:101CA000C926C824CD24AC2DA127EA270E2F06274C
:101CB0000427072506250B83DF91CF911F910F91F4
:101CC000FF90EF90DF90CF90BF90AF909F908F905C
:101CD0007F906F905F904F900895CF93DF93FC01BA
:101CE000EB015881B9819A812B81652F70E0660FD5
:101CF000771F3BE1379F802D11246827CB2FD0E041
:101D0000CC0FDD1F3D9F402D1124AC2FA427C92FE0
:101D1000D0E0CC0FDD1F3D9F702D11247C27C22FFA
:101D2000D0E0CC0FDD1F3D9F302D11243C278B2FA1
:101D30008927822786278A278083452F492742279C
:101D40004A27472741835B272527272723272283E5
:101D50009527962793279383DF91CF910895CF936B
:101D6000DF93DC01EB01E881F0E0ED5FFD4FE491F2
:101D7000EC93ED85F0E0ED5FFD4FE4911196EC936F
:101D80001197EA85F0E0ED5FFD4FE4911296EC9338
:101D90001297EF81F0E0ED5FFD4FE4911396EC9325
:101DA0001397EC81F0E0ED5FFD4FE4911496EC9316
:101DB0001497E981F0E0ED5FFD4FE4911596EC9307
:101DC0001597EE85F0E0ED5FFD4FE4911696EC93EC
:101DD0001697EB85F0E0ED5FFD4FE4911796EC93DD
:101DE0001797E885F0E0ED5FFD4FE4911896EC93CE
:101DF0001897ED81F0E0ED5FFD4FE4911996EC93BB
:101E00001997EA81F0E0ED5FFD4FE4911A96EC93AB
:101E10001A97EF85F0E0ED5FFD4FE4911B96EC9390
:101E20001B97EC85F0E0ED5FFD4FE4911C96EC9381
:101E30001C97E985F0E0ED5FFD4FE4911D96EC9372
:101E40001D97EE81F0E0ED5FFD4FE4911E96EC935F
:101E50001E97EB81F0E0ED5FFD4FE4911F96EC9350
:101E6000DF91CF9108959F92AF92BF92CF92DF9270
:101E7000EF92FF920F931F93CF93DF93CDB7DEB70F
:101E8000A0970FB6F894DEBF0FBECDBF8C016B01DB
:101E9000DC011296EC90B0E1EB9EC0011124F80138
:101EA000E380F480E80EF91EFA019701BE016F5F2E
:101EB0007F4F405F5F4F962EA72E8191D9019D9154
:101EC0009D018927DB018D93BD01E417F507A9F773
:101ED000692D7A2DCE0141960E94AF0EF801B28095
:101EE000870100511109F1E0FB15A8F5DE015196BB
:101EF000A8018D91FA019191AF019D012150310905
:101F00008927F90180834E155F0599F7BE016F5E41
:101F10007F4F892D9A2D0E94940DBE016B5E7F4FDD
:101F2000CE0105960E94940DBE01675E7F4FCE01E3
:101F300009960E94940DBE01635E7F4FCE010D96FF
:101F40000E94940D692D7A2DCE0141960E94AF0E0C
:101F5000BA947801C5CFAE014F5E5F4FD801C6017C
:101F6000FA012191AF013D912327FC012193CF017B
:101F7000EA16FB06A9F7A0960FB6F894DEBF0FBECF
:101F8000CDBFDF91CF911F910F91FF90EF90DF9028
:101F9000CF90BF90AF909F900895CF93DF93DC01D7
:101FA000EB01E881F0E0ED5FFE4FE491EC93ED8111
:101FB000F0E0ED5FFE4FE4911196EC931197EA8506
:101FC000F0E0ED5FFE4FE4911296EC931297EF85EF
:101FD000F0E0ED5FFE4FE4911396EC931397EC81E4
:101FE000F0E0ED5FFE4FE4911496EC931497E985D1
:101FF000F0E0ED5FFE4FE4911596EC931597EE85BA
:10200000F0E0ED5FFE4FE4911696EC931697EB81AE
:10201000F0E0ED5FFE4FE4911796EC931797E8859B
:10202000F0E0ED5FFE4FE4911896EC931897ED8584
:10203000F0E0ED5FFE4FE4911996EC931997EA8179
:10204000F0E0ED5FFE4FE4911A96EC931A97EF8162
:10205000F0E0ED5FFE4FE4911B96EC931B97EC854F
:10206000F0E0ED5FFE4FE4911C96EC931C97E98144
:10207000F0E0ED5FFE4FE4911D96EC931D97EE812D
:10208000F0E0ED5FFE4FE4911E96EC931E97EB851A
:10209000F0E0ED5FFE4FE4911F96EC93DF91CF915E
:1020A0000895BF92CF92DF92EF92FF920F931F930A
:1020B000CF93DF93CDB7DEB7A0970FB6F894DEBF0E
:1020C0000FBECDBF7C016B01DC0113960D911C91FD
:1020D000FA01A801BF01605F7F4F9E012F5F3F4F54
:1020E0009191DA018D91AD019827D9019D939D01C0
:1020F000E617F707A9F7005F1F4FF701B280C80185
:1021000040967C0191E0BE016F5F7F4F9B15A0F56B
:10211000CE0141960E94CD0FBE016F5E7F4FCE0172
:1021200001960E946D0EBE016B5E7F4FCE0105963B
:102130000E946D0EBE01675E7F4FCE0109960E9420
:102140006D0EBE01635E7F4FCE010D960E946D0E37
:10215000F801AE014F5F5F4FDA018D91AD019191B2
:102160009D01215031098927D9018C93EE15FF0576
:1021700099F78F01BA94C3CFCE0141960E94CD0F3B
:10218000AE014F5E5F4FF801C601DA012D91AD013E
:1021900031912327DC012D93CD01EE16FF06A9F71F
:1021A000A0960FB6F894DEBF0FBECDBFDF91CF91E2
:1021B0001F910F91FF90EF90DF90CF90BF90089507
:1021C0002CEA31E0FC013183208360EB70E005965E
:1021D0000C949B0CCF93DF93EC0186ED91E09983F7
:1021E0008883CE0186960E94E010CE01DF91CF91C8
:1021F0000C94710DFC0101900020E9F73197AF01BB
:10220000481B590BBC0183E595E00C945A0588E402
:1022100092E00C94FA108F929F92AF92BF920F931C
:102220001F93CF93DF93CDB7DEB7A1970FB6F89486
:10223000DEBF0FBECDBF19A2423008F44AE08E01C6
:102240000F5D1F4F842E912CB12CA12CA501940160
:102250000E945E26E62FB901CA01EA30F4F4E05D7F
:10226000D801EE938D01232B242B252B79F790E0B9
:1022700080E0109719F0CD010E94FA10A1960FB6D8
:10228000F894DEBF0FBECDBFDF91CF911F910F91AC
:10229000BF90AF909F908F900895E95CE1CFCF926F
:1022A000DF92EF92FF92CF93DF936B017C016DE29F
:1022B00083E595E00E94DF05EC0166277727CB01D7
:1022C0006C197D098E099F094AE00E940B118C0F41
:1022D0009D1FDF91CF91FF90EF90DF90CF900895F9
:1022E000CF93DF93D0E0C0E0009719F00E94FA107E
:1022F000EC010E9407118C0F9D1FDF91CF91089573
:10230000EF92FF920F931F93CF93DF937C01EC0129
:10231000062F10E0CE018E199F09801791076CF4EB
:10232000699170E090E080E040E10E940B116CE266
:1023300083E595E00E94DF05EDCFDF91CF911F91FE
:102340000F91FF90EF900C940711CF93DF9340E132
:102350000E940B11EC010E9407118C0F9D1FDF9151
:10236000CF910895DC0112962D913C911397F901BC
:10237000E40FF51F1396FC93EE9312976115710508
:1023800021F0CB01B9010E941A2881E00895403163
:10239000510569F4DC01149620E1FB0101900D92D6
:1023A0002A95E1F720E1FC0124A381E0089580E073
:1023B0000895FF920F931F93CF93DF934031510500
:1023C00009F058C0EC01259620E1FB01DE010190E7
:1023D0000D922A95E1F7AC014B555F4FB1E024E037
:1023E0008C850881ED8519819E85AA816F857B8109
:1023F000243009F034C0F0E0ED5FFE4F3491EB2F54
:10240000F0E0E850FF4FF490E92FF0E0ED5FFE4F71
:102410002491E62FF0E0ED5FFE4F9491E82FF0E07D
:10242000ED5FFE4F6491E32FEF250E27088BE22F1F
:10243000E127E98BEA2FE927EA8BE72FE627EB8BE9
:10244000BF5F20E024962F5F4C175D0709F0C8CFCF
:1024500081E0DF91CF911F910F91FF900895802728
:10246000888BE127E98BEA2FE927EA8BE72FE6271C
:10247000EB8BE8CF80E0EDCFCF93DF93EC010E94B0
:10248000710DCE01DF91CF910C948C27CF93DF9308
:10249000EC010E94E010CE01DF91CF910C948C27CB
:1024A000CF93DF93EC010E94EA10CE01DF91CF9130
:1024B0000C948C27FC01349627E1DF011D922A95AC
:1024C000E9F7FC0171836083538342830C94D30941
:1024D0000F931F93CF93DF938C01EB01E881F98178
:1024E00064817581DB01ED91FC9185919591A591B8
:1024F000B491892F9A2FAB2FBB27807C9927AA27CD
:10250000BB27AE014E5F5F4F80389105A105B10535
:1025100011F04A815B81C8010E945A122696F80187
:10252000D08FC78BDF91CF911F910F910895CF92DC
:10253000DF92EF92FF920F931F93CF93DF93CDB76C
:10254000DEB7AA970FB6F894DEBF0FBECDBF8C01E1
:102550006E018CE1C80ED11C88E0D6011D928A95CF
:10256000E9F71CA21DA21EA21FA219A618A6D80137
:10257000ED91FC91848195810097C9F022EB31E1C6
:102580003D8F2C8F9F8F8E8F8FEF9FEF99A388A306
:102590009E01265D3F4FAE014C5D5F4FBE01685D01
:1025A0007F4FC6010E941808882309F4C7C0F801AC
:1025B0008289282F2F702A3009F05DC00588F6899E
:1025C000E02DE080F180E114F10409F040C04CA15D
:1025D0005DA16EA17FA1411551056105710549F10C
:1025E000F80184859585B0E0A0E0481759076A078F
:1025F0007B07F9F468A579A5A801C6010E94A0137C
:10260000882309F49BC09E01265D3F4FAE014C5DBF
:102610005F4FBE01685D7F4FC6010E941808882386
:1026200009F48CC0D8015796ED91FC91309709F0D0
:102630001082C8010E945909C8010E94D309F801FB
:1026400084819581892B09F0B2CF81E04AC0B7011E
:10265000CE0101960E946812882349F0D701169690
:102660001C92CE0101960E9497128823D1F1F701A6
:10267000E480F580A8CF982F907C09F053C0982F64
:1026800090739031E9F50788F08DE02D309709F0CF
:1026900010822850330BF801858996892230310544
:1026A000C0F5018CF28DE02D24813581232B51F46E
:1026B00026813781232B31F4A281B3812D913C9166
:1026C000232B39F1AC01BF01CE0101960E945A12B1
:1026D000882309F47CCFCE0101960E9497128111C4
:1026E00076CFAA960FB6F894DEBF0FBECDBFDF91AE
:1026F000CF911F910F91FF90EF90DF90CF900895B1
:10270000D80185FFC6CF5796ED91FC9111821082BA
:102710005ECFD8011E964D915C9170E060E00E9402
:10272000232855CF903809F052CFD8010388F48977
:10273000E02D1182108285FF4ACFE5CF80E0D1CF16
:102740008F929F92AF92BF92CF92DF92EF92FF92C1
:102750000F931F93CF93DF93CDB7DEB7A3970FB639
:10276000F894DEBF0FBECDBF8C015B017A01DA01A8
:1027700052968C915297982F907C903409F425C1F1
:10278000903809F418C19111CFC1982F90739031EE
:1027900009F467C078F4992309F46AC0D801169641
:1027A0008D919C91009711F481E792E0F801978355
:1027B00086838CC0903209F462C0903379F78F70B1
:1027C0008850990B029708F0EDC05796ED91FC9157
:1027D0005897208131811C968D919C911D972817C7
:1027E000390709F4DFC01E964D915C911F9770E088
:1027F00060E055968D919C910E942328D7015996AF
:10280000ED91FC9184819581892B59F48681978182
:10281000892B39F4A281B3818D919C91892B09F484
:10282000C1C0D70155964D915C91BF01CE01019673
:102830000E945A12882309F4B5C0CE0101960E9465
:102840009712D82E8111AEC0F8018681978100972A
:1028500011F48AE592E0D80117969C938E9316970F
:102860007FC05796ED91FC91309711F081E0808305
:10287000A701B501C8010E948C19D82E71C0FA01B8
:102880008788908CD4014D915C9126853785429F35
:10289000B001439F700D529F700D1124238934891C
:1028A000260F371FB2E0AB16B10409F06DC08F7070
:1028B000863008F069C0368B258BBE016F5F7F4F75
:1028C000C8010E94C607D82E811120C0D12C48C053
:1028D000A7016FEF70E0CE0101960E948C1988234A
:1028E000A1F1F40180819181019691838083D701C8
:1028F00055968D919C9156971E962D913C911F97C0
:10290000820F931F56969C938E9355978D819E812F
:10291000892B51F0F40120813181D70150968D919E
:102920009C9128173907A0F28D819E81892B79F01F
:10293000F80186819781009711F48BE492E0D80129
:1029400017969C938E931697C1CFD12CEDCFBE01D5
:102950006F5F7F4FC8010E94D808882309F4B6CF63
:102960008D2DA3960FB6F894DEBF0FBECDBFDF91BD
:10297000CF911F910F91FF90EF90DF90CF90BF907C
:10298000AF909F908F900895F701368B258BCA01E9
:102990000196D4018D939C9380899189481759079A
:1029A00038F666CFF701848595850788F08DE02D90
:1029B000918380835DCFD80116968D919C9100976D
:1029C00009F0F4CE84E892E0F1CEED91FC9186819D
:1029D0009781892B21F4C8010E94FA084ECF6230FA
:1029E0007105B9F5BE016F5F7F4FC8010E94C60730
:1029F000D82E882309F4B4CFAD80BE80D701ED91E5
:102A0000FC910680F781E02DA70170E060E0CE0127
:102A100001960995D82E81110EC0F8018681978103
:102A2000009709F018CF8F819885009709F013CF90
:102A300086E992E010CF8D819E81009719F08A156A
:102A40009B05D0F2BE016F5F7F4FC8010E94D8087E
:102A500014CF6130710509F44DC070F06530710517
:102A600009F456C0D80116968D919C91009709F0F3
:102A70009DCE86E392E09ACECE0101964C01B12C18
:102A8000A12C64019FEFA91AB90AABE0AA16B10400
:102A900049F4F80186819781009709F050CF8FEFB4
:102AA00091E04DCF41E050E0B401C8010E946008C0
:102AB000882309F40BCFBFEF8B1A9B0AF6018081A4
:102AC00087FDDFCF82EB91E19D8F8C8FCE01019648
:102AD0009F8F8E8FB9A2A8A21BA21AA2D701ED9137
:102AE000FC910680F781E02DA70170E060E04B9635
:102AF0000995C3CE48E050E0BE016F5F7F4FC8012B
:102B00000E94600828E0A22EB12C8111DBCFDECE1E
:102B100044E050E0BE016F5F7F4FC8010E94600833
:102B200094E0A92EB12CF1CFF8018681978100970E
:102B300009F005CF81E792E002CF2F923F924F92AA
:102B40005F926F927F928F929F92AF92BF92CF923D
:102B5000DF92EF92FF920F931F93CF93DF93CDB746
:102B6000DEB7C155D1090FB6F894DEBF0FBECDBF99
:102B70007C01690127961FAE1EAE27971FAA18AECB
:102B800019AE1AAE1BAE1CAE1DAE1EAECE014C96DB
:102B90000E945A12882309F464C2CD2809F061C248
:102BA000CE014C960E94971281115BC2D7011696F6
:102BB0002D913C912115310511F42AE532E0F70100
:102BC00037832683CF5ADF4F0FB6F894DEBF0FBE90
:102BD000CDBFDF91CF911F910F91FF90EF90DF90CC
:102BE000CF90BF90AF909F908F907F906F905F90AD
:102BF0004F903F902F9008959E01295B3F4FAE016B
:102C0000415C5F4FBE016D5B7F4FC7010E9418089A
:102C1000811107C028968FAD289781110EC180E0E1
:102C2000D1CF23968CAC9DACAEACBFAC23978114B6
:102C30009104A104B10461F4D70116968D919C9181
:102C4000009711F486EA92E0F70197838683E7CF35
:102C500088A599A5B0E0A0E088169906AA06BB064B
:102C600009F49BC0EC8DFD8D4485558570E060E0D6
:102C7000481559056A057B0508F43CC0C8A0D9A0D1
:102C800088169906AA06BB0620F48085918599A32B
:102C900088A3CE014C960E945909AC8DBD8D8AA1A6
:102CA0009BA1880F991F880F991FED91FC91E80F48
:102CB000F91F85919591A591B49102E0B695A795DC
:102CC000979587950A95D1F788259925AA25BB253B
:102CD0008F739927AA27BB27892B8A2B8B2B09F463
:102CE00049C088A199A1C816D90699F6CE014C967B
:102CF0000E94D309411451046104710409F066C0B3
:102D00008EA58F708A3009F453C0C8A0D9A0CE0117
:102D10004C960E945909AC8DBD8D8AA19BA1880F4C
:102D2000991F880F991FED91FC91E80FF91F85916C
:102D30009591A591B491892F9A2FAB2FBB278F70B6
:102D40009927AA27BB270A97A105B10509F0C1C099
:102D5000CE014C960E94D30981112AC02C968EADCB
:102D60009FAD2C97892B09F0B7C144244A94542C69
:102D700032012CC0CE014C960E94D30988A599A59A
:102D8000B0E0A0E088169906AA06BB0609F0A9CF14
:102D90008EA58F708A3009F4A4CF8EA5982F9F70CE
:102DA0009A3009F0E9C0411451046104710471F4CE
:102DB000E9A9FAA9208131812C963FAF2EAF2C973B
:102DC000232B99F248A459A4712C612C23968CAC26
:102DD0009DACAEACBFAC239784149504A604B70495
:102DE00008F470C1D70114960D90BC91A02D629685
:102DF000BFAFAEAF62972596EEADFFAD259760965B
:102E0000FFAFEEAF60972C96CEACDFAC2C97F701FE
:102E10008481958162962EAD3FAD6297C114D10435
:102E200009F44CC12817390709F45EC0D70114967C
:102E30008D919C91892B09F0DFCE2E96EEADFFADE2
:102E40002E97319641F027968EAD9FAD279782152C
:102E5000930509F0B0C0EC8DFD8D828593850097B8
:102E6000B1F18134910510F080E490E09C0145E0DF
:102E7000369527954A95E1F7FE01F79650E040E038
:102E80002417350709F004C1AC014F715527452BB4
:102E9000F1F0220F331F220F331FFE01E20FF31F49
:102EA0008F7120E2281B8FEF9FEFDC0104C0B695E5
:102EB000A795979587952A95D2F747A950AD61AD0B
:102EC00072AD481759076A077B0709F0EAC081E02D
:102ED00079CE88A199A1C816D90609F018CFCE01DC
:102EE0004C960E94D3093ACFD601ED91FC91019006
:102EF000F081E02D309789F060960EAD1FAD6097A0
:102F0000A5019401B601C7010995882309F487CE6C
:102F1000D6011496CD90DC907ACFB601CE01019601
:102F20000E94681281110DC0F70186819781009778
:102F300011F48FEA92E0D70117969C938E9316971F
:102F40006ECE8D859E85B0E0A0E088169906AA0613
:102F5000BB06F1F68B819C81892BD1F221E0F60131
:102F60002683AE014F5F5F4F60966EAD7FAD609779
:102F7000C7010E94A013C9CF8073803209F040C0FE
:102F80008BA99CA92A96AEADBFAD2A978A179B073D
:102F900061F588A199A12E96EEADFFAD2E978E1703
:102FA0009F07E9F0319689F027962EAD3FAD279720
:102FB0002215330551F0D70116968D919C910097FB
:102FC00009F042CE81EC92E03FCE27961FAE1EAEB6
:102FD00027972CA43DA42E969FAF8EAF2E9725E465
:102FE00030E02C0F3D1F3CAB2BAB25966EAD7FAD7B
:102FF0002597AE01445E5F4FC7010E94A01369C0D0
:103000008111F3CF8CA19DA18034910570F7FC0153
:1030100055E0F695E7955A95E1F7EE0FFF1FEE0F95
:10302000FF1FA1E0B0E0AC0FBD1FEA0FFB1F8F71C7
:10303000992741E050E060E070E004C0440F551F64
:10304000661F771F8A95D2F786A997A9A0ADB1AD63
:10305000842B952BA62BB72B86AB97ABA0AFB1AF2C
:10306000C4CF312C212CEFEFFFEF2E96FFAFEEAF48
:103070002E972C961FAE1EAE2C97412C512C320150
:103080009E01245D3F4F2A963FAF2EAF2A97CECEAA
:1030900081909190A190B1908B208A20892080947A
:1030A00051F0D70116968D919C91009709F0CCCDE7
:1030B00082EE92E0C9CD4F5F5F4FE2CE281739070D
:1030C00009F0B4CE25966EAD7FAD2597C7010E945D
:1030D000FA088111ABCEA3CD23968CAC9DACAEACDF
:1030E000BFAC23977FCECF92DF92EF92FF920F93E8
:1030F0001F93CF93DF93CDB7DEB7C75FD1400FB635
:10310000F894DEBF0FBECDBF8AE994E00E94F505BA
:103110004AE06FE270E080E090E00E940B110E94B4
:1031200007118CE894E00E94F505CE5FDD4F6881C1
:1031300079818A819B81C250D2400E94A51183E887
:1031400094E00E94F505CA5FDD4F688179818A812C
:103150009B81C650D2400E94A51188E794E00E944E
:10316000F505C65FDD4F688179818A819B81CA50F0
:10317000D2400E94A51186E694E00E94F505C05D4C
:10318000DD4F6881C053D240CE018E5E9D4F0E94BC
:1031900080118BE594E00E94F50560E18CE494E0F9
:1031A0000E94801181E594E00E94F50560E184EAC7
:1031B00094E00E9480118DE394E00E94F5056091F7
:1031C000B4048CE594E00E948011AE014F5F5F4F24
:1031D00084E091E0FA019C01119221503040E1F726
:1031E0008091B4049091B50422EB31E1C051DE4FDF
:1031F00039832883C05FD1402CE534E0CE50DE4FC8
:1032000039832883C25FD140CC50DE4F99838883B5
:10321000C45FD140CA50DE4F19821882C65FD140C8
:1032200030E020E064E671E0CE0180519E4F0E94C4
:103230009D15811114C089EF92E00E947011C95050
:10324000DE4F0FB6F894DEBF0FBECDBFDF91CF913A
:103250001F910F91FF90EF90DF90CF9008958AE03B
:1032600093E00E94FA1069817A81072E000C880B86
:10327000990B97FF3FC00E944F110E94071189814F
:103280009A81019709F041C08BEEFE013396DE0171
:10329000AB5FBE4F01900D928A95E1F7CE018B5F37
:1032A0009E4FFC01C190D1907F01C60101960E9402
:1032B000F0268C01A601B7010E941A28F801EC0D36
:1032C000FD1D1082C8010E94701143E050E0B8015A
:1032D00080E293E00E942A28892B31F4F80183814F
:1032E000803361F0813379F0C8010E948C270E94FD
:1032F0000711A5CF4AE00E940B11BFCF60E085E027
:103300000E94F102F1CF61E0FACF8EE294E00E94D8
:10331000F5050E940711EBCF4F925F927F928F923B
:103320009F92AF92BF92CF92DF92EF92FF920F9354
:103330001F93CF93DF93CDB7DEB728970FB6F894DE
:10334000DEBF0FBECDBFDC01FA0192899F709C30B9
:1033500008F03CC32A014D01E92FF0E0EE54F64E8F
:103360000C949F26BE19001A001A001A521B731BD8
:103370009C1BF61B4E1C4E1CE61CA91C61157105FE
:1033800069F06F3F710551F0D40116968D919C91B3
:10339000009709F083C184E293E080C1D201559681
:1033A0000D911C9150E040E0BE016F5F7F4FC40162
:1033B0000E942107782E882361F081E049815A819B
:1033C0006B817C81452B462B472B09F480E0F8016B
:1033D0008083872D28960FB6F894DEBF0FBECDBF31
:1033E000DF91CF911F910F91FF90EF90DF90CF90E1
:1033F000BF90AF909F908F907F905F904F90089577
:103400006115710521F06F3F710509F0BDCFBE0157
:103410006F5F7F4F923009F071C0C4010E94A70610
:10342000782E8823B1F2D2011E968D919C911F9720
:103430008830910539F5A980BA80CB80DC80ED8099
:10344000FE800F8118855596ED91FC91A082B18286
:10345000C282D382E482F5820683178329813A816E
:103460004B815C816D817E818F8198850E94DB26F6
:1034700009F4AFCFF401868197810097C9F586E4FE
:1034800093E036C084309105A1F439812A819B8173
:103490008C815596ED91FC91A32EB22EC92ED82E7B
:1034A0003083218392838383E12CF12C00E010E0B0
:1034B000D5CF8230910561F499818A815596ED913D
:1034C000FC91A92EB82E90838183C12CD12CECCFF6
:1034D000019739F4A9805596ED91FC91A082B12C09
:1034E000F4CFF40186819781009711F484E393E08F
:1034F000D40117969C938E931697DCC1933009F0F4
:1035000053C0C4010E94A706782E882309F461CF16
:10351000F9813A814B815C816D817E812F2F8F8172
:10352000988501E00E94C02659016A017B01E82FBD
:10353000192F2F2F217030E040E050E060E070E064
:1035400080E090E0A0E07E2E0E94E42641F0A0946E
:10355000B094C094D094E094F09470941095D201FB
:103560001E968D919C911F978830910509F03FC060
:1035700055960D90BC91A02DAC921196BC921197CE
:103580001296CC9212971396DC9213971496EC92A3
:1035900014971596FC92159716967C921697179687
:1035A0001C937724739415CFC4010E94A706782E2C
:1035B000882309F40ECF09811A812B813C814D812A
:1035C0005E816F817885F201868597855801690152
:1035D000089721F47A01762E172FC1CF330F000BF5
:1035E000102F9801E02EF02E702E102FB8CF8430BF
:1035F000910539F5A501B601F201A589B6894D936A
:103600005D936D937C9313979501FC2DBD2D770FE2
:10361000440B542FBA01042FA42F842F942F4F2F23
:103620005B2F602F7A2F072D0E94DB2609F4B9CF7C
:10363000D40116968D919C91009781F586E493E0D4
:103640002DC08230910589F4F201A589B689AC922A
:103650001196BC922A2D3B2DFB2DFF0FFF0BBF2F88
:103660000F2FAF2F8F2F9F2FDACF019779F4F20111
:10367000A589B689AC922A2D3A2D330F330BF32F3F
:10368000B32F032FA32F832F932FC9CFD4011696C7
:103690008D919C91009711F484E393E0F40197835A
:1036A000868308C16530710521F06F3F710509F00F
:1036B0006BCED20155960D911C9144E050E0BE01B5
:1036C0006F5F7F4FC4010E946008782E882309F441
:1036D00080CE89819A81AB81BC81F80180839183FE
:1036E000A283B38376CE6130710521F06F3F7105FF
:1036F00009F04ACED20155960D911C9148E050E058
:10370000BE016F5F7F4FC4010E946008782E88233E
:1037100009F45FCE79816A815B814C813D812E8184
:103720009F818885F801708361835283438334834A
:103730002583968387834DCE6230710509F024CEB0
:1037400050E040E0BE016F5F7F4FCD010E94210736
:10375000782E882309F43DCE49815A816B817C8182
:1037600041155105F1E06F07710550F0D40116962F
:103770008D919C91009709F091CF88E593E08ECFD1
:103780009A012E5F3F4FC901B0E0A0E08417950772
:10379000A607B70750F4D40116968D919C91009717
:1037A00009F07CCF87E292E079CFD20152968C91DA
:1037B0005297807C803849F4F40186819781009784
:1037C00009F096CE84E892E093CEF2018685978543
:1037D0008217930758F25596ED91FC9141935193BE
:1037E000BF01C4010E946008782EF3CD62307105DC
:1037F00049F0F40186819781009709F079CE84E23F
:1038000093E076CEFA010589168950E040E0BE01CA
:103810006F5F7F4FCD010E942107782E882309F426
:10382000D8CD89819A81AB81BC818F3FFFEF9F0703
:10383000AF07BF0709F4AFCFAC014F5F5F4F6A011D
:10384000F12CE12CC816D906EA06FB0608F4A3CF32
:10385000F2012289207C203851F4D40116968D91F2
:103860009C91009709F01ACF84E892E017CF268543
:1038700037852417350750F4D40116968D919C9105
:10388000009709F00BCF87E693E008CF800F911FD8
:10389000DC011C9249815A81B801A3CF62307105C5
:1038A00009F0A7CFBE016F5F7F4FCD010E94C60711
:1038B000811102C0712C8DCDF201818D928D892BE9
:1038C00051F4D40116968D919C91009709F0E6CEA3
:1038D00087E793E0E3CE82898F708930C1F0F201EF
:1038E0008289982F907C20E030E031F4807321E0D1
:1038F00030E0803209F420E0F20145895689618D7B
:10390000728DCE0101960E949D15782E19C04789AF
:10391000508D4115510519F3FA0134970190F0814A
:10392000E02D3097E1F242505109B201CE010196EB
:103930000995782E882321F08D819E81892B79F637
:10394000BE016F5F7F4FC4010E94D808811141CD35
:10395000B1CF6230710509F017CD50E040E0BE01F3
:103960006F5F7F4FCD010E942107782E882309F4D5
:1039700030CD89819A81AB81BC810097F1E0AF079E
:10398000B10508F0F3CEF201468557850097A105F1
:10399000B10539F470E060E0858996890E9423289A
:1039A00018CD8A0130E020E080179107A207B30705
:1039B00051F0D40116968D919C91009709F06ECE2E
:1039C00080E993E06BCE658976890BCF16968D9151
:1039D0009C911797009709F08CCD81E792E089CDF3
:1039E0000E9415281F920F920FB60F9211242F9349
:1039F0003F938F939F93AF93BF93809136049091A1
:103A00003704A0913804B09139043091350423E093
:103A1000230F2D3758F50196A11DB11D20933504B4
:103A20008093360490933704A0933804B0933904FC
:103A300080913A0490913B04A0913C04B0913D04E4
:103A40000196A11DB11D80933A0490933B04A0936D
:103A50003C04B0933D04BF91AF919F918F913F91F2
:103A60002F910F900FBE0F901F90189526E8230FEF
:103A70000296A11DB11DD2CF1F920F920FB60F92C9
:103A800011242F933F934F935F936F937F938F9363
:103A90009F93AF93BF93EF93FF93E0910C01F0914D
:103AA0000D010995FF91EF91BF91AF919F918F917A
:103AB0007F916F915F914F913F912F910F900FBE2A
:103AC0000F901F9018951F920F920FB60F9211240E
:103AD0002F933F934F935F936F937F938F939F9316
:103AE000AF93BF93EF93FF93E0910A01F0910B0125
:103AF0000995FF91EF91BF91AF919F918F917F9128
:103B00006F915F914F913F912F910F900FBE0F904A
:103B10001F9018951F920F920FB60F9211242F939A
:103B20003F934F935F936F937F938F939F93AF9345
:103B3000BF93EF93FF93E0910801F091090109957C
:103B4000FF91EF91BF91AF919F918F917F916F9175
:103B50005F914F913F912F910F900FBE0F901F904B
:103B600018951F920F920FB60F9211242F933F9327
:103B70004F935F936F937F938F939F93AF93BF9375
:103B8000EF93FF93E0910601F09107010995FF91F2
:103B9000EF91BF91AF919F918F917F916F915F91C5
:103BA0004F913F912F910F900FBE0F901F9018953E
:103BB0001F920F920FB60F9211242F933F934F93A2
:103BC0005F936F937F938F939F93AF93BF93EF9385
:103BD000FF93E0910401F09105010995FF91EF91A8
:103BE000BF91AF919F918F917F916F915F914F9115
:103BF0003F912F910F900FBE0F901F9018951F921D
:103C00000F920FB60F9211248F939F938091E10032
:103C10009091E100937F9093E10083FF0FC0109299
:103C2000E90091E09093EB001092EC0092E3909306
:103C3000ED0010924B0498E09093F00082FF22C0B8
:103C400093E09093E9009091F200992319F09AE3A0
:103C50009093E80090910204992341F0909102041E
:103C6000915090930204911101C05D9890914A0483
:103C7000992341F090914A04915090934A049111F4
:103C800001C0289884FF18C08091E2008E7E816078
:103C90008093E2008091E1008F7E8093E10080912B
:103CA00003048E7E8061809303049F918F910F9017
:103CB0000FBE0F901F90189580FFF7CF8091E20004
:103CC0008E7E80618093E2008091E1008E7E809301
:103CD000E100809103048E7E8160E5CF1F920F92F8
:103CE0000FB60F921124CF92DF92EF92FF920F93B3
:103CF0001F932F933F934F935F936F937F938F9374
:103D00009F93AF93BF93EF93FF93CF93DF93CDB781
:103D1000DEB76C97DEBFCDBF1092E9008091E8005E
:103D200083FF25C068E0CE0145960E94420482EFE1
:103D30008093E8008D8987FF39C09091E80090FF5B
:103D4000FCCF982F907609F034C19E894F89588D09
:103D50002F89F88C911131C0803861F5809104046D
:103D60008093F1001092F1008EEF8093E8006C9642
:103D70000FB6F894DEBF0FBECDBFDF91CF91FF919C
:103D8000EF91BF91AF919F918F917F916F915F91D3
:103D90004F913F912F911F910F91FF90EF90DF90E6
:103DA000CF900F900FBE0F901F9018959EEF90939D
:103DB000E800C7CF1092F100D5CF913059F48111AE
:103DC000D3CF4130510581F6809104048D7F8093DB
:103DD0000404CACF933049F48111C6CF4130510554
:103DE00019F6809104048260F2CF953041F48091FD
:103DF000E80080FFFCCF20682093E300B5CF963029
:103E000009F0A9C00B8D1C8D22E01092E9001092E0
:103E100000041092FF03F2122EC01092FE031092C3
:103E2000FD030E9411041F8299E09983FA8291E0B8
:103E30009E8390EA98879AEF99872091FF033091AB
:103E40000004275F3F4F3C832B838D831092E90052
:103E5000109200041092FF031093FE030093FD03E1
:103E600049E050E0BE016F5F7F4F80E00E94EB03AE
:103E70000E94110479CF1093FE030093FD030E946A
:103E8000DD02DC0112960D911C910115110509F45A
:103E900051C1D801ED91FC910480F581E02DBE0166
:103EA0006B5E7F4FC8010995009709F03EC1F8018C
:103EB00000851185EACFF3E0FF120EC08F898823B9
:103EC00009F440C0823061F440E86DE087E693E099
:103ED0000E947521811148CF81E28093EB0047CF8A
:103EE000813029F440E86BE08BE593E0F1CF83303B
:103EF00099F70E94DD02DC011296ED90FC908E0194
:103F00000F5F1F4F6801E114F10479F0D701ED91C3
:103F1000FC910680F781E02DB801C7010995080FD3
:103F2000111DF701E084F184EECFD8011C92F60157
:103F300001900020E9F73197BF016C197D0940E03D
:103F4000C601C6CF65E473E0FB01449150E080E810
:103F50000E94EB0309CF973009F4BECF983021F4CB
:103F600081E08093F10000CF993009F0FDCE83709D
:103F700009F0B2CFE0E4F1E081E031E096E3219195
:103F8000222371F08093E9003093EB00DF01119759
:103F90002C912093EC009093ED008F5F873079F7A0
:103FA0008EE78093EA001092EA008F8980934B0499
:103FB000DBCE8B8D9C8D1092E90010920004109244
:103FC000FF039093FE038093FD03898D811192C0BE
:103FD0008E899D89913A49F4813209F07DCF47E07D
:103FE00050E06EE071E080E0B3CF913209F074CF21
:103FF000833269F48F89988DB0E0A0E0809300014E
:1040000090930101A0930201B0930301ADCE8032E1
:1040100069F48091E80082FFFCCF67E08EE091E0D8
:104020000E9442048BEF8093E8009ECE823209F01A
:104030009BCE8F8980931501EEEFFFE785919491D8
:104040008B3F9C4D51F1E0E0F8E080910E019091A2
:104050000F01A0911001B0911101803B9440A10586
:10406000B105F1F48091150180FD1AC0EE3F8AE0A0
:10407000F80789F587E797E791838083809160004F
:104080008093010488E19BE00FB6F894A895809393
:1040900060000FBE9093600067CEEEEFFAE0D5CFE0
:1040A000808191818737974709F05ECEA8958091EE
:1040B00060008861809360008091010480936000BB
:1040C000EE3F2AE0F20789F08091FE0A9091FF0A04
:1040D0009183808349CE808191818737980751F2FF
:1040E0009093FF0A8093FE0AC5CF1092FF0A1092A8
:1040F000FE0A3ACE0E94DD02DC0112960D911C915F
:104100000115110509F4E8CED801ED91FC9101905B
:10411000F081E02DBE016B5E7F4FC80109958111D2
:1041200023CEF80100851185EBCF181619060CF483
:104130001BCED2CEF1E0FF12BECE69E473E004CF15
:104140001F920F920FB60F9211242F933F934F930C
:104150005F936F937F938F939F93AF93BF93EF93EF
:10416000FF9386EB94E00E94CD04FF91EF91BF9105
:10417000AF919F918F917F916F915F914F913F91FF
:104180002F910F900FBE0F901F9018951F920F92B6
:104190000FB60F9211242F938F939F93EF93FF935A
:1041A000E091C604F091C7048081E091CC04F091C5
:1041B000CD0482FD1BC090818091CF048F5F8F73EF
:1041C0002091D004821741F0E091CF04F0E0EA544E
:1041D000FB4F958F8093CF04FF91EF919F918F912B
:1041E0002F910F900FBE0F901F9018958081F4CFE4
:1041F0001F920F920FB60F9211242F934F935F933C
:104200006F937F938F939F93AF93BF93209184007D
:104210008091F9039091FA03A091FB03B091FC0304
:10422000820F911DA11DB11D8093F9039093FA0394
:10423000A093FB03B093FC038091F9039091FA03E0
:10424000A091FB03B091FC034091F9035091FA0354
:104250006091FB037091FC032AE0880F991FAA1F4D
:10426000BB1F2A95D1F7840F951FA61FB71F8093F8
:10427000F9039093FA03A093FB03B093FC0380919E
:10428000F9039091FA03A091FB03B091FC034091D4
:10429000F9035091FA036091FB037091FC0326E04F
:1042A000B695A795979587952A95D1F78427952751
:1042B000A627B7278093F9039093FA03A093FB03F3
:1042C000B093FC038091F8038F5F8093F803BF9154
:1042D000AF919F918F917F916F915F914F912F91AE
:1042E0000F900FBE0F901F901895EF92FF920F93B3
:1042F0001F93CF93DF93F82E192FE62E042F81E022
:10430000860F880F0E94BD0383E00E94BD03CF2D5E
:10431000D12FEC0EFD2EF11CCE15DF05B9F007FFF5
:1043200013C0FE0184910E94BD03182F80E00E94FB
:10433000BD03812321968111EFCFDF91CF911F9192
:104340000F91FF90EF9008958881EDCF81E0F5CF38
:1043500088EC95E00E94EA10F894A89584B7877FCE
:1043600084BFE0E6F0E080818861808310827894E9
:1043700060E470E083EA96E00E949B0C60E470E0E9
:1043800083EE96E00C949B0CE6EBF4E01382128231
:1043900088EE93E0A0E0B0E084839583A683B783A2
:1043A00026E731E0318320832DEC30E03587248708
:1043B0002CEC30E03787268728EC30E0318B208BDF
:1043C00029EC30E0338B228B2AEC30E0358B248BC8
:1043D0002EEC30E0378B268B118E128E138E148EBE
:1043E000E3E5F5E01382128284839583A683B78385
:1043F00088E891E0918380838FEF9FEF9587848792
:10440000E4EAF5E0138212828AE991E091838083E5
:1044100080E5848781E0858783EA95E097878687B2
:104420008AE090E0918B808B89E090E0938B828B87
:1044300082E090E0958B848B168A178A108E118EFD
:10444000138E128E158E148E178E168E11A210A238
:1044500013A212A21482158216821782E3E2F7E0F9
:1044600010828181807880628F7781831092250706
:1044700010922607109227071092280780E89EEED8
:10448000A6E3B0E08093290790932A07A0932B0717
:10449000B0932C071092350710923607E8ECF5E040
:1044A00080E184A315A286ED91E0918380838CEA5C
:1044B00091E097A386A38AE080A783EF95E092A777
:1044C00081A78EEE95E0938382830895CF93DF9347
:1044D00000D000D0CDB7DEB7789484B5826084BDBB
:1044E00084B5816084BD85B5826085BD85B58160F8
:1044F00085BD80916E00816080936E001092810076
:104500008091810082608093810080918100816030
:1045100080938100809180008160809380008091F1
:1045200091008260809391008091910081608093DE
:104530009100809190008160809390008091C100F3
:1045400084608093C1008091C10082608093C1002B
:104550008091C10081608093C1008091C30081601F
:104560008093C3008091C00082608093C0008091DE
:10457000C20081608093C20080917A008460809341
:104580007A0080917A00826080937A0080917A002C
:10459000816080937A0080917A00806880937A00AD
:1045A00010924B0410920404109203048091D700DF
:1045B00081608093D70080EA8093D80089B58061BC
:1045C00089BD89B5826089BD09B400FEFDCF61E077
:1045D00070E080E090E00E9487038091D8008F7C9B
:1045E00080618093D8008091E000807F8093E0001C
:1045F0008091E1008E7E8093E1008DE08093E20067
:10460000559A209A5D9828988FEF9FEF90936005B8
:1046100080935F05E091C604F091C70482E0808337
:10462000E091C204F091C3041082E091C404F091BF
:10463000C5048FEC80831092CE04E091CA04F091FF
:10464000CB0486E08083E091C804F091C9048081A6
:1046500080618083E091C804F091C9048081886002
:104660008083E091C804F091C904808180688083D0
:10467000E091C804F091C90480818F7D80831091FE
:1046800015016AE070E080E090E00E94870311234A
:10469000B1F385E00E94830286E00E94830260E01D
:1046A00085E00E94F10260E086E00E94F1028091C4
:1046B000B4050E94830261E08091B4050E94F1027A
:1046C0008091B6059091B7058F3F9807C1F00E9481
:1046D000830260E08091B6050E94F1026AE070E01A
:1046E00080E090E00E94870361E08091B6050E941F
:1046F000F1026AE070E080E090E00E9487031FB75B
:10470000F89480910504811124C0E1E0F4E08491E3
:10471000E0E2F4E09491E82FF0E0EE0FFF1FEE519D
:10472000FC4FA591B491EC91E92321F461E081E182
:104730000E94F10281E10E9483028CB580618CBDF0
:104740008CB580648CBD8FE00E94830280E10E9462
:104750008302809105048F5F809305041FBF62E48C
:1047600084EA95E00E94950B823129F082EB93E078
:104770000E947011FFCF40E861E884EA95E00E9452
:10478000700B88E398E6ACEDB9E18093BA0590939D
:10479000BB05A093BC05B093BD054CE666E884EA72
:1047A00095E00E94700B48E767E884EA95E00E9474
:1047B000700B40E068E884EA95E00E94700B40E0EE
:1047C0006EE884EA95E00E94700B40E06FE884EAAE
:1047D00095E00E94700B6CE084EA95E00E94950BD6
:1047E000482F43606CE884EA95E00E94700B44E037
:1047F00066EA84EA95E00E94700B44E86DEC84EA76
:1048000095E00E94700B4BE26BE884EA95E00E9411
:10481000700B4FE869E884EA95E00E94700B41E86C
:1048200061E884EA95E00E94700B43EC61EB84EA56
:1048300095E00E94700B4AE067EB84EA95E00E94E5
:10484000700B6EE184EA95E00E94950B8F70482F03
:10485000406B6EE984EA95E00E94700B0E94980B11
:104860006DE184EA95E00E94950B8F70482F4068B7
:104870006DE984EA95E00E94700B0E94980B6DE14F
:1048800084EA95E00E94950B817F482F42606DE994
:1048900084EA95E00E94700B6EE184EA95E00E9444
:1048A000950B482F44606EE984EA95E00E94700BF6
:1048B00040E060EA84EA95E00E94700B40E161EA22
:1048C00084EA95E00E94700B4BE269EB84EA95E084
:1048D0000E94700B47E86DEC84EA95E00E94700B33
:1048E00041E36BE884EA95E00E94700B4FE869E8C9
:1048F00084EA95E00E94700B88EC93E00E947011AE
:10490000A6E1B1E090E080E020E04D91442309F47D
:1049100049C0E5E7F3E030E0042E000C550B04C07D
:104920003F5F3196303421F0649164171506C1F76A
:1049300041E0420FE1E0F0E0EC0FFD1FE20FF11D5E
:104940003083443059F53A81AC014F5F5F4FFC0131
:10495000E45BFB4F2981220F220F632F62956F705A
:10496000260F20832B812034D9F00296445B5B4FC5
:104970003295307F622F66956695360FFA01308347
:104980003C81303451F0FC01E45BFB4F2295220F57
:10499000220F207C230F2083019640E0242FB5CFE7
:1049A000CA01EECF96E1C92E94E0D92E2EE1B22EA7
:1049B00030E0E32E30E0F32E62E184EA95E00E94DD
:1049C000950B182F1092C1051092C0056DE184EA75
:1049D00095E00E94950B482F4E7F6DE984EA95E0A3
:1049E0000E94700B412F62E984EA95E00E94700BEF
:1049F00016FF33C015FD31C01092BF051092BE05E1
:104A00008091C0059091C10562E2892B09F463E1B0
:104A100084EA95E00E94950B082F10E060E184EA9B
:104A200095E00E94950B482F6DE884EA95E00E947E
:104A3000700B41E861E884EA95E00E94700B012B5D
:104A400001F5E114F10409F4B7CF0E94B9048823F9
:104A500009F4B2CF0E940000AFCF61E084EA95E094
:104A60000E94950B863869F340E06DE884EA95E092
:104A70000E94700B46E861E884EA95E00E94700BA2
:104A8000E0CF88ED93E00E94FA10F6012B2D1192F1
:104A90002A95E9F786E0882E84E0982E8401065056
:104AA000144084EA95E00E94390C892B41F084EA95
:104AB00095E00E941E0CF40181934F01EFCF00930B
:104AC0003404005111091093B5040093B404063066
:104AD000110508F458C080910A0490910B04A0912C
:104AE0000C04B0910D048093AC049093AD04A0939A
:104AF000AE04B093AF0480910E0490910F04A09186
:104B00001004B09111048093A4049093A504A09381
:104B1000A604B093A70488EC95E00E94660DAC0152
:104B20006CE474E088EC95E00E94390D40E150E0BF
:104B300064EA74E088EC95E00E94C7112091B40407
:104B40003091B50446E154E06CE574E088EC95E002
:104B50000E94C10C8DB79EB78F970FB6F8949EBF79
:104B60000FBE8DBFADB7BEB711968FE2E6E0F4E0A1
:104B700001900D928A95E1F70E9473180FB6F89490
:104B8000DEBF0FBECDBF8AEE93E00E94FA106AE14D
:104B900084EA95E00E94950B082F10E06091BA0519
:104BA0007091BB058091BC059091BD050E94FF25C9
:104BB0002AEE36E54AEF5DE40E94F82587FD11C034
:104BC0008DE990E09801281B390BB901032E000CE8
:104BD000880B990B37FF08C00E944F110E940711E4
:104BE00030CF84EA90E0EECF4AE00E940B11F6CF7E
:104BF0000E943A2608F481E00895E89409C097FBE2
:104C00003EF490958095709561957F4F8F4F9F4FA3
:104C10009923A9F0F92F96E9BB279395F6958795E7
:104C200077956795B795F111F8CFFAF4BB0F11F4AA
:104C300060FF1BC06F5F7F4F8F4F9F4F16C0882351
:104C400011F096E911C0772321F09EE8872F762F87
:104C500005C0662371F096E8862F70E060E02AF0C8
:104C60009A95660F771F881FDAF7880F96958795B4
:104C700097F90895990F0008550FAA0BE0E8FEEF89
:104C800016161706E807F907C0F012161306E40710
:104C9000F50798F0621B730B840B950B39F40A2609
:104CA00061F0232B242B252B21F408950A2609F4E7
:104CB000A140A6958FEF811D811D0895A1E21A2EB6
:104CC000AA1BBB1BFD010DC0AA1FBB1FEE1FFF1FB0
:104CD000A217B307E407F50720F0A21BB30BE40B00
:104CE000F50B661F771F881F991F1A9469F7609547
:104CF0007095809590959B01AC01BD01CF01089501
:104D0000052E97FB1EF400940E94972657FD07D0AE
:104D10000E945E2607FC03D04EF40C949726509513
:104D20004095309521953F4F4F4F5F4F0895909597
:104D30008095709561957F4F8F4F9F4F0895EE0F2F
:104D4000FF1F0590F491E02D0994002E083090F09B
:104D5000982F872F762F652F542F432F322F2227FE
:104D60000850F4CF220F331F441F551F661F771FB3
:104D7000881F991F0A95B2F7002D089597FD10948A
:104D8000002E083098F00850232F342F452F562F2F
:104D9000672F782F892F912DF4CF159497958795AC
:104DA0007795679557954795379527950A95AAF76B
:104DB0001124002D08952A153B054C055D056E054F
:104DC0007F058007910708950024A7FD00942A1706
:104DD0003005400550056005700580059005089573
:104DE0000F931F93CF93DF938230910510F482E0ED
:104DF00090E0E0913907F0913A0730E020E0B0E030
:104E0000A0E0309799F42115310509F44AC0281B18
:104E1000390B24303105D8F58A819B8161157105E4
:104E200089F1FB0193838283FE0111C0408151818E
:104E30000281138148175907E0F04817590799F480
:104E4000109761F012960C93129713961C9332965A
:104E5000CF01DF91CF911F910F91089500933907F2
:104E600010933A07F4CF2115310551F0421753073B
:104E700038F0A901DB019A01BD01DF01F801C1CFC2
:104E8000EF01F9CF90933A0780933907CDCFFE0118
:104E9000E20FF31F819391932250310939832883C4
:104EA000D7CF2091370730913807232B41F4209139
:104EB0003101309132013093380720933707209128
:104EC0002F01309130012115310541F42DB73EB746
:104ED0004091330150913401241B350BE091370789
:104EE000F0913807E217F307A0F42E1B3F0B2817A9
:104EF000390778F0AC014E5F5F4F2417350748F053
:104F00004E0F5F1F5093380740933707819391935B
:104F10009FCFF0E0E0E09CCFCF93DF930097E9F0E4
:104F2000FC01329713821282A0913907B0913A079F
:104F3000ED0130E020E01097A1F420813181820F53
:104F4000931F20913707309138072817390709F048
:104F500061C0F0933807E0933707DF91CF91089550
:104F6000EA01CE17DF07E8F54A815B819E01411512
:104F70005105B1F7E901FB83EA8349915991C40FC7
:104F8000D51FEC17FD0761F4808191810296840F93
:104F9000951FE90199838883828193819B838A830A
:104FA000F0E0E0E012968D919C9113970097B9F58F
:104FB0002D913C911197CD010296820F931F209164
:104FC0003707309138072817390739F6309751F5E8
:104FD00010923A0710923907B0933807A093370719
:104FE000BCCFD383C28340815181840F951FC817E2
:104FF000D90761F44E5F5F4F88819981480F591F2F
:10500000518340838A819B8193838283211531055B
:1050100009F0B0CFF0933A07E09339079ECFFD0136
:10502000DC01C0CF13821282D7CF81E090E0F894E8
:105030000C943828FB01DC0102C001900D92415014
:105040005040D8F70895DC0101C06D9341505040A5
:10505000E0F70895FB01DC014150504030F08D91A4
:105060000190801919F40020B9F7881B990B089555
:1050700012E0C8E5D2E004C0FE010E949F262196FE
:0A508000C935D107C9F7F894FFCF36
:10508A00FFFFFFFFBC03BC03BC03BC03BC0300E17E
:10509A00000000000000315047374F69417042312B
:1050AA006E7776502B727A30357041513D3D000053
:1050BA00003B0780000000001B362D6C775A410028
:1050CA00C18081000000781E00A02800F03C00404A
:1050DA005100127A00E4A20024F40048E80190D0BA
:1050EA000320A107AC003501000000000900000000
:1050FA00090000000000EE044F047C043A05AD04E8
:10510A008B049F0400000000DF055A051B061006E9
:10511A0061061F063D0600000000820C470C980C31
:10512A00F70B390C1E0CF80B00000000E0104612B9
:10513A00B903B903D9115110330F860D00000000CD
:10514A00710D3C12660DB903390DC711C80CC10C9B
:10515A00A40C00000000EA105012660DB903390DC4
:10516A00C711C80CC10CA40C656E642D6F662D7333
:10517A00747265616D00696F206572726F72007674
:10518A006172696E74206F766572666C6F770070F3
:10519A006172656E742073747265616D20746F6FCD
:1051AA002073686F72740073697A6520746F6F2058
:1051BA006C6172676500696E76616C6964207769F3
:1051CA0072655F74797065000D0A006172726179A7
:1051DA00206F766572666C6F77006661696C6564CC
:1051EA0020746F207365742064656661756C7473CE
:1051FA0000696E76616C6964206669656C64207406
:10520A00797065006E6F206D616C6C6F63207375C9
:10521A0070706F72740063616C6C6261636B20669C
:10522A0061696C6564007A65726F207461670069F0
:10523A006E76616C696420657874656E73696F6EE9
:10524A000077726F6E672073697A6520666F7220C5
:10525A00666978656420636F756E74206669656C2B
:10526A0064006D697373696E67207265717569721E
:10527A006564206669656C64004661696C656420D2
:10528A00746F206465636F6465004465636F646569
:10529A006420746573745F6E756D6265723A20007E
:1052AA004C65640077726F6E672077697265207447
:1052BA0079706500696E76616C69642064617461F5
:1052CA005F73697A6500696E746567657220746FC9
:1052DA006F206C61726765006279746573206F76FE
:1052EA006572666C6F7700737472696E67206F7689
:1052FA006572666C6F7700696E76616C69642066A8
:10530A0069656C642064657363726970746F720096
:10531A00696E636F7272656374206669786564206A
:10532A006C656E6774682062797465732073697A34
:10533A0065005374617274696E67204C6F52612004
:10534A006661696C656421004C6F526120696E69FF
:10535A007420646F6E6521005265636569766564C1
:10536A00207061636B657420270027207769746851
:08537A002052535349200000AA
:00000001FF
