:100000000C9464010C94490F0C94220F0C94FB0E79
:100010000C94D40E0C948C010C948C010C94AD0EA9
:100020000C948C010C948C010C94700F0C94DF0FC9
:100030000C948C010C948C010C948C010C948C010C
:100040000C948C010C948C010C948C010C948C01FC
:100050000C948C010C948C010C948C010C94630E08
:100060000C948C010C948C010C948C010C948C01DC
:100070000C948C010C948C010C948C010C948C01CC
:100080000C948C010C948C010C948C010C948C01BC
:100090000C948C010C948C010C948C010C948C01AC
:1000A0000C948C010C948C010C948C0100407A10FF
:1000B000F35A00A0724E18090010A5D4E80000E819
:1000C0007648170000E40B54020000CA9A3B000077
:1000D00000E1F505000080969800000040420F0006
:1000E0000000A08601000000102700000000E803C7
:1000F000000000006400000000000A000000000092
:100100000100000000002C76D888DC674F0823DF50
:10011000C1DFAE59E1B1B796E5E3E453C63AE65123
:10012000997696E8E6C28426EB898C9B62ED407C4A
:100130006FFCEFBC9C9F40F2BAA56FA5F490055AE6
:100140002AF75C936B6CF9676DC11BFCE0E40D470B
:10015000FEF520E6B500D0ED902E0300943577052E
:100160000080841E080000204E0A000000C80C33E6
:100170003333330F986E12831141EF8D2114893B75
:10018000E65516CFFEE6DB18D1844B381BF77C1DF5
:10019000901DA4BBE424203284725E228100C9F148
:1001A00024ECA1E53D27080B00020202000009042F
:1001B00000000102020000052400100105240101D5
:1001C000010424020605240600010705810310002E
:1001D0004009040100020A00000007050202400075
:1001E0000007058302400000040309041201000215
:1001F000EF020140412337800001010203014172F7
:100200006475696E6F204C4C430041726475696E71
:100210006F204D6963726F0053656E64207765616E
:1002200074686572207265706F72740053656E64D5
:10023000206120706F736974696F6E0053656E641E
:100240002061206D65737361676500000000020026
:10025000090F0000030401000C0000000000000072
:100260000000000000000000000000000000250069
:1002700028002B002E003100000000002400270081
:100280002A002D00300004040404040304050202C3
:10029000020204030202020206060606060604041F
:1002A00002020204040408020110408040102040B1
:1002B000804080080204018040201002011080105C
:1002C000204040201112241911241FBECFEFDAE084
:1002D000DEBFCDBF26E0A4EEB2E001C01D92AF3973
:1002E000B207E1F712E0A0E0B1E0E8EDF6E402C009
:1002F00005900D92A43EB107D9F711E0C3E6D1E015
:1003000004C02197FE010E94E81DC236D107C9F73B
:100310000E9475130C945F230C940000089590E0E4
:10032000FC01EB55FD4F24918A579D4FFC018491B0
:10033000882399F090E0880F991FFC01E858FD4F41
:10034000A591B491FC01E659FD4F859194918FB729
:10035000F894EC91E22BEC938FBF0895FC0180910F
:100360000303882311F13FB7F89482E08093E900FA
:100370002091F200822F90E01816190614F481E003
:1003800090E0882339F0289A44E640930203409194
:10039000F1004083222339F02091F200211103C0A3
:1003A0002BE62093E8003FBF08958FEF9FEF08955D
:1003B0002FB7F89483E08093E9009091E800892FAB
:1003C000807295FF04C09091F20080E4891B2FBFDA
:1003D00008958091FA0281110DC082E08093F602A7
:1003E00084E08093F7021092F9021092F80281E003
:1003F0008093FA0286EF92E00895282F30E0F90109
:10040000E55BFD4F9491F901EB55FD4F84912A571F
:100410003D4FF9012491222309F430C09923E9F0DA
:1004200091509F30D0F4E92FF0E0E75EFD4F0C943F
:10043000E81D47024B0228023F0243022D022D0213
:100440002D024E02540258025C0262022D02660224
:10045000909180009F7790938000E22FF0E0EE0F64
:10046000FF1FE659FD4FA591B4919FB7F894EC9109
:10047000611132C080958E238C939FBF0895909117
:1004800080009F7DE8CF90918000977FE4CF94B566
:100490009F7794BDE2CF94B59F7DFBCF9091900064
:1004A0009F7790939000D9CF909190009F7DF9CF46
:1004B00090919000977FF5CF9091C0009F77909397
:1004C000C000CBCF9091C0009F7DF9CF9091C2002A
:1004D000977F9093C200C1CF8E2BCECF3FB7F894B9
:1004E0008091F2029091F302A091F402B091F50292
:1004F00026B5A89B05C02F3F19F00196A11DB11D7F
:100500003FBFBA2FA92F982F8827BC01CD01620FBA
:10051000711D811D911D42E0660F771F881F991F75
:100520004A95D1F708958F929F92AF92BF92CF9242
:10053000DF92EF92FF924B015C010E946E026B0111
:100540007C010E946E026C197D098E099F09683E2C
:10055000734081059105A8F321E0821A9108A10852
:10056000B10888EEC80E83E0D81EE11CF11C81148E
:100570009104A104B10429F7FF90EF90DF90CF9090
:10058000BF90AF909F908F900895089508954091E7
:10059000E7025091E8022091E5023091E60242170D
:1005A0005307B4F49091E8009570E1F39091E8005E
:1005B00092FD19C08093F1008091E7029091E802CA
:1005C00001968F739927892B19F48EEF8093E80099
:1005D0008091E7029091E80201969093E80280935F
:1005E000E70281E0089580E00895EF92FF920F9373
:1005F0001F93CF93DF93F82E192FE62E042F81E05F
:10060000860F880F0E94C70283E00E94C702CF2D89
:10061000D12FEC0EFD2EF11CCE15DF05B9F007FF32
:1006200013C0FE0184910E94C702182F80E00E942F
:10063000C702812321968111EFCFDF91CF911F91C6
:100640000F91FF90EF9008958881EDCF81E0F5CF75
:10065000DF92EF92FF920F931F93CF93DF93D82EE9
:100660008A01EB017B01E40EF51ECE15DF0559F082
:10067000D7FE12C0FE0184910E94C702219681110B
:10068000F4CF0FEF1FEFC801DF91CF911F910F91B2
:10069000FF90EF90DF9008958881EECF0F931F9326
:1006A000CF93DF931F92CDB7DEB782E0898342E418
:1006B00050E066EA71E080E80E9428030E94E901A8
:1006C000DC0112960D911C910115110589F0D801DC
:1006D000ED91FC910280F381E02DBE016F5F7F4FB1
:1006E000C801099597FD04C0F80100851185ECCF7C
:1006F00089810F90DF91CF911F910F9108956150E3
:1007000030F02091F100FC0120830196F8CF289A67
:1007100084E68093020308958F929F92AF92BF92D6
:10072000CF92DF92EF92FF920F931F93CF93DF93BD
:100730006C017B018A0180910B01882309F45CC064
:1007400080910303882309F457C08091EB0280FF56
:1007500005C08091E00082608093E000E801B12C48
:100760008AEFA82E93E0892E2AE3922E209711F487
:10077000BB20D9F10E94D80181110AC0AA94AA20F5
:10078000D9F161E070E080E090E00E949302EECF4A
:100790008C171D0611F00CF08C2F9FB7F8948092E7
:1007A000E9002091E80025FD02C09FBFDFCF282F80
:1007B00030E0C21BD30BF701815020F041914093F0
:1007C000F100FACFE20EF31EBB2021F09092E80078
:1007D000B12CEBCF8091E80085FDE7CF9092E80047
:1007E000BB24B394209709F3F3CF5D9A84E68093FA
:1007F000EA02101611063CF081E090E0F6019383C6
:10080000828310E000E0C801DF91CF911F910F912A
:10081000FF90EF90DF90CF90BF90AF909F908F9020
:100820000895CF93DF931F92CDB7DEB76983DC01C4
:10083000ED91FC910280F381E02D41E050E0BE019A
:100840006F5F7F4F09950F90DF91CF91089583E0FF
:100850008093E9008091F200882319F08AE3809365
:10086000E80008950E94D80190E00895CF93DF93A7
:100870001F92CDB7DEB7FC018485958597FD08C032
:100880002FEF3FEF358724870F90DF91CF910895A9
:10089000CE0101960E94AE01019719F4898190E082
:1008A000F3CF8FEF9FEFF0CF0F931F93CF93DF9393
:1008B0001F92CDB7DEB78C01FC018485958597FF2B
:1008C0000BC0CE0101960E94AE01019771F489819F
:1008D00090E0F80195878487F801848595850F90CD
:1008E000DF91CF911F910F9108958FEF9FEFF1CF7F
:1008F000FC018485958597FD0BC09FB7F89482E035
:100900008093E9008091F2009FBF90E001960895E6
:100910009FB7F89482E08093E9008091F2009FBF36
:1009200090E00895CF93CFB7F8948091E4028111BD
:1009300024C0E7E9F2E08491E6EBF2E09491E82F3D
:10094000F0E0EE0FFF1FE858FD4FA591B491EC9138
:10095000E92321F461E081E10E94FD0181E10E942F
:100960008F018CB580618CBD8CB580648CBD8FE0AF
:100970000E948F0180E10E948F018091E4028F5FCD
:100980008093E402CFBFCF9108950F931F93CF932D
:10099000DF93EC01062F142F9C858D859CBD8DBDAA
:1009A00060E088890E94FD010EBD00000DB407FEC5
:1009B000FDCF8EB51EBD00000DB407FEFDCF1EB5E8
:1009C00061E088890E94FD01812FDF91CF911F9105
:1009D0000F910895CF93DF93EC0182319105DCF004
:1009E000459714F0C4E1D0E0239747E86DEC89E720
:1009F00093E00E94C50441E36BE889E793E00E941D
:100A0000C5044C2F4250406869E889E793E0DF91C4
:100A1000CF910C94C504029714F4C2E0D0E044E8EE
:100A20006DEC89E793E00E94C5044BE2E5CF40E01E
:100A30000C94C504CF92DF92EF92FF92CF93DF9395
:100A40006DE189E793E00E94170590E034E0959509
:100A500087953A95E1F78A3091050CF042C0FC0188
:100A6000EE0FFF1FE80FF91FE55CFE4FC080D1803D
:100A7000E2800E2C000CFF086EE189E793E00E94F3
:100A80001705D82F66E289E793E00E941705C82F63
:100A9000D295DF7021E030E040E050E004C0220F4A
:100AA000331F441F551FDA95D2F7C701B6010E94C4
:100AB000C91D68EE73E080E090E00E94C91D2131FD
:100AC00031054105510594F04C2F486066EA89E7ED
:100AD00093E0DF91CF91FF90EF90DF90CF900C9457
:100AE000C504CC24CA94DC2C7601C6CF4C2F477F9A
:100AF000EDCF10929603109295036DE189E793E094
:100B00000E941705482F4E7F6DE989E793E00C940A
:100B1000C50408950F931F93CF93DF93EC01E881F1
:100B2000F9810084F185E02D0995892BB1F06DE004
:100B3000CE010E941705082F60E0CE010E94170524
:100B4000182F402F6DE8CE010E94C504812F90E040
:100B5000DF91CF911F910F9108958FEF9FEFF8CF05
:100B6000CF93DF93EC01E881F9810084F185E02DDA
:100B70000995892B69F08A8D9B8D01969B8F8A8FB1
:100B800060E0CE010E94170590E0DF91CF910895BB
:100B90008FEF9FEFFACFCF93DF93EC0163E10E94D9
:100BA000170590E02A8D3B8D821B930BDF91CF912F
:100BB0000895AF92BF92CF92DF92FF920F931F934F
:100BC000CF93DF936C015B01EA0162E20E9417059B
:100BD000F82E90E09C012C0F3D1F2F3F310529F08E
:100BE00020F0CFEFD0E0C81BD90B8501AC0EBD1EA5
:100BF0000A151B0541F0F80141918F0160E8C6011B
:100C00000E94C504F5CF4C2F4F0D62EAC6010E9429
:100C1000C504CE01DF91CF911F910F91FF90DF901E
:100C2000CF90BF90AF900895CF93DF931F92CDB731
:100C3000DEB76983DC01ED91FC910280F381E02D48
:100C400041E050E0BE016F5F7F4F09950F90DF914B
:100C5000CF91089590E080E008950F931F93CF9374
:100C6000DF93EC018B0161E089E793E00E941705B7
:100C70008370833009F162E189E793E00E941705F0
:100C800083FF06C048E062E989E793E00E94C5045B
:100C900041E861E889E793E00E94C5040E94790574
:100CA00040E06DE889E793E00E94C50440E062EA15
:100CB00089E793E00E94C5046CE389E793E00E9412
:100CC00014066FEF89E793E00E94140661E089E75C
:100CD00093E00E941406A801BE0189E793E00E94F8
:100CE000D90543E861E889E793E00E94C50462E121
:100CF00089E793E00E94170583FFF9CF48E062E996
:100D000089E793E0DF91CF911F910F910C94C50477
:100D100042E050E063E971E084E093E00C948C03DE
:100D2000CF93DF93D0E0C0E0009771F0FC01019019
:100D30000020E9F73197AF01481B590BBC0184E053
:100D400093E00E948C03EC010E9488068C0F9D1F8B
:100D5000DF91CF9108950F931F93CF93DF938C0171
:100D6000D0E0C0E0F801EC0FFD1F6491662341F074
:100D700084E093E00E941104892B11F02196F2CFB8
:100D80000E9488068C0F9D1FDF91CF911F910F91BC
:100D900008950F931F93CF93DF93FC010481158176
:100DA0000115110539F4FB011082DF91CF911F91DC
:100DB0000F910895415051094017510708F48A01D5
:100DC000EB01FC0160817181A801CE010E94A2208B
:100DD000C00FD11F1882E9CF0F931F93CF93DF93DA
:100DE0008C01EB01FC01808191810097E1F0688129
:100DF000798161157105A9F0428153812C813D8172
:100E00004217530770F00E949B208C819D81F8014E
:100E1000958384831D821C82DF91CF911F910F9156
:100E200008950E94411F88819981F80191838083F0
:100E30008A819B81938382838C819D819583848326
:100E4000198218821B821A82E5CFCF93DF93EC01BF
:100E500088819981009711F00E94411F19821882A0
:100E60001D821C821B821A82DF91CF910895FC01A2
:100E700080819181009711F00C94411F0895CF93C8
:100E8000DF93EC0187E291E099838883CE014A9653
:100E90000E943707CE0144960E943707CE010E9676
:100EA0000E943707CE0108960E943707CE010296AE
:100EB000DF91CF910C943707CF93DF93EC0187E359
:100EC00091E099838883CE0187539F4F0E94370713
:100ED000CE0181960E943707CE014B960E943707BC
:100EE000CE014596DF91CF910C9437072FE231E088
:100EF000FC01318320830C945C07CF93DF93EC01DA
:100F00000E947607CE01DF91CF910C94411FCF93C1
:100F1000DF93EC010E943F07CE01DF91CF910C944B
:100F2000411F0C94411FCF93DF93EC010E945C079B
:100F3000CE01DF91CF910C94411F0F931F93CF935C
:100F4000DF93EC0188819981009759F02A813B81D8
:100F50002617370730F081E0DF91CF911F910F9175
:100F600008958B016F5F7F4F0E94CA1F009759F051
:100F7000998388831B830A832C813D81232B59F716
:100F8000FC011082E8CF80E0E7CFEF92FF920F9351
:100F90001F93CF93DF936115710541F480E0DF91DA
:100FA000CF911F910F91FF90EF900895411551053A
:100FB000B1F07B01EC010C811D81040F151FB801FC
:100FC0000E949D07882351F3288139818C819D815E
:100FD000B701820F931F0E949B201D830C8381E029
:100FE000DECFCF93DF93EC01FB0101900020E9F706
:100FF0003197AF01461B570B0E94C507811103C0F3
:10100000CE010E942507CE01DF91CF910895CF93A5
:10101000DF93EC01FB0144815581608171810E9465
:10102000C507811103C0CE010E942507CE01DF91C3
:10103000CF910895EF92FF920F931F93CF93DF9379
:10104000EC017B018A01BA010E949D0781110BC04E
:10105000CE010E942507CE01DF91CF911F910F9104
:10106000FF90EF9008951D830C83B70188819981CB
:101070000E949B20F0CFCF93DF93EC0161157105A7
:1010800071F0FB0101900020E9F73197AF01461B99
:10109000570B0E941A08CE01DF91CF9108950E944C
:1010A0002507F9CFCF93DF93EC01FB018617970754
:1010B00049F0608171816115710541F0448155816C
:1010C0000E941A08CE01DF91CF9108950E94250752
:1010D000F9CFBC0188ED94E00C945208FC01118218
:1010E000108213821282158214820C945208AF92DD
:1010F000BF92CF92DF92EF920F931F93CF93DF9324
:10110000EC015A01690187E391E099838883CE015C
:1011100045960E946E08B501CE014B960E946E085E
:10112000B601CE0181960E946E088CE79AE0A0E499
:10113000B2E48FA398A7A9A7BAA788EA97E3A3E583
:10114000BEE38BA79CA7ADA7BEA78FE28FA7E8AA97
:10115000B801CE0187539F4F0E946E08C153DF4FE5
:1011600019821882DF91CF911F910F91EF90DF903C
:10117000CF90BF90AF900895CF92DF92EF92FF9201
:101180000F931F93CF93DF936B017A01E90127E25D
:1011900031E03093020520930105BC0183E095E026
:1011A0000E946E08B60189E095E00E946E08B701C2
:1011B0008FE095E00E946E08BE0185E195E00E94F7
:1011C0006E08B8018BE195E00E946E0881E090E026
:1011D0009093BA058093B905DF91CF911F910F913C
:1011E000FF90EF90DF90CF900895FC011182108264
:1011F0001382128215821482FB0101900020E9F70C
:101200003197AF01461B570B0C941A08FF920F93AE
:101210001F93CF93DF9300D000D000D0CDB7DEB7BF
:10122000BC018BE195E00E94520880911F059091CE
:10123000200584349105A8F165E971E0CE0101969D
:101240000E94F50800911F05109120050115110558
:10125000E9F00334110510F003E410E0E0911B0500
:10126000F0911C05E00FF11FF080108260911B05CA
:1012700070911C05CE0101960E943B0880911B05D0
:1012800090911C05080F191FF801F082BE016F5FD5
:101290007F4F8BE195E00E94EC06CE0101960E9403
:1012A000370726960FB6F894DEBF0FBECDBFDF918D
:1012B000CF911F910F91FF900895FF920F931F936D
:1012C000CF93DF9300D000D000D0CDB7DEB7BC0104
:1012D00085E195E00E94520865E971E0CE01019632
:1012E0000E94F5080091190510911A0501151105C4
:1012F000E9F00930110510F009E010E0E091150562
:10130000F0911605E00FF11FF08010826091150535
:1013100070911605CE0101960E943B08809115053B
:1013200090911605080F191FF801F082BE016F5F3A
:101330007F4F85E195E00E94EC06CE0101960E9468
:10134000370726960FB6F894DEBF0FBECDBFDF91EC
:10135000CF911F910F91FF900895CF92DF92EF925E
:10136000FF920F931F93CF93DF93CDB7DEB76897AC
:101370000FB6F894DEBF0FBECDBF8C017B016A01B2
:1013800065E971E0CE0101960E94F508B601CE0133
:1013900007960E946E08B701CE010D960E946E0856
:1013A000B801CE0143960E946E088FE5E82E8E01AB
:1013B0000F5F1F4F9E01295F3F4FAE01435F5F4F9D
:1013C000BE016D5E7F4F8FE094E00E947708CE01F2
:1013D00043960E943707CE010D960E943707CE0133
:1013E00007960E943707C8010E9437078FE291E0F5
:1013F0009093100480930F041092F0041092EF0465
:101400001092F2041092F1041092F4041092F3047A
:101410001092F6041092F5041092F8041092F7045A
:101420001092FA041092F9041092FC041092FB043A
:101430001092FE041092FD04109200051092FF0419
:1014400068960FB6F894DEBF0FBECDBFDF91CF9187
:101450001F910F91FF90EF90DF90CF9008953F92F2
:101460004F925F926F927F928F929F92AF92BF92B4
:10147000CF92DF92EF92FF920F931F93CF93DF9360
:10148000CDB7DEB728970FB6F894DEBF0FBECDBF3D
:101490007C01FC0183A494A4A5A4B6A420E030E0C0
:1014A000A901C501B4010E94C61B87FF66C0B7FA37
:1014B000B094B7F8B09497E5392EC501B4010E94F5
:1014C0008E1D2B016B01072E000C880B990B0E94BF
:1014D000CD1B9B01AC01C501B4010E94211D20E080
:1014E00030E040E752E40E942C1C9E012F5F3F4FEA
:1014F0005901890122E045E00E943019898180323A
:1015000011F480E389838981863331F480E3898310
:1015100062013FEFC31AD30A1F923F92BF92AF926C
:10152000DF92CF9286E991E09F938F931F928AE09A
:101530008F938BE0E80EF11CFF92EF920E94B12096
:101540000FB6F894DEBF0FBECDBF28960FB6F89445
:10155000DEBF0FBECDBFDF91CF911F910F91FF90E6
:10156000EF90DF90CF90BF90AF909F908F907F9043
:101570006F905F904F903F90089585E4382E9DCFF7
:101580003F924F925F926F927F928F929F92AF9213
:10159000BF92CF92DF92EF92FF920F931F93CF9360
:1015A000DF93CDB7DEB728970FB6F894DEBF0FBE36
:1015B000CDBF7C01FC0187A090A4A1A4B2A420E02F
:1015C00030E0A901C501B4010E94C61B87FF66C0B7
:1015D000B7FAB094B7F8B09493E5392EC501B401C9
:1015E0000E948E1D2B016B01072E000C880B990B9E
:1015F0000E94CD1B9B01AC01C501B4010E94211DBD
:1016000020E030E040E752E40E942C1C9E012F5F56
:101610003F4F5901890122E045E00E94301989813C
:10162000803211F480E389838981863331F480E349
:10163000898362013FEFC31AD30A1F923F92BF9280
:10164000AF92DF92CF928FE991E09F938F931F9299
:1016500089E08F9382E0E80EF11CFF92EF920E94E6
:10166000B1200FB6F894DEBF0FBECDBF28960FB6DF
:10167000F894DEBF0FBECDBFDF91CF911F910F91C8
:10168000FF90EF90DF90CF90BF90AF909F908F90A2
:101690007F906F905F904F903F9008958EE4382E2A
:1016A0009DCF2F923F924F925F926F927F928F9237
:1016B0009F92AF92BF92CF92DF92EF92FF920F93E1
:1016C0001F93CF93DF93CDB7DEB7C85FD1090FB6B5
:1016D000F894DEBF0FBECDBF9E012F503F4FCB50C1
:1016E000DF4F39832883C55FD04080911B029091E2
:1016F0001C02A0911D02B0911E02CF50DF4F8883C3
:101700009983AA83BB83C15FD0401E013DEE230EA7
:10171000311CF10180839183A283B3833E01F4EEF7
:101720006F0E711C85E0EBEFF1E0D30101900D929B
:101730008A95E1F78E0101521F4F85E0E0E0F2E06B
:10174000D80101900D928A95E1F77E012AEDE20E13
:10175000F11C85E0E5E0F2E0D70101900D928A9559
:10176000E1F76E0135EDC30ED11C85E0EAE0F2E051
:10177000D60101900D928A95E1F75E0180EDA80EE9
:10178000B11C85E0EFE0F2E0D50101900D928A9561
:10179000E1F72E0199EE490E511C809114029091AF
:1017A0001502A0911602B0911702F2018083918375
:1017B000A283B3834E01F3EC8F0E911C87E0E8E126
:1017C000F2E0D40101900D928A95E1F78091EF0447
:1017D0009091F0048F3F9807E1F09F938F9380ECF6
:1017E00092E09F938F931F9284E08F93CA50DF4FB4
:1017F0003881C65FD0403F93CB50DF4F8881C55FB3
:10180000D0408F930E94B1200FB6F894DEBF0FBE78
:10181000CDBF2091F1043091F204C950DF4F3983DC
:101820002883C75FD040B901330F880B990B0E9402
:10183000CD1B9B01AC010E94C41D81111CC0C8506E
:10184000DF4F3881C85FD0403F93C950DF4F888158
:10185000C75FD0408F9380EC92E09F938F931F924D
:1018600084E08F933F922F920E94B1200FB6F8949C
:10187000DEBF0FBECDBF2091F3043091F404C950F8
:10188000DF4F39832883C75FD040B901330F880BFE
:10189000990B0E94CD1B9B01AC010E94C41D8111BC
:1018A0001CC0C850DF4F3881C85FD0403F93C9503B
:1018B000DF4F8881C75FD0408F9388EA91E09F9384
:1018C0008F931F9285E08F937F926F920E94B12039
:1018D0000FB6F894DEBF0FBECDBF2091F504309156
:1018E000F604C950DF4F39832883C75FD040B90160
:1018F000330F880B990B0E94CD1B9B01AC010E94FA
:10190000C41D81111CC0C850DF4F3881C85FD04052
:101910003F93C950DF4F8881C75FD0408F938EEAD5
:1019200091E09F938F931F9285E08F931F930F9366
:101930000E94B1200FB6F894DEBF0FBECDBF20913C
:10194000F7043091F804C950DF4F39832883C75F0B
:10195000D040B901330F880B990B0E94CD1B9B011E
:10196000AC010E94C41D81111CC0C850DF4F3881DA
:10197000C85FD0403F93C950DF4F8881C75FD040D8
:101980008F9384EB91E09F938F931F9285E08F93C9
:10199000FF92EF920E94B1200FB6F894DEBF0FBE07
:1019A000CDBF2091F9043091FA04C950DF4F39833B
:1019B0002883C75FD040B901330F880B990B0E9471
:1019C000CD1B9B01AC010E94C41D81111CC0C850DD
:1019D000DF4F3881C85FD0403F93C950DF4F8881C7
:1019E000C75FD0408F938AEB91E09F938F931F92B4
:1019F00085E08F93DF92CF920E94B1200FB6F894CA
:101A0000DEBF0FBECDBF2091FB043091FC04C95056
:101A1000DF4F39832883C75FD040B901330F880B6C
:101A2000990B0E94CD1B9B01AC010E94C41D81112A
:101A30001CC0C850DF4F3881C85FD0403F93C950A9
:101A4000DF4F8881C75FD0408F9380EC91E09F93F8
:101A50008F931F9285E08F93BF92AF920E94B12027
:101A60000FB6F894DEBF0FBECDBF2091FD043091BC
:101A7000FE04C950DF4F39832883C75FD040B901C6
:101A8000330F880B990B0E94CD1B9B01AC010E9468
:101A9000C41D81111CC0C850DF4F3881C85FD040C1
:101AA0003F93C950DF4F8881C75FD0408F9386EC4A
:101AB00091E09F938F931F9284E08F935F924F9258
:101AC0000E94B1200FB6F894DEBF0FBECDBF2091AB
:101AD000FF0430910005C950DF4F39832883C75F69
:101AE000D040B901330F880B990B0E94CD1B9B018D
:101AF000AC010E94C41D81111CC0C850DF4F388149
:101B0000C85FD0403F93C950DF4F8881C75FD04046
:101B10008F938CEC91E09F938F931F9287E08F932C
:101B20009F928F920E94B1200FB6F894DEBF0FBE35
:101B3000CDBF9F928F925F924F92BF92AF92DF92F2
:101B4000CF92FF92EF921F930F937F926F923F92EB
:101B50002F92CA50DF4FF881C65FD040FF93CB5021
:101B6000DF4F2881C55FD0402F9382ED91E09F9396
:101B70008F931F9284E68F93CE0101966C019F9301
:101B80008F930E94B1208FE094E00E94C00A8FE002
:101B900094E00E942F0A7E0197E9E90EF11C4BE2C6
:101BA00050E0B70188ED94E00E94C90665E971E054
:101BB000CE0186539F4F0E94F5088E010B591F4F8F
:101BC00064E274E0C8010E946E0866EE71E0C8012C
:101BD0000E94F1076AE274E00E94070868EE71E073
:101BE0000E94F10760E374E00E940708BC01CE0187
:101BF00086539F4F0E945208C8010E94370742E354
:101C000050E0B801CE0186539F4F0E94C906FF9253
:101C1000EF92DF92CF9280913F04282F082E000C84
:101C2000330B3F938F938AE194E09F938F9380913E
:101C30003E04282F082E000C330B3F938F9381E135
:101C400094E09F938F931F930F938AEE91E09F935D
:101C50008F931F9286E98F9300E414E01F930F93F4
:101C60000E94B120F80101900020E9F78F01015492
:101C700014401093D7040093D6040FB6F894DEBF37
:101C80000FBECDBFCE0186539F4F0E94370780E421
:101C900094E0C850DF4F0FB6F894DEBF0FBECDBF43
:101CA000DF91CF911F910F91FF90EF90DF90CF9038
:101CB000BF90AF909F908F907F906F905F904F906C
:101CC0003F902F9008951F920F920FB60F921124FC
:101CD0002F933F938F939F93AF93BF938091EE0287
:101CE0009091EF02A091F002B091F1023091ED02DB
:101CF00023E0230F2D3758F50196A11DB11D209328
:101D0000ED028093EE029093EF02A093F002B09365
:101D1000F1028091F2029091F302A091F402B0914D
:101D2000F5020196A11DB11D8093F2029093F3027A
:101D3000A093F402B093F502BF91AF919F918F9160
:101D40003F912F910F900FBE0F901F90189526E88E
:101D5000230F0296A11DB11DD2CF1F920F920FB675
:101D60000F9211242F933F934F935F936F937F9321
:101D70008F939F93AF93BF93EF93FF93E0911401E1
:101D8000F09115010995FF91EF91BF91AF919F914E
:101D90008F917F916F915F914F913F912F910F9014
:101DA0000FBE0F901F9018951F920F920FB60F92B3
:101DB00011242F933F934F935F936F937F938F9350
:101DC0009F93AF93BF93EF93FF93E0911201F09134
:101DD00013010995FF91EF91BF91AF919F918F9161
:101DE0007F916F915F914F913F912F910F900FBE17
:101DF0000F901F9018951F920F920FB60F921124FB
:101E00002F933F934F935F936F937F938F939F9302
:101E1000AF93BF93EF93FF93E0911001F091110105
:101E20000995FF91EF91BF91AF919F918F917F9114
:101E30006F915F914F913F912F910F900FBE0F9037
:101E40001F9018951F920F920FB60F9211242F9387
:101E50003F934F935F936F937F938F939F93AF9332
:101E6000BF93EF93FF93E0910E01F0910F0109955D
:101E7000FF91EF91BF91AF919F918F917F916F9162
:101E80005F914F913F912F910F900FBE0F901F9038
:101E900018951F920F920FB60F9211242F933F9314
:101EA0004F935F936F937F938F939F93AF93BF9362
:101EB000EF93FF93E0910C01F0910D010995FF91D3
:101EC000EF91BF91AF919F918F917F916F915F91B2
:101ED0004F913F912F910F900FBE0F901F9018952B
:101EE0001F920F920FB60F9211248F939F938091A0
:101EF000E1009091E100937F9093E10083FF0FC098
:101F00001092E90091E09093EB001092EC0092E3C4
:101F10009093ED001092030398E09093F00082FFFD
:101F200022C093E09093E9009091F200992319F078
:101F30009AE39093E8009091EA02992341F09091FE
:101F4000EA0291509093EA02911101C05D9890913C
:101F50000203992341F09091020391509093020360
:101F6000911101C0289884FF18C08091E2008E7EF4
:101F700081608093E2008091E1008F7E8093E10098
:101F80008091EB028E7E80618093EB029F918F9116
:101F90000F900FBE0F901F90189580FFF7CF809184
:101FA000E2008E7E80618093E2008091E1008E7E6F
:101FB0008093E1008091EB028E7E8160E5CF1F92DD
:101FC0000F920FB60F921124CF92DF92EF92FF92F1
:101FD0000F931F932F933F934F935F936F937F9331
:101FE0008F939F93AF93BF93EF93FF93CF93DF9321
:101FF000CDB7DEB76C97DEBFCDBF1092E900809100
:10200000E80083FF25C068E0CE0145960E947F036B
:1020100082EF8093E8008D8987FF39C09091E800B6
:1020200090FFFCCF982F907609F034C19E894F899C
:10203000588D2F89F88C911131C0803861F58091CD
:10204000EC028093F1001092F1008EEF8093E80093
:102050006C960FB6F894DEBF0FBECDBFDF91CF9167
:10206000FF91EF91BF91AF919F918F917F916F9170
:102070005F914F913F912F911F910F91FF90EF90A2
:10208000DF90CF900F900FBE0F901F9018959EEF8E
:102090009093E800C7CF1092F100D5CF913059F45A
:1020A0008111D3CF4130510581F68091EC028D7FB3
:1020B0008093EC02CACF933049F48111C6CF4130EE
:1020C000510519F68091EC028260F2CF953041F40F
:1020D0008091E80080FFFCCF20682093E300B5CF1B
:1020E000963009F0A9C00B8D1C8D22E01092E900FA
:1020F0001092E8021092E702F2122EC01092E6024D
:102100001092E5020E944E031F8299E09983FA82A1
:1021100091E09E8390EA98879AEF99872091E70251
:102120003091E802275F3F4F3C832B838D831092D1
:10213000E9001092E8021092E7021093E602009381
:10214000E50249E050E0BE016F5F7F4F80E00E94F2
:1021500028030E944E0379CF1093E6020093E50214
:102160000E94E901DC0112960D911C9101151105E7
:1021700009F451C1D801ED91FC910480F581E02D65
:10218000BE016B5E7F4FC8010995009709F03EC103
:10219000F80100851185EACFF3E0FF120EC08F89A8
:1021A000882309F440C0823061F440E86DE08AE0A1
:1021B00092E00E94F502811148CF81E28093EB000A
:1021C00047CF813029F440E86BE08EEF91E0F1CF0A
:1021D000833099F70E94E901DC011296ED90FC90A2
:1021E0008E010F5F1F4F6801E114F10479F0D701F0
:1021F000ED91FC910680F781E02DB801C7010995AA
:10220000080F111DF701E084F184EECFD8011C9274
:10221000F60101900020E9F73197BF016C197D09A3
:1022200040E0C601C6CF68EE71E0FB01449150E08A
:1022300080E80E94280309CF973009F4BECF983078
:1022400021F481E08093F10000CF993009F0FDCEB8
:10225000837009F0B2CFEDE1F1E081E031E096E387
:102260002191222371F08093E9003093EB00DF018C
:1022700011972C912093EC009093ED008F5F8730A5
:1022800079F78EE78093EA001092EA008F898093B5
:102290000303DBCE8B8D9C8D1092E9001092E80237
:1022A0001092E7029093E6028093E502898D8111F6
:1022B00092C08E899D89913A49F4813209F07DCF8F
:1022C00047E050E064E071E080E0B3CF913209F084
:1022D00074CF833269F48F89988DB0E0A0E0809349
:1022E000000190930101A0930201B0930301ADCED0
:1022F000803269F48091E80082FFFCCF67E084E0DF
:1023000091E00E947F038BEF8093E8009ECE8232A3
:1023100009F09BCE8F8980930B01EEEFFFE785914B
:1023200094918B3F9C4D51F1E0E0F8E080910401E5
:1023300090910501A0910601B0910701803B944066
:10234000A105B105F1F480910B0180FD1AC0EE3FAB
:102350008AE0F80789F587E797E791838083809182
:1023600060008093E90288E19BE00FB6F894A8959D
:10237000809360000FBE9093600067CEEEEFFAE0AE
:10238000D5CF808191818737974709F05ECEA89598
:10239000809160008861809360008091E902809361
:1023A0006000EE3F2AE0F20789F08091FE0A9091EA
:1023B000FF0A9183808349CE808191818737980776
:1023C00051F29093FF0A8093FE0AC5CF1092FF0A44
:1023D0001092FE0A3ACE0E94E901DC0112960D919C
:1023E0001C910115110509F4E8CED801ED91FC917D
:1023F0000190F081E02DBE016B5E7F4FC801099511
:10240000811123CEF80100851185EBCF181619062E
:102410000CF41BCED2CEF1E0FF12BECE6CEE71E01A
:1024200004CF5F926F927F928F929F92AF92BF92F2
:10243000CF92DF92EF92FF920F931F93CF93DF9390
:10244000CDB7DEB76E970FB6F894DEBF0FBECDBF27
:10245000E4E0F3E01382128288EE93E0A0E0B0E0C3
:1024600084839583A683B7838DE591E091838083F0
:102470008FEF9FEF95878487E4E5F3E01382128264
:102480008FE691E09183808380E5582E5486FF2467
:10249000F394F58698E7692E93E0792E7786668621
:1024A0002AE0822E912C918A808A39E0A32EB12CC9
:1024B000B38AA28A42E0C42ED12CD58AC48A168A55
:1024C000178A108E118E138E128E158E148E178E03
:1024D000168E11A210A213A212A2148215821682C5
:1024E00017826FE172E0CE0143960E94F50866E222
:1024F00072E0CE010D960E94F5086EE272E0CE0108
:1025000007960E94F50865E372E0CE0101960E94ED
:10251000F5085FE4E52E8E010D5E1F4F9E01235FDF
:102520003F4FAE01495F5F4FBE016F5F7F4F8BEB47
:1025300095E00E947708CE0101960E943707CE01F0
:1025400007960E943707CE010D960E943707C801F3
:102550000E9437076DE372E0CE0149960E94F508AC
:1025600063E472E0C8010E94F50866E272E0CE0101
:102570000D960E94F5086EE272E0CE0107960E9469
:10258000F5086DE472E0CE0101960E94F5080A5F3D
:102590001F4F9E012D5E3F4FAE01435F5F4FBE0157
:1025A000695F7F4FCE0101960E94BC08CE01019663
:1025B0000E943707CE0107960E943707CE010D967D
:1025C0000E943707CE0143960E943707C8010E9438
:1025D000370766E272E0CE010D960E94F5086EE2C2
:1025E00072E0CE0107960E94F50865E572E0CE0123
:1025F00001960E94F508AE01435F5F4FBE01695F1F
:102600007F4FCE0101960E94AD09CE0101960E9436
:102610003707CE0107960E943707CE010D960E941C
:102620003707E9E7F3E0138212825486F58677864E
:102630006686918A808AB38AA28AD58AC48A168AD3
:10264000178A108E118E138E128E158E148E178E81
:10265000168E11A210A213A212A214821582168243
:10266000178281E891E09183808388E991EEAAED59
:10267000B9E18093010490930204A0930304B09302
:1026800004048CE090E0909306048093050488E4B1
:1026900098EEA1E0B0E08093070490930804A09323
:1026A0000904B0930A0485E090E090930C048093B1
:1026B0000B0484E190E090930E0480930D046E96D9
:1026C0000FB6F894DEBF0FBECDBFDF91CF911F9143
:1026D0000F91FF90EF90DF90CF90BF90AF909F90C1
:1026E0008F907F906F905F900895CF93DF93CDB7D9
:1026F000DEB7C651D1400FB6F894DEBF0FBECDBFD6
:10270000789484B5826084BD84B5816084BD85B5CC
:10271000826085BD85B5816085BD80916E008160D8
:1027200080936E001092810080918100826080937E
:102730008100809181008160809381008091800080
:1027400081608093800080919100826080939100ED
:1027500080919100816080939100809190008160D0
:10276000809390008091C10084608093C10080912B
:10277000C10082608093C1008091C100816080931C
:10278000C1008091C30081608093C3008091C0002C
:1027900082608093C0008091C20081608093C200FB
:1027A00080917A00846080937A0080917A008260C0
:1027B00080937A0080917A00816080937A00809182
:1027C0007A00806880937A00109203031092EC02E2
:1027D0001092EB028091D70081608093D70080EA4D
:1027E0008093D80089B5806189BD89B5826089BD33
:1027F00009B400FEFDCF61E070E080E090E00E944F
:1028000093028091D8008F7C80618093D800809162
:10281000E000807F8093E0008091E1008E7E8093D5
:10282000E1008DE08093E200559A209A5D98289807
:102830008FEF9FEF909311038093100385E00E9428
:102840008F0186E00E948F0168E873E180E090E0EC
:102850000E9493028DE592E00E9490060E949204ED
:102860008BE692E00E9490068AE090E090938A03C3
:102870008093890389E090E090938C0380938B038D
:1028800087E090E090938E0380938D038AE792E037
:102890000E949006609101047091020480910304EB
:1028A000909104043E0127E9620E711CD301119638
:1028B0001C921E9213961C921E92129715961C92B1
:1028C0001E9214972AE0FE0131964F01AF010E943B
:1028D0004E19F40101900020E9F73197AF01481932
:1028E0005909B401C3010E941A08D30114964D91ED
:1028F0005C9115976D917C9184E093E00E948C032C
:102900000E948806C3010E943707C0900104D0903E
:102910000204E0900304F0900404809189030E9473
:102920008F0161E0809189030E94FD0180918B03FA
:1029300090918C038F3F9807C1F00E948F0160E057
:1029400080918B030E94FD016AE070E080E090E0DE
:102950000E94930261E080918B030E94FD016AE076
:1029600070E080E090E00E9493020E94920462E492
:1029700089E793E00E941705823129F086E892E00A
:102980000E949006FFCF40E861E889E793E00E944B
:10299000C504C0928F03D0929003E0929103F0920D
:1029A000920316012701550C2208322C21019601B1
:1029B000A701622D722D822D922D03E10E944D1EE2
:1029C000A12CE8E4BE2EF8EECF2EDD24D394E12C2A
:1029D000F12C00E010E00E94F01D122F532E5A013E
:1029E0006B017C0100E10E94681E422F66E889E7C6
:1029F00093E00E94C504212F352DA501B601C70122
:102A000008E00E94681E422F67E889E793E00E9471
:102A1000C504412F68E889E793E00E94C50440E0BF
:102A20006EE889E793E00E94C50440E06FE889E71B
:102A300093E00E94C5046CE089E793E00E941705CB
:102A4000482F43606CE889E793E00E94C50444E0A6
:102A500066EA89E793E00E94C50481E190E00E9464
:102A6000EA0441E861E889E793E00E94C504009127
:102A7000050410910604063011050CF0ECC145EC7C
:102A800061EB89E793E00E94C5044CE067EB89E7BE
:102A900093E00E94C50406E010E06EE189E793E050
:102AA0000E9417058F7044E0000F111F4A95E1F74F
:102AB000482F402B6EE989E793E00E94C5040E94ED
:102AC0001A0560910704709108048091090490919F
:102AD0000A040E94CD1B6B017C0120E030EC43EF27
:102AE00055E40E94C61B10E000E018160CF065C00B
:102AF00020E030E842E256E4C701B6010E94C61B5E
:102B000001E010E018160CF058C020E030EC43E76C
:102B100056E4C701B6010E94C61B02E010E0181679
:102B20000CF04BC020E030E842EA56E4C701B601A1
:102B30000E94C61B03E010E018160CF03EC020E017
:102B400034E244EF56E4C701B6010E94C61B04E01C
:102B500010E0181694F520E034EE42E257E4C70185
:102B6000B6010E94C61B05E010E0181634F520E0FF
:102B700034E244E757E4C701B6010E94C61B06E0F1
:102B800010E01816D4F420E034E244EF57E4C70113
:102B9000B6010E94C61B07E010E0181674F420E08E
:102BA00034E244E758E4C701B6010E94C61B09E0BD
:102BB00010E0181614F008E010E06DE189E793E0EA
:102BC0000E9417058F7034E0000F111F3A95E1F74E
:102BD000482F402B6DE989E793E00E94C5040E94CD
:102BE0001A0500910B0410910C040930110514F022
:102BF00008E010E00530110514F405E010E0045081
:102C000011096DE189E793E00E941705817FA80112
:102C1000440F551F482B6DE989E793E00E94C504D6
:102C20006EE189E793E00E941705482F44606EE942
:102C300089E793E00E94C50480910D0490910E04F1
:102C40000E94EA048CE992E00E9490067E01E9EC81
:102C5000EE0EF11C6E01FBEFCF0ED11C5E012BEFCF
:102C6000A21A2EEFB20A28EA222E27E3322E23E5FB
:102C7000422E2EE3522EAE014C5F5F4FCD5EDE4FF3
:102C800059834883C351D14062E189E793E00E94B0
:102C90001705182F0E947905412F62E989E793E013
:102CA0000E94C50416FFEEC015FDECC010929403FF
:102CB00010929303809195039091960362E2892B81
:102CC00009F463E189E793E00E941705082F10E0FB
:102CD00060E189E793E00E941705482F6DE889E7D6
:102CE00093E00E94C50441E861E889E793E00E940F
:102CF000C504012B09F0DBC084E093E00E94780456
:102D0000181619060CF09FC084E093E00E94360468
:102D1000182F61E085E00E94FD01103709F444C1DD
:102D2000173709F43DC21D3609F089C08CE392E0E3
:102D30000E94AB0663E472E0C4010E94F508C4017E
:102D40000E945D09C4010E9437076CEA72E0C40169
:102D50000E94F508C4010E940609C4010E943707B9
:102D600065E971E0C3010E94F50863E075E0C40104
:102D70000E946E0866EE71E0C4010E94F10769E0EE
:102D800075E00E94070868EE71E00E94F1076FE0AD
:102D900075E00E94070868EB72E00E94F10765E1A8
:102DA00075E00E94070869EB72E00E94F1076BE191
:102DB00075E00E940708BC01C3010E945208C401CB
:102DC0000E94370746E950E0B401C3010E94C906DA
:102DD0008091B9059091BA0501969093BA058093B8
:102DE000B9059F928F9289ED92E09F938F931F92E6
:102DF00086E98F9301E215E01F930F930E94B120A3
:102E0000F80101900020E9F78F010252154010935C
:102E1000B8050093B705C3010E94370781E295E02A
:102E20000E9490066091B7057091B80581E295E027
:102E30000E942D060FB6F894DEBF0FBECDBF60E036
:102E400085E00E94FD0180E090E0892B09F41CCF11
:102E50000E94000010CF0D3011058CF406301105D2
:102E600009F40DCE43EC61EB89E793E00E94C504C1
:102E70004AE067EB89E793E00E94C5040ECE0CE0C0
:102E800010E0F0CF61E089E793E00E9417058638F3
:102E900009F432CF40E06DE889E793E00E94C50471
:102EA00046E861E889E793E00E94C50425CF8401E4
:102EB0002FB7F8948091EE029091EF02A091F0026A
:102EC000B091F1022FBF8093810390938203A0936E
:102ED0008303B093840389E793E00E94B00597FFD2
:102EE000A5C12FB7F8948091EE029091EF02A091C6
:102EF000F002B091F1022FBF409181035091820303
:102F00006091830370918403841B950BA60BB70B10
:102F100040917D0350917E0360917F037091800307
:102F200084179507A607B707B0F289818C3339F566
:102F30008DE993E0CB5EDE4F99838883C551D14004
:102F400010E000E089E793E00E94CB05892B19F19E
:102F50000336110501F189E793E00E94B005CB5ECD
:102F6000DE4FA881B981C551D1408D93CB5EDE4F34
:102F7000B983A883C551D1400F5F1F4FE3CF89E7C5
:102F800093E00E94CB05892B09F4B6CE89E793E044
:102F90000E94B005F4CFF801E758FC4F14A28DE968
:102FA00093E00E949006A8CE8CE292E00E94AB06CD
:102FB0008CE79AE0A0E4B2E48093E2059093E30505
:102FC000A093E405B093E5052092E6053092E7056D
:102FD0004092E8055092E9058FE48093EB05A6E066
:102FE000B1E0B0938B06A0938A0682E3F701282F05
:102FF00011922A95E9F7D3011D928A95E9F78AE0A3
:10300000F60111928A95E9F718E0D501E12F1D929A
:10301000EA95E9F765E971E0CE01835F9E4F0E9472
:10302000F50860ED75E0C4010E946E0866EE71E07F
:10303000C4010E94F10766ED75E00E94070868EE82
:1030400071E00E94F1076CED75E00E940708BC0179
:10305000CE01835F9E4F0E945208C4010E94370731
:1030600042E350E0B401CE01835F9E4F0E94C90647
:10307000809190068823F9F080918F068F9380913C
:103080008E068F9380918D068F9380918C068F93FF
:103090008BEB92E09F938F931F921F93BF92AF92FF
:1030A0000E94B120B501C7010E9490200FB6F8948C
:1030B000DEBF0FBECDBF809191068823D1F08091F5
:1030C0008B068F9380918A068F9385EC92E09F9375
:1030D0008F931F928AE08F93DF92CF920E94B1204C
:1030E000B601C7010E9490200FB6F894DEBF0FBE54
:1030F000CDBF42E350E0B30184E896E00E94C906E8
:10310000B301C7010E9490208BEB95E00E94C00A9A
:103110008BEB95E00E942F0AFF92EF928091EB05D6
:10312000282F082E000C330B3F938F93A6ECB5E0AD
:10313000BF93AF938091EA05282F082E000C330B24
:103140003F938F934DEB55E05F934F939F928F92F8
:10315000ADECB2E0BF93AF931F9286E98F930CEE74
:1031600015E01F930F930E94B120D8010D9000200D
:10317000E9F78D010D5E15401093830600938206DA
:10318000CE01835F9E4F0E9437078CEE95E00E9430
:10319000900660918206709183068CEE95E048CE91
:1031A00088E192E00E94AB068AE590E09093F004FB
:1031B0008093EF0485E090E09093F2048093F10413
:1031C0008FE390E09093F6048093F5041092F80456
:1031D0001092F7041092FA041092F9041092FC0471
:1031E0001092FB048CE390E09093FE048093FD0426
:1031F00085E697E2909300058093FF046CED72E002
:10320000C4010E94F508C4010E946908C4010E941B
:1032100037070E94510B8C010E9490066091D604E2
:103220007091D704C8010E942D0609CED8018D9354
:103230008D01CD5EDE4FE881F981C351D140AE17DB
:10324000BF0709F035CE71CE8FE094E00E9476077B
:1032500081E095E00E943F078BEB95E00C945C07C2
:10326000EF920F931F93CF93DF93E80134E047FD74
:1032700034E1042E000C550B57FF03C051954195C6
:103280005109E32E022F242FAE010E947F19CE0197
:10329000DF91CF911F910F91EF900895BB272A30B6
:1032A00051F4992342F4BDE2909580957095619513
:1032B0007F4F8F4F9F4F0C945E19BB27FA01A62FAB
:1032C0006217710581059105330B30FB66F0AA2763
:1032D000660F771F881F991FAA1FA21710F0A21B45
:1032E00063953850A9F7A05DAA3308F0A95DA193B2
:1032F00036F7B111B1931082CA010C94B61BA9E044
:10330000B0E0E5E8F9E10C94F01C6A01F22EB02E71
:10331000102FFBE3AF2EA01608F41BE31F5F012F55
:1033200027E0AE014F5F5F4F0E94DE1ABC0189812A
:10333000982F9970913009F43FC09BE2E1FC04C0E2
:103340009E2D9170E0FC3AC05E2D5071E82FE87020
:1033500083FF46C084E0911101C083E0EF2DE81B9C
:103360008F1508F0E0E0D6018E2F20E2552351F1B1
:10337000992329F0D6019C93C60101966C01960110
:103380002D5F3F4FE2FE24C08EE4D6018C9391E482
:1033900011969C93119712968C93D9018E2F90E2DF
:1033A00081111BC0E20FF32FF11D10828EEF9FEFF2
:1033B0002996ECE00C940C1D9DE2C6CF90E2C4CFA0
:1033C0002D9381508111FCCFCE0ED11CE0E0D0CFE7
:1033D0008EE6D6018C9391E6DBCF9D938150E0CFB2
:1033E000482F447082FF3DC084E0911101C083E00A
:1033F0008F1510F4EF2DE81BD6018E2F20E25523F8
:1034000009F1992329F0D6019C93C60101966C011C
:1034100096012D5F3F4FE2FE1BC089E4D6018C93DD
:103420008EE411968C93119786E412968C93D901B1
:103430008E2F90E2882309F4B5CF9D938150FACF67
:103440002D9381508111FCCFCE0ED11CE0E0D9CF5D
:1034500089E6D6018C938EE611968C93119786E6B9
:10346000E4CF9B0177FF02C030E020E0A1E0B0E0B4
:10347000911102C0B0E0A0E0F9013196AE0FBF1F7C
:103480008B2C912CBB2009F461C05401EFEFAE1AD4
:10349000BE0AAA0DBB1DFA161B0619F014F04F2D1B
:1034A0004A1B511188C0E3FC59C07601A42FB0E239
:1034B000A1114FC0C40ED11C992309F45BC040E098
:1034C000D6011196F60190836D01552309F448C089
:1034D000012F060F9A81582F507184FF03C091333A
:1034E00009F4015010160CF047C0093008F008E04C
:1034F000EEE2FE2E5B01A01AB10885019194819441
:1035000091082F3F320729F4D601FC92F60131963B
:103510006F016217730794F1021713077CF5DB0143
:10352000A21BB30BAA24A394B12CAC0EBD1EAA0DF2
:10353000BB1D11968C9121503109D6011196281589
:103540003905F4F0F60180836D01DBCFB12CA12C9D
:10355000A0CFF701B1937F01A150AACF9111B0CFB5
:10356000D601942F50E302C05D9391509111FCCF8E
:10357000C40ED11C40E0ACCF01E0BACF80E3DBCF7A
:103580006217730731F4963388F4953311F4552399
:1035900069F0F6018083FD01842F90E2811108C05B
:1035A000A40FB11D1C9290E080E002CF81E3F1CF27
:1035B00091938150F3CF911183CF8ACF283008F0B7
:1035C00027E03327DA01990F311D87FD91600096BE
:1035D0006105710539F432602E5F3D9330E32A9521
:1035E000E1F708959F3F30F080387105610509F0DB
:1035F0003C5F3C5F3D93913008F08068911DDF9304
:10360000CF931F930F93FF92EF92192F987F969568
:10361000E92F96959695E90FFF27EA5FFE4F9927C8
:103620003327EE24FF24A701E701059008940794AF
:1036300028F4360FE71EF81E491F511D660F771F2D
:10364000881F991F0694A1F70590079428F4E70EA8
:10365000F81E491F561FC11D770F881F991F661F2F
:103660000694A1F70590079428F4F80E491F561FF9
:10367000C71FD11D880F991F661F771F0694A1F7DA
:103680000590079420F4490F561FC71FD81F990FA4
:10369000661F771F881F0694A9F7849110951770ED
:1036A00041F0D695C79557954795F794E7941A95A5
:1036B000C1F7ECEAF0E068941590159135916591A9
:1036C000959105907FE27395E118F10A430B560B33
:1036D000C90BD009C0F7E10CF11E431F561FC91FCB
:1036E000D01D7EF4703311F48A95E6CFE894015032
:1036F00030F0080F0AF40027021708F4202F239552
:10370000022F7A3328F079E37D932A95E9F710C0E8
:103710007D932A9589F60694979567953795179521
:103720001794E118F10A430B560BC90BD00998F016
:1037300023957E9173957A3308F070E37C93201380
:10374000B8F77E9170617D9330F0839571E37D933E
:1037500070E32A95E1F71124EF90FF900F911F91EC
:10376000CF91DF91992787FD90950895DC01FC01A9
:10377000672F71917723E1F7329704C07C916D93A5
:1037800070836291AE17BF07C8F308950E94081CAA
:1037900008F481E00895E89409C097FB3EF4909501
:1037A0008095709561957F4F8F4F9F4F9923A9F01A
:1037B000F92F96E9BB279395F695879577956795A9
:1037C000B795F111F8CFFAF4BB0F11F460FF1BC0ED
:1037D0006F5F7F4F8F4F9F4F16C0882311F096E980
:1037E00011C0772321F09EE8872F762F05C066232E
:1037F00071F096E8862F70E060E02AF09A95660FE7
:10380000771F881FDAF7880F9695879597F908959F
:10381000990F0008550FAA0BE0E8FEEF16161706E1
:10382000E807F907C0F012161306E407F50798F049
:10383000621B730B840B950B39F40A2661F0232B62
:10384000242B252B21F408950A2609F4A140A695DE
:103850008FEF811D811D08950E943F1C0C94B01CA8
:103860000E94A21C38F00E94A91C20F0952311F0A0
:103870000C94991C0C949F1C11240C94E41C0E9421
:10388000C11C70F3959FC1F3950F50E0551F629FC7
:10389000F001729FBB27F00DB11D639FAA27F00DA9
:1038A000B11DAA1F649F6627B00DA11D661F829FD0
:1038B0002227B00DA11D621F739FB00DA11D621FB5
:1038C000839FA00D611D221F749F3327A00D611DD2
:1038D000231F849F600D211D822F762F6A2F1124B4
:1038E0009F5750409AF0F1F088234AF0EE0FFF1FE7
:1038F000BB1F661F771F881F91505040A9F79E3F3E
:10390000510580F00C94991C0C94E41C5F3FE4F387
:10391000983ED4F3869577956795B795F795E79593
:103920009F5FC1F7FE2B880F911D9695879597F99C
:10393000089597F99F6780E870E060E008959FEF31
:1039400080EC089500240A94161617061806090636
:10395000089500240A941216130614060506089505
:10396000092E0394000C11F4882352F0BB0F40F48D
:10397000BF2B11F460FF04C06F5F7F4F8F4F9F4FCD
:10398000089557FD9058440F551F59F05F3F71F04F
:103990004795880F97FB991F61F09F3F79F08795B6
:1039A0000895121613061406551FF2CF4695F1DF3F
:1039B00008C0161617061806991FF1CF86957105CF
:1039C000610508940895E894BB2766277727CB0103
:1039D00097F908952F923F924F925F926F927F9244
:1039E0008F929F92AF92BF92CF92DF92EF92FF920F
:1039F0000F931F93CF93DF93CDB7DEB7CA1BDB0BBB
:103A00000FB6F894DEBF0FBECDBF09942A8839885F
:103A100048885F846E847D848C849B84AA84B98466
:103A2000C884DF80EE80FD800C811B81AA81B98172
:103A3000CE0FD11D0FB6F894DEBF0FBECDBFED0186
:103A400008955058BB27AA270E94391D0C94B01C1A
:103A50000E94A21C38F00E94A91C20F039F49F3F5C
:103A600019F426F40C949F1C0EF4E095E7FB0C94DB
:103A7000991CE92F0E94C11C58F3BA1762077307FB
:103A80008407950720F079F4A6F50C94E31C0EF456
:103A9000E0950B2EBA2FA02D0B01B90190010C015E
:103AA000CA01A0011124FF27591B99F0593F50F476
:103AB000503E68F11A16F040A22F232F342F4427CE
:103AC000585FF3CF469537952795A795F0405395C6
:103AD000C9F77EF41F16BA0B620B730B840BBAF096
:103AE0009150A1F0FF0FBB1F661F771F881FC2F701
:103AF0000EC0BA0F621F731F841F48F48795779515
:103B00006795B795F7959E3F08F0B0CF9395880FCE
:103B100008F09927EE0F9795879508950E94951DB7
:103B20006894B1110C94E41C08950E94C91C88F09B
:103B30009F5798F0B92F9927B751B0F0E1F0660F71
:103B4000771F881F991F1AF0BA95C9F714C0B130B2
:103B500091F00E94E31CB1E008950C94E31C672FE0
:103B6000782F8827B85F39F0B93FCCF386957795E1
:103B70006795B395D9F73EF49095809570956195CA
:103B80007F4F8F4F9F4F08950E94081C880B990B01
:103B90000895052E97FB1EF400940E94E01D57FD2A
:103BA00007D00E94831E07FC03D04EF40C94E01D46
:103BB00050954095309521953F4F4F4F5F4F089559
:103BC00090958095709561957F4F8F4F9F4F089589
:103BD000EE0FFF1F0590F491E02D0994689401C049
:103BE000E8948F929F92CF93DF930E94FC1DDF9108
:103BF000CF919F908F90089588249924F401E40137
:103C0000B0E49F93AA279A158B049C04ED05FE054A
:103C1000CF05D007A10798F4AD2FDC2FCF2FFE2FB3
:103C2000E92D982C892E982F872F762F652F542FCA
:103C3000432F322F2227B85031F7BF9127C01B2EB8
:103C4000BF91BB27220F331F441F551F661F771FCD
:103C5000881F991F881C991CEE1FFF1FCC1FDD1F9A
:103C6000AA1FBB1F8A149B04EC05FD05CE05DF05CA
:103C7000A007B10748F08A189B08EC09FD09CE0996
:103C8000DF09A00BB10B21601A94E1F62EF4940128
:103C9000AF01BE01CD01000C0895002E083090F058
:103CA000982F872F762F652F542F432F322F2227BF
:103CB0000850F4CF220F331F441F551F661F771F74
:103CC000881F991F0A95B2F7002D089597FD10944B
:103CD000002E083098F00850232F342F452F562FF0
:103CE000672F782F892F912DF4CF1594979587956D
:103CF0007795679557954795379527950A95AAF72C
:103D00001124002D0895A1E21A2EAA1BBB1BFD0150
:103D10000DC0AA1FBB1FEE1FFF1FA217B307E407AA
:103D2000F50720F0A21BB30BE40BF50B661F771F02
:103D3000881F991F1A9469F76095709580959095E2
:103D40009B01AC01BD01CF0108950F931F93CF9349
:103D5000DF938230910510F482E090E0E0919D06BF
:103D6000F0919E0630E020E0B0E0A0E0309799F4BA
:103D70002115310509F44AC0281B390B24303105BF
:103D8000D8F58A819B816115710589F1FB019383C7
:103D90008283FE0111C04081518102811381481745
:103DA0005907E0F04817590799F4109761F01296F7
:103DB0000C93129713961C933296CF01DF91CF91FB
:103DC0001F910F91089500939D0610939E06F4CFC6
:103DD0002115310551F04217530738F0A901DB01D5
:103DE0009A01BD01DF01F801C1CFEF01F9CF909336
:103DF0009E0680939D06CDCFFE01E20FF31F8193B7
:103E000091932250310939832883D7CF20919B0683
:103E100030919C06232B41F4209118013091190117
:103E200030939C0620939B06209116013091170138
:103E30002115310541F42DB73EB740911A0150913B
:103E40001B01241B350BE0919B06F0919C06E217A9
:103E5000F307A0F42E1B3F0B2817390778F0AC01AD
:103E60004E5F5F4F2417350748F04E0F5F1F50938A
:103E70009C0640939B06819391939FCFF0E0E0E0F6
:103E80009CCFCF93DF930097E9F0FC013297138228
:103E90001282A0919D06B0919E06ED0130E020E0D7
:103EA0001097A1F420813181820F931F20919B06EE
:103EB00030919C062817390709F061C0F0939C06E1
:103EC000E0939B06DF91CF910895EA01CE17DF07BB
:103ED000E8F54A815B819E0141155105B1F7E90181
:103EE000FB83EA8349915991C40FD51FEC17FD0755
:103EF00061F4808191810296840F951FE901998375
:103F00008883828193819B838A83F0E0E0E012962C
:103F10008D919C9113970097B9F52D913C91119734
:103F2000CD010296820F931F20919B0630919C0633
:103F30002817390739F6309751F510929E061092DE
:103F40009D06B0939C06A0939B06BCCFD383C283EF
:103F500040815181840F951FC817D90761F44E5FC6
:103F60005F4F88819981480F591F518340838A810F
:103F70009B81938382832115310509F0B0CFF093A3
:103F80009E06E0939D069ECFFD01DC01C0CF13820B
:103F90001282D7CFB0E0A0E0E0EDFFE10C94EC1C82
:103FA0008C01009751F4CB010E94A51E8C01C80121
:103FB000CDB7DEB7E0E10C94081DFC01E60FF71F5A
:103FC0009C0122503109E217F30708F49DC0D90182
:103FD000CD91DC911197C617D70798F0C530D10560
:103FE00030F3CE0104978617970708F3C61BD70B4B
:103FF0002297C193D1936D937C93CF010E94411F6F
:10400000D6CF5B01AC1ABD0A4C018C0E9D1EA0914F
:104010009D06B0919E06512C412CF12CE12C10975D
:1040200031F580919B0690919C068815990509F0C1
:104030005CC04616570608F058C080911601909152
:104040001701009741F48DB79EB740911A01509126
:104050001B01841B950BE817F90708F055C0F09376
:104060009C06E0939B06F90171836083A0CF8D913C
:104070009C91119712966C90129713967C901397BF
:10408000A815B90559F56C0142E0C40ED11CCA143B
:10409000DB0420F1AC014A195B09DA01129615978D
:1040A00080F06282738251834083D9016D937C9347
:1040B000E114F10471F0D7011396FC93EE9312977B
:1040C00076CF22968C0F9D1FF90191838083F30197
:1040D000EFCFF0939E06E0939D0669CF48165906F0
:1040E00008F42C017D01D3019ACFCB010E94A51EBB
:1040F0007C01009749F0AE01B8010E948720C801F9
:104100000E94411F870153CF10E000E050CFFB0118
:10411000DC0102C001900D9241505040D8F7089543
:10412000FB01DC010D900020E9F7119701900D9241
:104130000020E1F70895FB01DC0101900D920020C1
:10414000E1F70895FB01DC014150504048F0019037
:104150000D920020C9F701C01D9241505040E0F778
:104160000895AEE0B0E0E7EBF0E20C94F81C0D89A6
:104170001E898F89988D26E02C831A83098397FFE7
:1041800002C080E090E801979E838D83AE01455E7A
:104190005F4F698D7A8DCE0101960E94E1204D819D
:1041A0005E8157FD0AC02F813885421753070CF4F2
:1041B0009A01020F131FF80110822E96E4E00C946E
:1041C000141DABE0B0E0E7EEF0E20C94EA1C7C01D9
:1041D0003B018A01FC0117821682838181FFC8C1DD
:1041E000CE0101965C01F7019381F30193FD859166
:1041F00093FF81913F01882309F453C1853239F43B
:1042000093FD859193FF81913F01853229F4B70198
:1042100090E00E94D122E7CF912C212C312CFFE19C
:10422000F31538F08B3211F190F4803209F18332BA
:1042300029F137FC3CC020ED280F2A3050F536FE1E
:1042400020C08AE0989E200D1124922E06C08D3247
:1042500091F0803371F7689430F8F30193FD859104
:1042600093FF81913F018111DACF21C0689431F829
:10427000689432F8F2CF689433F8EFCF689434F84A
:10428000ECCFEAE02E9E200D1124222E689435F802
:10429000E4CF8E3229F436FC04C1689436F8DDCFC1
:1042A0008C3619F4689437F8D8CF8836B1F2982F45
:1042B0009F7D95549330E0F08336A1F18337C1F1AF
:1042C000833509F063C02801F2E04F0E511CF8015C
:1042D000C080D180692D70E036FC02C06FEF7FEFA7
:1042E000C6010E94BB224C01689437F882010AC0C3
:1042F0000C5F1F4FFFE3F98388248394912C6501A1
:10430000E89437F833FE2DC0522C8114910471F5D6
:10431000552009F468CFB70180E290E00E94D122D5
:104320005A94F6CFF801808189830E5F1F4FE4CF46
:104330002801F2E04F0E511CF801C080D180692D98
:1043400070E036FC02C06FEF7FEFC6010E94C6220C
:104350004C018201D5CFB70180E290E00E94D122CA
:104360002A942814190409F0B0F7CECFF60137FCCF
:10437000859137FE81916F01B70190E00E94D122B3
:1043800051105A94F1E08F1A9108BFCF843619F07A
:10439000893609F077C0F80137FE6BC06081718102
:1043A000828193810C5F1F4FF32DFF763F2E97FF85
:1043B00009C090958095709561957F4F8F4F9F4F65
:1043C000689437F82AE030E0A5010E940123C82E46
:1043D000CA188C2C432C36FE0CC0E89440F8C91443
:1043E00040F434FE05C032FC03C0F32DFE7E4F2E98
:1043F000892C44FE95C0FE01EC0DF11D80818033B7
:1044000009F087C0242D297E422E842D8870582ED5
:1044100043FC95C040FE8FC09C2C821418F42C0CD9
:10442000922C981844FE91C0B70180E390E00E945E
:10443000D12242FE09C088E790E041FE02C088E533
:1044400090E0B7010E94D122C91408F48AC0CA942E
:10445000D12C9FEFC91AD90ACA0CDB1CF601829134
:104460006F01B70190E00E94D122AC14BD04B1F7F6
:104470004FCF60817181072E000C880B990B0E5F66
:104480001F4F92CFD32CE894D4F82AE030E0853740
:1044900039F1232D297FD22E8F3601F148F488354A
:1044A000A9F0F701868197812B96E2E10C94061D15
:1044B000803749F08837A9F7D4FE02C06894D2F853
:1044C00020E130E00DC06894D4F8F6CF34FE03C08C
:1044D000822F8660D82E20E132E002C028E030E052
:1044E000F801D7FE0FC060817181828193810C5FDA
:1044F0001F4FA5010E940123C82ECA183D2CE89425
:1045000037F867CF6081718190E080E00E5F1F4FC8
:10451000F0CF42FC02C0839478CF8394839475CF0C
:10452000842D867809F471CFF6CFB70180E290E050
:104530000E94D12283948214C0F3512C73CF522C49
:104540005818821408F46ECFF8CF842D867809F4B9
:104550007BCF8BE241FE80E247FC8DE2B70190E029
:1045600071CFB70180E390E00E94D1229A946CCF82
:104570008FEF9FEF99CFFC010590615070400110C3
:10458000D8F7809590958E0F9F1F0895FC0161507C
:10459000704001900110D8F7809590958E0F9F1F65
:1045A00008950F931F93CF93DF93182F092FEB01DB
:1045B0008B8181FD09C01FEF0FEF812F902FDF91BD
:1045C000CF911F910F91089582FF14C02E813F81DA
:1045D0008C819D81281739073CF4E881F981CF014E
:1045E00001969983888310838E819F8101969F8392
:1045F0008E83E3CFE885F985812F0995892BA1F377
:10460000DACFFA01AA27283051F1203181F1E8945C
:104610006F936E7F6E5F7F4F8F4F9F4FAF4FB1E0B5
:104620003ED0B4E03CD0670F781F891F9A1FA11DB0
:10463000680F791F8A1F911DA11D6A0F711D811DB1
:10464000911DA11D20D009F468943F912AE0269F76
:1046500011243019305D3193DEF6CF010895462FD5
:104660004770405D4193B3E00FD0C9F7F6CF462FB6
:104670004F70405D4A3318F0495D31FD405241931F
:1046800002D0A9F7EACFB4E0A695979587957795DC
:104690006795BA95C9F700976105710508959B0163
:1046A000AC010A2E06945795479537952795BA95EC
:1046B000C9F7620F731F841F951FA01D089511E095
:1046C000C3E6D1E004C0FE010E94E81D2196C43675
:0846D000D107C9F7F894FFCFF0
:1046D800FFFFFFFF00E1000000000000C602C60265
:1046E800C602C602C60200009F06800000C1808183
:1046F800000000000000003F078707000000007668
:10470800077D07000000005C079307781E00A028BB
:1047180000F03C00405100127A00E4A20024F400AA
:1047280048E80190D00320A1070000000011048C84
:1047380003320427047804360454040000000014EB
:1047480006D9052A068905CB05B0058A05000000AB
:10475800001406D9052A068905CB05B0058A058EF9
:104768000191070D0A002530336425732563002560
:10477800303264257325630067253033640074255F
:1047880030336400722530336400702530336400A0
:104798005025303364006825303264006225303596
:1047A800640025732F2573257325732573257325B9
:1047B8007325732573003E002C0025733A21257359
:1047C8002563257325632573257300672E2E2E0018
:1047D800742E2E2E00722E2E2E00702E2E2E00508D
:1047E8002E2E2E00682E2E00622E2E2E2E2E0042E9
:1047F800616C6C6F6E0057494445312D3100415052
:104808004C5430300046344B4D4E2D370048656CC3
:104818006C6F0046344B4D4E202020200046344714
:104828004F482D39004634474F482D34005365749E
:10483800205350492070696E732100536574204CD1
:104848006F52612070696E732100667265717565BB
:104858006E63793A20005374617274696E67204CF4
:104868006F5261206661696C656421004C6F52610A
:1048780020696E697420646F6E65210069206C6917
:104888006B65204C6F5261003A3A00253033642F33
:1048980025303364002F413D253036640025733AB6
:1048A8002125732563257325632573005765617476
:0448B80068657200BD
:00000001FF
